:100000000C949F020C94C7020C94C7020C94C70274
:100010000C94C7020C94C7020C94C7020C9467148A
:100020000C94C7020C94C7020C94C7020C94C7022C
:100030000C94C7020C94C7020C94C7020C94C7021C
:100040000C941D140C94C7020C94E9140C94C31462
:100050000C94C7020C94C7020C94C7020C94C702FC
:100060000C941B150C94C70205A84CCDB2D44EB904
:100070003836A9020C50B9918688083CA6AAAA2A4B
:10008000BE000000803F00000000F304353F5E83A7
:100090006C3FBE147B3F6DC47E3F0FB17F3F43EC8E
:1000A0007F3F11FB7F3FC4FE7F3FB1FF7F3FECFFEF
:1000B0007F3FFBFF7F3FFFFF7F3F0000803F00004F
:1000C000803F0000803F0000803F0000803FF3043D
:1000D000353F15EFC33EC2C5473E36BDC83D30FB78
:1000E000483DB00AC93C900E493C880FC93BC60F39
:1000F000493BD60FC93AD90F493ADB0FC939DB0F53
:100100004939DB0FC938DB0F4938BF0FC9372F2AF0
:100110002A2A2A2A2A2A2A2A2A2A2A2A2A2A2A2A3F
:100120002A2A2A2A2A2A2A2A2A2A2A2A2A2A2A2A2F
:100130002A2A2A2A2A2A2A2A2A2A2A2A2A2A2A2A1F
:100140002A2A2A2A2A2A2A2A2A2A2A2A2A2A2A2A0F
:100150002A2A2A2A2A2A2A2F0041646A75737420BF
:10016000796F7572206D6963726F70686F6E65204C
:1001700073656E7369746976697479206163636FFE
:100180007264696E676C7900537065616B6572208B
:1001900053656E73697469766974792054657374F4
:1001A0003A20546172676574204E4F542062657422
:1001B0007765656E203130353020616E64203131D5
:1001C00035302000537065616B65722053656E7326
:1001D0006974697669747920546573743A2054613E
:1001E00072676574206265747765656E203130359D
:1001F0003020616E64203131353020004D697373D9
:10020000696F6E3A204573636170652066726F6D29
:1002100020436F74746F6E6C616E64002F2A2A2AFB
:100220002A2A2A2A2A2A2A2A2A2A2A2A2A2A2A2A2E
:100230002A2020594F5520424541542054484520FA
:100240004348414C4C454E47452121212020202A3E
:100250002A2A2A2A2A2A2A2A2A2A2A2A2A2A2A2AFE
:100260002A2A2A2F002F2A2A2A2A2A2A2A2A2A2A0E
:100270002A2A2A2A2A2A2A2A2A2A2020202020201A
:1002800020202020436F6E6772617473212121202A
:1002900020202020202020202A2A2A2A2A2A2A2A0E
:1002A0002A2A2A2A2A2A2A2A2A2A2A2A2F00202ED9
:1002B0002E2E4966207468697320697320756E65F7
:1002C000787065637465642C206D616B652073754F
:1002D000726520796F757220737065616B6572202D
:1002E00069732074776F2D6E65642E0020556E61E2
:1002F000626C6520746F2064656369706865722044
:100300006D6573736167652E20536F7272792C204F
:10031000626574746572206C75636B206E657874A9
:100320002074696D6521002053796E6368726F6E69
:10033000697A696E6720666F6F747072696E747324
:10034000206F7665722073657269616C2069732015
:1003500061207265616C2066656574206F6620653A
:100360006E67696E656572696E670020417265200F
:100370007765206120686162657264617368657287
:1003800079206F72206120646F742D646F742D6406
:100390006173686572793F0020532E4F2E532E20D3
:1003A000536176652E204F75722E20536F636B73E9
:1003B0002E00204265206361726566756C206E6F49
:1003C0007420746F20736F636B20796F757273651F
:1003D0006C6621210020546F756368696E67207414
:1003E000686520737065616B657220776F756C64EA
:1003F000206265206120746F652D74616C206469D2
:1004000073617374657221210020556E706C75677D
:1004100067696E6720616E797468696E6720776FAF
:10042000756C642062652061207265616C206D6965
:10043000737374657021210020476C616420746FB0
:10044000206B6E6F77207468696E677320617265C8
:10045000204F4B2E20456E6A6F7920796F75722080
:1004600074696D65206174207468652066616374C9
:100470006F72792100436F6E67726174756C61747D
:10048000696F6E7321205075742074686520666CE6
:10049000616720696E20796F7572207265706F7266
:1004A00074002E003A20496C2065737420646568DE
:1004B0006F72732E20566575696C6C657A206E6F4D
:1004C00075732061696465722E20566575696C6C60
:1004D000657A206E6F75732061696465722E0049BC
:1004E0007465726174696F6E20000000000800027C
:1004F00001000003040700000000000000000200EB
:10050000000000250028002B000000000024002728
:10051000002A000404040404040404020202020287
:1005200002030303030303010204081020408001B7
:100530000204081020010204081020003A161124B9
:100540001FBECFEFD8E0DEBFCDBF11E0A0E0B1E02D
:10055000E2EAFDE302C005900D92A03EB107D9F793
:1005600023E0A0EEB1E001C01D92AE3AB207E1F780
:1005700012E0CFE9D2E004C02197FE010E94C91E1B
:10058000CE39D107C9F70E949B160C94CF1E0C944C
:10059000000090E0FC01E95DFA4F24918D5E9A4FD6
:1005A000FC018491882399F090E0880F991FFC0149
:1005B000E75FFA4FA591B491FC01E150FB4F8591A3
:1005C00094918FB7F894EC91E22BEC938FBF089540
:1005D0008F929F92AF92BF92CF92DF92EF92FF9253
:1005E000CF936C01809104018A3069F08F3F09F448
:1005F0006FC0CF91FF90EF90DF90CF90BF90AF9002
:100600009F908F900895EEEFF4E0C491C7FDF1CF75
:100610008AE00E94C902CC2319F0C23009F021C13E
:10062000F12CE12C60E072E18AE790E0A7019601ED
:100630000E94481B49015A01DA01C9010197A10929
:10064000B1098F3F9105A105B10509F00CF4EDC08A
:1006500060E472E48FE090E0A70196010E94481BDD
:100660002150310941095109C23009F09FC082E08F
:100670002F3F31054105510509F00CF487C160E9B0
:1006800070ED83E090E0A70196010E94481B215085
:1006900031094109510983E02F3F310541055105D9
:1006A00009F00CF473C168E478EE81E090E0A701F2
:1006B00096010E94481B21503109410951092F3FE1
:1006C00031054105510511F00CF08EC084E05EC18A
:1006D0008AE080930401EEEFF4E0C491CF3F09F487
:1006E00088CFC13019F148F0C23009F43DC0C7FDD0
:1006F00080CF8AE00E94C90290CF14BC15BC84B59B
:10070000826084BD85B5816085BDEDE1F5E0E49151
:10071000F0E0EE0FFF1FE150FB4F85919491E1E374
:10072000F5E0E491E0936702C0E072CF10928000A0
:100730001092810080918100886080938100809177
:100740008100816080938100EDE1F5E0E491F0E0CB
:10075000EE0FFF1FE150FB4F85919491E1E3F5E02F
:10076000E491E093660254CF1092B0001092B10071
:100770008091B00082608093B0008091B100816070
:100780008093B100EDE1F5E0E491F0E0EE0FFF1FA2
:10079000E150FB4F859194919093650280936402A0
:1007A000E1E3F5E0E491E093630232CF2F3F3105BE
:1007B0004105510509F00CF452C068E478EE81E07F
:1007C00090E0A70196010E94481B21503109410980
:1007D0005109CC2309F4AFC02F3F31054105510524
:1007E00011F00CF0B0C072CF64E274EF80E090E0E2
:1007F000A70196010E94481B215031094109510966
:1008000085E02F3F31054105510509F008F4BEC0D0
:1008100062E17AE780E090E0A70196010E94481B20
:1008200021503109410951099CC09C0181E0C1114D
:10083000ADC095B5987F892B85BD27BD8FEF9FEF04
:10084000DC018093700290937102A0937202B093C6
:10085000730280916E00826080936E00CACE82E047
:10086000E6CFF12CE12C60E072E18AE790E0A7018D
:1008700096010E94481B215031094109510991E01C
:100880002115310581E0480751056CF068E478EEE8
:1008900081E090E0A70196010E94481B2150310998
:1008A0004109510993E0C13009F076C0809181007F
:1008B000887F892B80938100309389002093880062
:1008C0008FEF9FEFDC0180936C0290936D02A093F9
:1008D0006E02B0936F0280916F00826080936F0010
:1008E00088CE2093B3008FEF9FEFDC0180936802E6
:1008F00090936902A0936A02B0936B02809170009A
:1009000082608093700075CE84E02F3F31054105F1
:10091000510509F008F48DCF9AE0B594A794979407
:1009200087949A95D1F7A501940121503109410985
:10093000510985E07ECF83E02F3F31054105510508
:1009400009F00CF476CF62E17AE780E090E0A7014D
:1009500096010E94481B2150310941095109CC23BD
:1009600099F286E02F3F31054105510579F070F08D
:100970008AE0B594A794979487948A95D1F7A501B6
:100980009401215031094109510987E09091B1004A
:10099000987F892B8093B100C13009F48DCFC2308C
:1009A00009F49FCFC11125CE48CF90E0FC01E6515C
:1009B000FB4F2491FC01E95DFA4F3491FC01ED5E9F
:1009C000FA4FE491EE23C9F0222339F0233001F1EC
:1009D000A8F4213019F1223029F1F0E0EE0FFF1FC9
:1009E000E150FB4FA591B4918FB7F894EC91611150
:1009F00026C030953E233C938FBF08952730A9F041
:100A00002830C9F0243049F7809180008F7D03C0E1
:100A1000809180008F7780938000DFCF84B58F77BF
:100A200084BDDBCF84B58F7DFBCF8091B0008F7705
:100A30008093B000D2CF8091B0008F7DF9CF3E2B54
:100A4000DACF3FB7F89480915F0290916002A09155
:100A50006102B091620226B5A89B05C02F3F19F034
:100A60000196A11DB11D3FBFBA2FA92F982F88272E
:100A7000BC01CD01620F711D811D911D42E0660F09
:100A8000771F881F991F4A95D1F708958F929F92DB
:100A9000AF92BF92CF92DF92EF92FF924B015C0137
:100AA0000E9421056B017C010E9421056C197D09C2
:100AB0008E099F09683E734081059105A8F321E0E6
:100AC000821A9108A108B10888EEC80E83E0D81EEA
:100AD000E11CF11C81149104A104B10429F7FF90D9
:100AE000EF90DF90CF90BF90AF909F908F90089540
:100AF000089508959091040189130BC0EEEFF4E07E
:100B0000E4919FEF90930401E13049F028F0E23046
:100B100061F060E00C94D50410926E00FACF9091D1
:100B20006F009D7F90936F00F4CF909170009D7F38
:100B30009093700091E09093B0009091B100987FF5
:100B400094609093B1001092B300E3CFAF92BF9244
:100B5000CF92DF92EF92FF920F931F93CF93DF9389
:100B60006C017B018B01040F151FEB015E01AE18B8
:100B7000BF08C017D10759F06991D601ED91FC91DA
:100B80000190F081E02DC6010995892B79F7C50107
:100B9000DF91CF911F910F91FF90EF90DF90CF9059
:100BA000BF90AF900895FC01538D448D252F30E008
:100BB000842F90E0821B930B541710F0CF9608956A
:100BC00001970895FC01918D828D981761F0A28D97
:100BD000AE0FBF2FB11D5D968C91928D9F5F9F735D
:100BE000928F90E008958FEF9FEF0895FC01918D13
:100BF000828D981731F0828DE80FF11D858D90E080
:100C000008958FEF9FEF0895FC01918D228D892F1C
:100C100090E0805C9F4F821B91098F739927089504
:100C20008DEC92E00E94040621E0892B09F420E07B
:100C3000822F089580E090E0892B29F00E94100611
:100C400081110C9400000895FC01A48DA80FB92F08
:100C5000B11DA35ABF4F2C91848D90E001968F73E4
:100C60009927848FA689B7892C93A089B1898C9103
:100C7000837080648C93938D848D981306C0028852
:100C8000F389E02D80818F7D80830895EF92FF921C
:100C90000F931F93CF93DF93EC0181E0888F9B8D9F
:100CA0008C8D98131AC0E889F989808185FF15C059
:100CB0009FB7F894EE89FF896083E889F98980817C
:100CC0008370806480839FBF81E090E0DF91CF914B
:100CD0001F910F91FF90EF900895F62E0B8D10E06D
:100CE0000F5F1F4F0F731127E02E8C8D8E110CC0DC
:100CF0000FB607FCFACFE889F989808185FFF5CF27
:100D0000CE010E942406F1CFEB8DEC0FFD2FF11DDB
:100D1000E35AFF4FF0829FB7F8940B8FEA89FB8963
:100D200080818062CFCF0F931F93CF93DF938C018D
:100D3000D0E0C0E0F801EC0FFD1F6491662341F0A4
:100D40008DEC92E00E944606892B11F02196F2CF9D
:100D5000CE01DF91CF911F910F910895CF93DF9333
:100D6000EC01888D8823B9F0AA89BB89E889F989C3
:100D70008C9185FD03C0808186FD0DC00FB607FCF8
:100D8000F7CF8C9185FFF2CF808185FFEDCFCE012B
:100D90000E942406E9CFDF91CF91089520910102AE
:100DA000260F3327331F21323105ECF42091A302A3
:100DB000FC0190E080E0243069F082E00895A09189
:100DC00001022191AC014F515E4FA40FB52FB11D0F
:100DD0002C930196861798F380910102680F609317
:100DE000010280E0089581E008951092A30281E05D
:100DF0008093A20210927D0261E082E10E94D504FC
:100E000061E083E10E94D504E9EBF0E080818E7F10
:100E1000808380818D7F808388E48093B80085E41F
:100E20008093BC000895CF93DF9391E09093E0010D
:100E30008823B9F0C091B800D091BA008091BC006D
:100E40008A7B8093BC0060E082E10E94D50460E070
:100E500083E10E94D5040E94F506D093BA00C093A6
:100E6000B800DF91CF9108958F929F92AF92BF9279
:100E7000CF92DF92EF92FF920F931F93CF93DF9366
:100E8000D091CC02D13208F0D7C0182FC091CB023C
:100E90000E9421056B017C018091A30281116BC02E
:100EA00082E08093A3021093A2028FEF8093A102AD
:100EB0001092A002D0939F02ABEAB2E0EFE7F2E01B
:100EC00080E0D81391C010927E0280917E02CC0FF8
:100ED000C82BC0937E0280917D02813009F088C0CA
:100EE00010927D020E9421056B017C0180917E029F
:100EF0008093BB008091A5029091A602A091A702C9
:100F0000B091A802892B8A2B8B2BA1F00E9421057E
:100F10000091A5021091A6022091A7023091A8028B
:100F20006C197D098E099F090617170728073907CD
:100F300008F442C08091BC0083FDD8CF85EC80933B
:100F4000BC000E9421056B017C018091A3028230CC
:100F500009F450C08091A1028F3F09F46FC08091C5
:100F6000A102803209F46CC08091A102803309F49F
:100F700069C084E026C08091A5029091A602A0914C
:100F8000A702B091A802892B8A2B8B2B09F484CF5E
:100F90000E9421058090A5029090A602A090A70231
:100FA000B090A8026C197D098E099F0986169706D4
:100FB000A806B90608F070CF8091A4020E9413071A
:100FC00085E01092AA021092CC021092A902DF9141
:100FD000CF911F910F91FF90EF90DF90CF90BF9036
:100FE000AF909F908F9008959D9191938F5F69CF5F
:100FF00085EEA5CF8091A5029091A602A091A702AF
:10100000B091A802892B8A2B8B2B09F49ECF0E94CA
:1010100021050091A5021091A6022091A70230910E
:10102000A8026C197D098E099F0906171707280762
:10103000390708F08ACFC0CF81E0C3CF80E0C1CFAD
:1010400082E0BFCF83E0BDCF0895E0912902809177
:101050002802E81730F4F0E0E65DFD4F808190E073
:1010600008958FEF9FEF08959091290280912802B3
:101070002FEF3FEF981748F4E92FF0E0E65DFD4FC2
:10108000208130E09F5F90932902C90108958091EB
:10109000280290912902891B990B0895CF92DF9223
:1010A000EF92FF920F931F93CF93DF937C01CB01BD
:1010B0008A012091A902222389F0EB016B01C40E61
:1010C000D51ECC15DD0569F06991D701ED91FC9134
:1010D0000190F081E02DC7010995F3CF642F0E94A4
:1010E000CE06C801DF91CF911F910F91FF90EF9035
:1010F000DF90CF900895CF93DF931F92CDB7DEB7E7
:1011000069832091A9022223F9F02091CC02203298
:1011100058F021E030E0FC013383228390E080E04E
:101120000F90DF91CF9108958091AA02E82FF0E00F
:10113000E555FD4F998190838F5F8093AA0280933C
:10114000CC0281E090E0ECCF61E0CE0101960E94FC
:10115000CE06F7CF2F923F924F925F926F927F927F
:101160008F929F92AF92BF92CF92DF92EF92FF92B7
:101170000F931F93CF93DF93CDB7DEB7A9970FB629
:10118000F894DEBF0FBECDBF362FFC01E75AFF4FEC
:1011900040815181628173814F5F5F4F6F4F7F4FFD
:1011A0004083518362837383DC01AC5BBF4F2C911E
:1011B000E3E0E227E80FF92FF11D34832F5F2C9332
:1011C000203409F016C1FC01EB5BFF4F40805180D9
:1011D000628073804D865E866F86788A34966080E2
:1011E000718082809380698A7A8A8B8A9C8A3496FD
:1011F00080809180A280B3808D8A9E8AAF8AB88ECB
:101200003496A080B180C280D380A98EBA8ECB8E56
:10121000DC8E3496C080D180E280F380CD8EDE8E6D
:10122000EF8EF8A2C986DA86EB86FC862D853E8590
:101230004F8558892D833E834F835887C988DA8824
:10124000EB88FC88898C9A8CAB8CBC8C0D891E89B0
:101250002F89388DBEE02B2E312C19A249A14431A3
:1012600008F051C1B501A401402751276227732717
:101270004C215D216E217F212A013B014824592404
:101280006A247B24B301A201475656486D47754A2C
:101290004EA35FA368A779A7E9A1EF70F0E03196AC
:1012A000EE0FFF1FEE0FFF1FE80FF91F4D805E804E
:1012B0006F8078845BE176946794579447945A954D
:1012C000D1F74D815E816F817885A5E0440F551F70
:1012D000661F771FAA95D1F74429552966297729D2
:1012E0004080518062807380440D551D661D771DBE
:1012F0002A013B014EA15FA168A579A5440E551EA8
:10130000661E771E49855A856B857C85440D551D63
:10131000661D771D49835A836B837C8326013701C1
:10132000B2E07694679457944794BA95D1F7B70191
:10133000A601EEE1440F551F661F771FEA95D1F70E
:101340004429552966297729A9A1AF5FA9A3A0350A
:1013500009F068C0FC01EB5BFF4F4D845E846F8435
:101360007888C980DA80EB80FC804C0C5D1C6E1C98
:101370007F1C40825182628273823496C988DA88E7
:10138000EB88FC884D805E806F807884C40CD51C0F
:10139000E61CF71CC082D182E282F3823496CD88AB
:1013A000DE88EF88F88C4C0D5D1D6E1D7F1D40831F
:1013B0005183628373833496498D5A8D6B8D7C8DF6
:1013C000400F511F621F731F4083518362837383D9
:1013D00034962D8D3E8D4F8D58A1820E931EA41EE6
:1013E000B51E80829182A282B3828C5B9F4FDC010A
:1013F0001C92A9960FB6F894DEBF0FBECDBFDF9149
:10140000CF911F910F91FF90EF90DF90CF90BF9001
:10141000AF909F908F907F906F905F904F903F9094
:101420002F900895E9A1EF70A4E0EA9FF001112444
:101430002C014E0E5F1E5A864986D2011496CD901D
:10144000DD90ED90FC901797B9A1B03108F443C03E
:10145000F1013597EF70FF273196EE0FFF1FEE0F6A
:10146000FF1FE80FF91FD101AF70BB271196AA0F1C
:10147000BB1FAA0FBB1FA80FB91F4D905D906D90A9
:101480007C90C424D524E624F724408051806280D7
:101490007380C424D524E624F724F1013B97EF7030
:1014A000FF273196EE0FFF1FEE0FFF1FE80FF91F0A
:1014B0004080518062807380C424D524E624F724C0
:1014C000CC0CDD1CEE1CFF1CC11CE985FA85C48216
:1014D000D582E682F782FFEF2F1A3F0A89869A8625
:1014E000AB86BC86CD80DE80EF80F88449805A8050
:1014F0006B807C804D825E826F82788648015901C4
:101500008A019B01ABCE59A1583298F4B501A401D0
:1015100040275127622773272A013B014C245D2471
:101520006E247F24B301A2014F5554416642714994
:10153000AFCE59A15C33D8F4B901A8014C295D297B
:101540006E297F29482159216A217B2128013901EF
:101550004C205D206E207F20442A552A662A772A57
:10156000B301A20144525344644E704791CEB50179
:10157000A40140275127622773272A013B014C24ED
:101580005D246E247F24B301A2014A525E436D495B
:1015900075437ECE089590E080E00895FC010190AF
:1015A0000020E9F73197AF01481B590BBC018DECC6
:1015B00092E00C94A6058DE791E00C94CE0ACF93AF
:1015C000DF930E949306EC010E94DB0A8C0F9D1FA3
:1015D000DF91CF9108958F929F92AF92BF920F9318
:1015E0001F93CF93DF93CDB7DEB7A1970FB6F894D3
:1015F000DEBF0FBECDBF19A2423008F44AE08E0113
:101600000F5D1F4F842E912CB12CA12CA5019401AC
:101610000E94671BE62FB901CA01EA30F4F4E05DCD
:10162000D801EE938D01232B242B252B79F790E005
:1016300080E0109719F0CD010E94CE0AA1960FB656
:10164000F894DEBF0FBECDBFDF91CF911F910F91F8
:10165000BF90AF909F908F900895E95CE1CFCF93BA
:10166000DF930E94CE0AEC010E94DB0A8C0F9D1FC3
:10167000DF91CF9108952F923F924F925F926F9298
:101680007F928F929F92AF92BF92CF92DF92EF9212
:10169000FF920F931F93CF93DF93CDB7DEB7CA5856
:1016A000D1400FB6F894DEBF0FBECDBFCB57DE4F93
:1016B00099838883C558D1402DB73EB7C957DE4FAF
:1016C00039832883C758D14081E093E2A5E4B7E687
:1016D000CF59DE4F88839983AA83BB83C156D140FB
:1016E00089E89BEAADECBFEECB59DE4F8883998346
:1016F000AA83BB83C556D1408EEF9CEDAAEBB8E917
:10170000C759DE4F88839983AA83BB83C956D140CA
:1017100086E794E5A2E3B0E1C359DE4F888399835D
:10172000AA83BB83CD56D14080EF91EEA2EDB3ECFE
:10173000CF58DE4F88839983AA83BB83C157D1409A
:101740008DB79EB7805491090FB6F8949EBF0FBE17
:101750008DBFEDB7FEB731968F5B9F4FDF011D92B6
:101760001D921D921D928A179B07C9F72091830332
:101770008091840390E0B0E0A0E0DC019927882705
:10178000B22B90684081518162817381842B952BAB
:10179000A62BB72B80839183A283B38380E190E053
:1017A000A0E0B0E084AF95AFA6AFB7AFAE014F5F9A
:1017B0005F4F80E491E0DA019C011D92215030409E
:1017C000E1F7C158DE4F59834883CF57D140C757FF
:1017D000DE4FF983E883C958D1401E013FE3231A45
:1017E000310880EF91EEA2EDB3ECCF57DE4F888346
:1017F0009983AA83BB83C158D14081E093E2A5E4D9
:10180000B7E6C558DE4F88839983AA83BB83CB573D
:10181000D14089E89BEAADECBFEECB58DE4F888320
:101820009983AA83BB83C557D14006E714E522E319
:1018300030E18EEFC82E8CEDD82E8AEBE82E88E9A9
:10184000F82EC758DE4F1882C957D140C758DE4F0F
:101850009881C957D140903108F047C2C757DE4F31
:10186000E881F981C958D14080819181A281B381F9
:10187000C158DE4FE881F981CF57D14080839183F1
:10188000A283B383B701A60140275127622773279C
:10189000CB58DE4F88819981AA81BB81C557D14041
:1018A000482359236A237B23402751276227732724
:1018B000B9E98B2EB9E79B2EB2E8AB2EBAE5BB2E69
:1018C000C558DE4F488059806A807B80CB57D14015
:1018D000EBE17694679457944794EA95D1F7C5580D
:1018E000DE4F88819981AA81BB81CB57D140F5E039
:1018F000880F991FAA1FBB1FFA95D1F78429952934
:10190000A629B729C158DE4FE881F981CF57D140C8
:101910004190519061907190C158DE4FF983E883F6
:10192000CF57D140840D951DA61DB71D840F951F5F
:10193000A61FB71F880D991DAA1DBB1DCF57DE4FCF
:1019400088809980AA80BB80C158D140880E991E9A
:10195000AA1EBB1ECB58DE4F88819981AA81BB810C
:10196000C557D14042E0B695A795979587954A957A
:10197000D1F7CB58DE4F488059806A807B80C557AD
:10198000D1405EE1440C551C661C771C5A95D1F77A
:10199000482A592A6A2A7B2AC758DE4FF881C95734
:1019A000D140FF5FC758DE4FF883C957D140C757B2
:1019B000DE4F88819981C958D1400496C757DE4FC0
:1019C00099838883C958D14094E0290E311CC558A9
:1019D000DE4F88819981AA81BB81CB57D140CB58FA
:1019E000DE4F88839983AA83BB83C557D140CF57E5
:1019F000DE4F088319832A833B83C158D140F035D9
:101A000009F066C19FEF891A9CED990A9AEBA90A21
:101A100098E9B90ACF59DE4F88829982AA82BB829F
:101A2000C156D140C558DE4F88819981AA81BB81BA
:101A3000CB57D14087579445A243B041CB59DE4F95
:101A400088839983AA83BB83C556D140A2E04A1AF2
:101A5000A3E25A0AA5E46A0AA7E67A0AC759DE4F42
:101A6000488259826A827B82C956D140BAE8CB1A31
:101A7000BBEADB0ABDECEB0ABFEEFB0AC359DE4F43
:101A8000C882D982EA82FB82CD56D14000511E41E4
:101A90002D423C43CF58DE4F088319832A833B8372
:101AA000C157D140C957DE4FE881F981C758D140AD
:101AB0000FB6F894FEBF0FBEEDBFFE01EF59FE4F0B
:101AC0009F012C5E3F4F80E090E0DC0141915191FD
:101AD0006191719184279527A627B7272E173F0775
:101AE000A9F78B3D9748AA4BB84021F080E891E0D8
:101AF0000E942F0B9E012F5F3F4F69018901F0E08B
:101B0000E0E024E1822E912C30E020E05F01A20E83
:101B1000B31E7901EE0CFF1CE00EF11EC501B401ED
:101B20000E94B51EA1E6B1E0AC0FBD1FA80FB91F02
:101B30004C91AA9CC001AB9C900D900D1124840F78
:101B4000911DD7018D939C932F5F3F4F2830310516
:101B5000E9F63896005F1F4FE034F105A9F68E01D3
:101B60000F5B1E4FF801B096C758DE4FF983E8832C
:101B7000C957D1407801CB57DE4F28813981C558EC
:101B8000D140205E3F4FC558DE4F39832883CB5765
:101B9000D140D7011D921D921D921D927D01CB5700
:101BA000DE4F28803980C558D140CB58DE4FD982CE
:101BB000C882C557D140412C512C3201CB58DE4F41
:101BC000A881B981C557D1406D917D91CB58DE4F29
:101BD000B983A883C557D140F10181909190A1901C
:101BE000B1901F01072E000C880B990B0E94AA1CB4
:101BF000A50194010E949E1D9B01AC01C301B2018D
:101C00000E948A1B2B013C01C558DE4F2881398177
:101C1000CB57D1402215330589F6F701349740821E
:101C2000518262827382B0E1CB0ED11CC758DE4F65
:101C3000E881F981C957D140EE15FF0509F0A9CF18
:101C400084E7C82E82E0D82ED8018D909D90AD906B
:101C5000BD908D0120E030E0A901C501B4010E94D2
:101C6000991D20E030E040E05FE387FDDEC0C50164
:101C7000B4010E948A1B0E94721CF60161936F01DD
:101C8000E016F10609F7C957DE4F28813981C75898
:101C9000D1400FB6F8943EBF0FBE2DBFC657DE4FE2
:101CA0000FB6F894DEBF0FBECDBFDF91CF911F916D
:101CB0000F91FF90EF90DF90CF90BF90AF909F90EB
:101CC0008F907F906F905F904F903F902F900895EE
:101CD000C558DE4F88829982AA82BB82CB57D140F9
:101CE0009701860173016201B1CDD101D4964D9166
:101CF0005D916D917C91D79790968D919D910D906E
:101D0000BC91A02D84279527A627B727F1014085F0
:101D100051856285738584279527A627B72740813B
:101D200051816281738184279527A627B727880F61
:101D3000991FAA1FBB1F811DC158DE4FE881F98181
:101D4000CF57D14080839183A283B383C758DE4F9E
:101D5000F881C957D140F43108F494CDC758DE4F0B
:101D60009881C957D1409832D8F4B701A6014027CD
:101D7000512762277327CB58DE4F88819981AA812A
:101D8000BB81C557D140482759276A277B27A1EA3D
:101D90008A2EABEE9A2EA9EDAA2EAEE6BA2E90CDE3
:101DA000C758DE4F9881C957D140B701A6019C336F
:101DB00018F5402B512B622B732BCB58DE4F8881AB
:101DC0009981AA81BB81C557D140482359236A23F1
:101DD0007B23D701C60180239123A223B323482B61
:101DE000592B6A2B7B2BFCED8F2EFCEB9F2EFBE1FE
:101DF000AF2EFFE8BF2E64CD4027512762277327FF
:101E0000CB58DE4F88819981AA81BB81C557D140CB
:101E1000482759276A277B27E6ED8E2EE1EC9E2E78
:101E2000E2E6AE2EEAECBE2E4BCDC501B4010E9417
:101E3000891B21CF85ED8093BC008091A5029091F4
:101E4000A602A091A702B091A8020796A11DB11DFC
:101E500023E0B695A795979587952A95D1F7209178
:101E6000BC0024FD03C01092A30208954091A50276
:101E70005091A6026091A7027091A802452B462BB3
:101E8000472B69F30097A105B10541F02AE22A9595
:101E9000F1F700C00197A109B109E1CF8091A40237
:101EA0000C9413072F923F924F925F926F927F9202
:101EB0008F929F92AF92BF92CF92DF92EF92FF925A
:101EC0000F931F93CF93DF93CDB7DEB7CC52D4409F
:101ED0000FB6F894DEBF0FBECDBF0E9421056B0187
:101EE0007C0124EFC20ED11CE11CF11CAE014F5F3E
:101EF0005F4F1A01CE018F5F9D4FC95FDB4F998302
:101F00008883C750D4408C01C55FDB4F5983488319
:101F1000CB50D440E0E4BE2EB0927C0080917A0099
:101F2000806480937A0080917A0086FDFCCF609176
:101F3000780070917900072E000C880B990B0E9495
:101F4000AA1CC55FDB4FA881B981CB50D4406D93EB
:101F50007D938D939D93C55FDB4FB983A883CB5051
:101F6000D440F80111921192119211928F010E94A6
:101F700021056C157D058E059F05C8F3F4EFCF0E86
:101F8000D11CE11CF11CC55FDB4F28813981CB508E
:101F9000D440C95FDB4F48815981C750D4402417D2
:101FA000350709F0B9CF7901610110E000E0B8010F
:101FB00090E080E00E94A81C20E030E04EEF52E468
:101FC0000E94001C2BED3FE049EC50E40E949E1D56
:101FD0000E94FB1B2FE135E84BEE5EE30E949E1D45
:101FE0009B01AC0161E77DE38AE09FE30E94891BCE
:101FF0004B015C01AC019B01D6016D917D918D91EE
:102000009C910E949E1DF60161937193819391931F
:102010006F01A5019401D7019E918E917E916E91E1
:102020007D010E949E1DF7016083718382839383EB
:102030000F5F1F4F0034110509F0B9CFF10150E0D7
:1020400040E090E080E01DC048175907C8F4DC016B
:10205000AA0FBB1FAA0FBB1FA20DB31D04811581C0
:1020600026813781CD90DD90ED90FC901397C4824E
:10207000D582E682F7820D931D932D933C9313979F
:10208000349620E430E08217930728F0821B930BEC
:1020900036952795F8CF820F931F4F5F5F4F4F37CD
:1020A000510591F6C75EDB4F188219821A821B8296
:1020B000C951D440C15EDB4F1882CF51D440C05EBD
:1020C000DB4F1882C052D440F0E8CF5DDB4FF8837D
:1020D000C152D4402FEBCE5DDB4F2883C252D44097
:1020E00041E050E0CB5FDB4F59834883C550D4407B
:1020F000C75FDB4F19821882C950D440CB5FDB4FDA
:1021000088819981C550D440880F991FC75DDB4FE6
:1021100099838883C952D440CB5FDB4FA881B981B2
:10212000C550D44033E0AA0FBB1F3A95E1F7C55D17
:10213000DB4FB983A883CB52D440CB5FDB4FE88120
:10214000F981C550D440EE0FFF1FEE0FFF1FC95D90
:10215000DB4FF983E883C752D440C95FDB4F288146
:102160003981C750D440C35EDB4F39832883CD51BA
:10217000D440CB5EDB4F39822882C551D440412CFC
:10218000512C320100E0C35FDB4F1882CD50D440A8
:1021900030E8C25FDB4F3883CE50D4401FE3C15FCD
:1021A000DB4F19821882CF50D440C15FDB4F48818A
:1021B0005981CF50D440CB5FDB4F88819981C55086
:1021C000D4404817590709F4EBC1C35EDB4FA8811F
:1021D000B981CD51D440CF5FDB4FB983A883C150C3
:1021E000D440CB5EDB4FE881F981C551D440CD5F4F
:1021F000DB4FF983E883C350D440C95EDB4F59837A
:102200004883C751D440C95EDB4F28813981C7510B
:10221000D4402038310508F020C1CD5FDB4F488124
:102220005981C350D440C95DDB4F88819981C75221
:10223000D440480F591FCB5DDB4F59834883C552AB
:10224000D440DA018D909D90AD90BC90CF5FDB4F74
:10225000E881F981C150D440E80FF91FCD5DDB4F13
:10226000F983E883C352D440208131814281538174
:10227000CF5EDB4F288339834A835B83C151D440CF
:10228000202FC35FDB4F3881CD50D440C25FDB4F7E
:102290004881CE50D440512FC501B4010E949E1DEB
:1022A0006B017C01A3019201CF5EDB4F68817981D4
:1022B0008A819B81C151D4400E949E1D9B01AC012B
:1022C000C701B6010E94891B6B017C01CF5EDB4F09
:1022D000288139814A815B81C151D440602FC35F1D
:1022E000DB4F7881CD50D440C25FDB4F8881CE5028
:1022F000D440912F0E949E1DCF5EDB4F688379836F
:102300008A839B83C151D440A3019201C501B401CA
:102310000E949E1D9B01AC01CF5EDB4F68817981DD
:102320008A819B81C151D4400E948A1B4B015C0170
:10233000A7019601CD5FDB4FE881F981C350D440FE
:1023400060817181828193810E94891BCB5DDB4F0B
:10235000A881B981C552D4406D937D938D939C9390
:102360001397A5019401CF5FDB4FE881F981C1503C
:10237000D44060817181828193810E94891BCD5DEF
:10238000DB4FA881B981C352D4406D937D938D9367
:102390009C931397A7019601CD5FDB4FE881F981EC
:1023A000C350D44060817181828193810E948A1BD5
:1023B000CD5FDB4FA881B981C350D4406D937D932D
:1023C0008D939C931397A5019401CF5FDB4FE88118
:1023D000F981C150D44060817181828193810E94D2
:1023E0008A1BCF5FDB4FA881B981C150D4406D9368
:1023F0007D938D939C931397C95EDB4FE881F981A0
:10240000C751D440C75DDB4F28813981C952D440C0
:10241000E20FF31FC95EDB4FF983E883C751D44055
:10242000CD5FDB4F48815981C350D440C55DDB4F40
:1024300088819981CB52D440480F591FCD5FDB4F23
:1024400059834883C350D440A80FB91FCF5FDB4FD7
:10245000B983A883C150D440D6CEC15EDB4F28815A
:10246000CF51D440C05EDB4F3881C052D440CF5DE5
:10247000DB4F4881C152D440CE5DDB4F5881C25200
:10248000D440602FC35FDB4F7881CD50D440C25F12
:10249000DB4F8881CE50D440912F0E949E1D6B014E
:1024A0007C01C75EDB4F288139814A815B81C9513C
:1024B000D440C301B2010E949E1D9B01AC01C70123
:1024C000B6010E94891B6B017C01C15EDB4F288134
:1024D000CF51D440C05EDB4F3881C052D440CF5D75
:1024E000DB4F4881C152D440CE5DDB4F5881C25290
:1024F000D440C301B2010E949E1D4B015C01C75E26
:10250000DB4F288139814A815B81C951D440602FDA
:10251000C35FDB4F7881CD50D440C25FDB4F8881F1
:10252000CE50D440912F0E949E1DA50194010E947F
:102530008A1B2B013C01C15FDB4FA881B981CF50C1
:10254000D4401196C15FDB4FB983A883CF50D440EC
:10255000CB5EDB4FE881F981C551D4403496CB5E28
:10256000DB4FF983E883C551D440C35EDB4F28813C
:102570003981CD51D4402C5F3F4FC35EDB4F39834F
:102580002883CD51D4400C2DC35FDB4FD882CD5072
:10259000D440C25FDB4FE882CE50D4401F2D05CE21
:1025A000C75FDB4FE881F981C950D440E653FF4F44
:1025B00085919591A591B491C75FDB4FE881F98131
:1025C000C950D440EA57FF4F459155916591749198
:1025D000C15EDB4F4883CF51D440C05EDB4F588390
:1025E000C052D440CF5DDB4F6883C152D440CE5D32
:1025F000DB4F7883C252D4409C01AD015058C75E76
:10260000DB4F288339834A835B83C951D440C75F3A
:10261000DB4F48815981C950D4404C5F5F4FC75F41
:10262000DB4F59834883C950D440C75DDB4F888155
:102630009981C952D440CB5FDB4F99838883C550C1
:10264000D4404C31510509F059CD8101D8016D912B
:102650007D918D919D918D01C95FDB4FE881F9815D
:10266000C750D440C190D190E190F190C95FDB4F49
:10267000F983E883C750D4409B01AC010E949E1DA2
:102680004B015C01A7019601C701B6010E949E1D86
:102690009B01AC01C501B4010E948A1B0E94111E5E
:1026A000F80134976083718382839383C55FDB4F26
:1026B00028813981CB50D4400217130739F610E036
:1026C00000E0712C612C512C412CEE24E394F12C70
:1026D000D1016D917D918D919D911D018C901196EF
:1026E0009C9011971296CC9012971396DC905701FC
:1026F000BFEFAB1ABB0A9401A6010E94F61B87FF2D
:102700001AC0F1012481358146815781B401C60187
:102710000E94991D18167CF4272D362D452D542D19
:10272000B401C6010E94991D18162CF48701782C5B
:10273000692C5C2C4D2C7501F1E4AF16B10441F607
:10274000180121E0221A20EC320A220C331C220C40
:10275000331CFE01E20DF31D81809280A380B480C2
:10276000FE01E20DF31DC184D284E384F484A70149
:102770009601C501B4010E94891B2B013C01FE0199
:10278000E20DF31D65817681878190859B01AC0107
:102790000E948A1B9B01AC01C501B4010E94891BE8
:1027A000A70196010E948A1B9B01AC01C301B201E3
:1027B0000E94001C20E030E040E05FE30E949E1D8C
:1027C0006B017C01B80190E080E00E94A81C9B0195
:1027D000AC01C701B6010E948A1B20E030E040E84E
:1027E00055E40E949E1D0034110501F120E030E007
:1027F0004EEF52E40E94001CC45DDB4F0FB6F8940C
:10280000DEBF0FBECDBFDF91CF911F910F91FF9023
:10281000EF90DF90CF90BF90AF909F908F907F9080
:102820006F905F904F903F902F90089520E030E0A0
:1028300040E05CE30E949E1DDFCF1F920F920FB617
:102840000F9211242F933F938F939F93AF93BF9336
:1028500080915B0290915C02A0915D02B0915E025A
:1028600030915A0223E0230F2D3758F50196A11D10
:10287000B11D20935A0280935B0290935C02A09357
:102880005D02B0935E0280915F0290916002A09120
:102890006102B09162020196A11DB11D80935F0299
:1028A00090936002A0936102B0936202BF91AF91D6
:1028B0009F918F913F912F910F900FBE0F901F907E
:1028C000189526E8230F0296A11DB11DD2CF1F92A5
:1028D0000F920FB60F9211242F933F934F935F9354
:1028E0006F937F938F939F93AF93BF93EF93FF93D8
:1028F0008091680290916902A0916A02B0916B0286
:10290000892B8A2B8B2BD1F190916302E091640289
:10291000F09165028081892780838091680290917F
:102920006902A0916A02B0916B02181619061A0684
:102930001B069CF48091680290916902A0916A0242
:10294000B0916B020197A109B1098093680290933D
:102950006902A0936A02B0936B02FF91EF91BF915D
:10296000AF919F918F917F916F915F914F913F9127
:102970002F910F900FBE0F901F901895809104011A
:102980000E947A05EACF1F920F920FB60F92112480
:102990002F933F934F935F936F937F938F939F9367
:1029A000AF93BF93EF93FF938DEC92E00E942406C8
:1029B000FF91EF91BF91AF919F918F917F916F9117
:1029C0005F914F913F912F910F900FBE0F901F90ED
:1029D00018951F920F920FB60F9211242F938F9379
:1029E0009F93EF93FF93E091DD02F091DE028081EF
:1029F000E091E302F091E40282FD1BC0908180919E
:102A0000E6028F5F8F732091E702821741F0E09119
:102A1000E602F0E0E353FD4F958F8093E602FF91CD
:102A2000EF919F918F912F910F900FBE0F901F905C
:102A300018958081F4CF1F920F920FB60F92112438
:102A40002F933F934F935F936F937F938F939F93B6
:102A5000AF93BF93EF93FF938091B900887F803647
:102A600009F44AC0F0F5883209F4A7C018F580319E
:102A700009F49BC0B8F4882309F4F9C0883009F43C
:102A800094C0FF91EF91BF91AF919F918F917F91F2
:102A90006F915F914F913F912F910F900FBE0F90CB
:102AA0001F901895883109F488C0803251F78093BF
:102AB000A10214C0803409F49DC040F48033B9F3FE
:102AC0008833F9F68093A10285ECB0C0803509F413
:102AD00085C0883509F496C0883499F60E941A0F8B
:102AE000D0CF883909F48CC038F5883729F050F4F4
:102AF000883611F0803729F683E08093A302109284
:102B0000230257C0883809F47BC0803919F0803817
:102B100009F0B7CF80912302803208F071C0E091B4
:102B2000230281E08E0F809323028091BB00F0E0AE
:102B3000ED5FFD4F80833DC0803B39F0E0F4803A8B
:102B400009F479C0883A09F09CCF84E08093A3020D
:102B50001092020210920102E0912602F0912702E7
:102B600009958091010281110FC081E080930102DB
:102B70001092E10109C0803C09F4A6CF883C09F419
:102B8000A3CF883B09F07DCFE091020281E08E0F58
:102B900080930202F0E0EF51FE4F80818093BB00F2
:102BA000909102028091010229C080917E0280935F
:102BB000BB0085EC8093BC0064CF9091A002809113
:102BC0009F02981758F5E091A00281E08E0F809344
:102BD000A002F0E0E158FD4F8081E9CFE091A00232
:102BE00081E08E0F8093A0028091BB00F0E0E1585D
:102BF000FD4F80839091A00280919F029817C8F2A8
:102C000085E8D8CFE091A00281E08E0F8093A002EA
:102C10008091BB00F0E0E158FD4F80838091A202DB
:102C200081115CCF81E080937D0284EA8093BC00B7
:102C30001092A30226CF85EC8093BC001092A302D1
:102C400080912302803230F4E0912302F0E0ED5FC6
:102C5000FD4F10826091230270E0E0912402F09118
:102C6000250283E092E00995109223020ACF109288
:102C7000A10234CFEDECF2E01382128248EE53E071
:102C800060E070E044835583668377838DE591E04F
:102C90009183808385EC90E09587848784EC90E035
:102CA0009787868780EC90E0918B808B81EC90E019
:102CB000938B828B82EC90E0958B848B86EC90E0FA
:102CC000978B868B118E128E138E148EAAE6B3E02C
:102CD00013961C921E92129714964D935D936D93CA
:102CE0007C9317978FE691E011969C938E93E3E87F
:102CF000F3E080ED97E097A386A311A610A612A695
:102D0000178A118E12A213A214A215A21482158280
:102D1000E6E7F3E01486138680E1818380E2808316
:102D2000B287A1878CE28283148213821582168275
:102D3000178210860895CF93DF93CDB7DEB7E39760
:102D40000FB6F894DEBF0FBECDBF789484B5826015
:102D500084BD84B5816084BD85B5826085BD85B53F
:102D6000816085BD80916E00816080936E001092BD
:102D70008100809181008260809381008091810038
:102D800081608093810080918000816080938000C9
:102D90008091B10084608093B1008091B000816027
:102DA0008093B00080917A00846080937A00809153
:102DB0007A00826080937A0080917A0081608093AB
:102DC0007A0080917A00806880937A001092C10026
:102DD00080E2E5E0F1E0DE01119601900D928A9526
:102DE000E1F7E091DD02F091DE0282E08083E09184
:102DF000D902F091DA021082E091DB02F091DC025C
:102E000080E180831092E502E091E102F091E2021C
:102E100086E08083E091DF02F091E00280818061B2
:102E20008083E091DF02F091E002808188608083FE
:102E3000E091DF02F091E002808180688083E09180
:102E4000DF02F091E00280818F7D808388E0E5E2FF
:102E5000F1E0DE01919601900D928A95E1F781E013
:102E600080938703109288031092890380939A03BA
:102E700098E090939B031092830380938503809343
:102E8000840310928603FE01B196A2E9B3E0CE015D
:102E9000899621912D938E179F07D9F789A5809345
:102EA0008A0310E080919A03181798F4812F90E01C
:102EB0009C012D573C4F7901D90117968C910E94A6
:102EC000C90260918403F70187810E94D5041F5FC6
:102ED000E9CF10E080919B03181750F090919A036E
:102EE000EDE9F3E080E09817B1F011928F5FFBCF2E
:102EF000812F90E09C012D573C4F7901D9011F96FD
:102F00008C910E94C90260918603F70187850E9417
:102F1000D5041F5FDFCF10E080919A03181758F493
:102F2000E12FF0E0ED57FC4F6091840387810E9410
:102F3000D5041F5FF1CF60918603809192030E94B8
:102F4000D50410E080919B03181758F4E12FF0E0AE
:102F5000ED57FC4F6091860387850E94D5041F5F63
:102F6000F1CF6091840380918A030E94D50488E0A8
:102F700097E09093AA038093A9031092AC03109258
:102F8000AB031092AD038CE00E94C90260E08CE0BC
:102F90000E94D5048BE00E94C90260E08BE00E9491
:102FA000D50410922902109228020E94F50688E7A3
:102FB00095E0909327028093260289E795E090930D
:102FC0002502809324028CE08093B80080917F03D7
:102FD000909180032091760331E03093A9022093F1
:102FE000CB021092AA021092CC02DC01ED91FC916E
:102FF0000190F081E02D60EF099581E00E94340797
:10300000182F8111A1C0009176030E9421056B0148
:103010007C018091A302811163C081E08093A302AF
:103020008093A2029FEF9093A1021092A0021092AF
:103030009F0280937E0280917E02000F082B0093F6
:103040007E0280917D02813009F093C010927D0252
:103050000E9421056B017C0180917E028093BB0060
:103060008091A5029091A602A091A702B091A8021A
:10307000892B8A2B8B2BA1F00E9421058090A50221
:103080009090A602A090A702B090A8026C197D09AA
:103090008E099F0986169706A806B90608F441C04E
:1030A0008091BC0083FDD8CF85EC8093BC000E944A
:1030B00021056B017C018091A302813009F45BC082
:1030C0008091A002811179C08091A002AFE7B2E0A7
:1030D000EAE2F2E0181749F19D9191931F5FFACF50
:1030E0008091A5029091A602A091A702B091A8029A
:1030F000892B8A2B8B2B09F48CCF0E942105809081
:10310000A5029090A602A090A702B090A8026C1908
:103110007D098E099F0986169706A806B90608F04C
:1031200078CF8091A4020E94130710922902109375
:10313000280280917F0390918003DC01ED91FC9146
:103140000284F385E02D09958091760391E09093B8
:10315000A9028093CB021092AA021092CC0281E0C5
:103160000E943407882359F180EC91E00E942F0BD4
:10317000FFCF85EE9ACF8091A5029091A602A091F3
:10318000A702B091A802892B8A2B8B2B09F493CF2D
:103190000E9421058090A5029090A602A090A7020F
:1031A000B090A8026C197D098E099F0986169706B2
:1031B000A806B90608F07FCFB4CF81E087CFCE0153
:1031C00001960E943B0B8091740285528093740299
:1031D00010927C0280917602809375029091790220
:1031E00090937602809379028EE091E00E94DF0A4C
:1031F0008CEF91E00E94DF0A8EE091E00E94DF0AEE
:1032000084EC91E00E94DF0A8CE494E00E94E802E2
:103210006AEF70E080E090E00E9446050E94520F45
:103220006B017C0164E670E080E090E00E9446055E
:10323000C701B6010E94791C90E080E04AE00E943C
:10324000EB0A0E94DB0A88E891E00E94DF0A90E026
:1032500080E00E94E8026AEF70E080E090E00E9467
:1032600046050E94520F6B017C0164E670E080E02D
:1032700090E00E944605C701B6010E94791C90E0CB
:1032800080E04AE00E94EB0A0E94DB0A89E591E0B7
:103290000E94930686E0C82ED12CE12CF12C60917F
:1032A0000001709101018091020190910301A70139
:1032B00096010E94671B962E6F5F6BAB0E94DB0A24
:1032C0008FED94E00E9493066091000170910101DE
:1032D00080910201909103014AE00E94EB0A84EA86
:1032E00094E00E9493068091000190910101A091C9
:1032F0000201B09103010196A11DB11D809300014F
:1033000090930101A0930201B0930301EDE2F1E07B
:10331000FAABE9AB2AE432E03BA72AA74DE351E040
:103320005EA74DA7190151E05CA788248394B12CB6
:10333000A12CE92DF0E0E35BFE4F80818A151B0490
:1033400041F48BA9891528F0939482EA94E00E94B5
:103350009306ADA5BEA58D91BEA7ADA7E82FF0E061
:10336000F8ABEFA72CE434E0E29FC001E39F900D9F
:10337000F29F900D11240E94E80264EF71E080E05A
:1033800090E00E94460515E00E94520F0E94791CB1
:103390009B016A51744001E06436710508F400E055
:1033A000C9016AE070E00E94A11ED1016C9362E342
:1033B00070E080E090E00E9446050E94520F2B01D1
:1033C0003C0162E370E080E090E00E94460511500D
:1033D000C301B2010E94791C6A51744081E06436D5
:1033E000710508F480E0081711F01111CDCFB4E693
:1033F0001B9FB001112468537F4F072E000C880BD0
:10340000990B0E94460510E081E090E0EFA5F8A935
:103410008E1B9F0B0817190709F0812CA9A9BAA9BF
:103420008D91BAABA9ABE1E0F0E0E81BF1090E1712
:103430001F0709F08CC0E2E0D101EC93FFEFAF1A57
:10344000BF0A2FEF221A320A30E1A316B10409F0A5
:1034500070CF4CA5442309F47CC00E94DB0A0E9473
:10346000DB0A8CE192E00E94DF0A85E794E00E948B
:10347000DF0A84E792E00E942F0B85E692E00E942B
:10348000DF0A0E94DB0A0E94DB0A04E110E088EBFD
:1034900091E00E94E80264E670E080E090E00E9423
:1034A00046058EEE91E00E94E80264E670E080E05E
:1034B00090E00E9446058BE092E00E94E80264E6FC
:1034C00070E080E090E00E9446058BE492E00E946C
:1034D000E80264E670E080E090E00E94460583E93F
:1034E00092E00E94E80264E670E080E090E00E94D2
:1034F00046058AEB92E00E94E80264E670E080E014
:1035000090E00E94460580E193E00E94E80264E6B4
:1035100070E080E090E00E9446058AE00E947A0513
:1035200064E670E080E090E00E94460501501109D9
:1035300009F0ADCF80E090E0892B09F4B0CE0E9475
:103540001006882309F4ABCE0E940000A8CE1CA66A
:1035500075CF882009F483C088E394E00E94DF0AD5
:10356000609100017091010180910201909103012D
:10357000A70196010E94671B672B682B692B21F41A
:1035800089E094E00E94DF0A6091000170910101DE
:103590008091020190910301A70196010E94671B8F
:1035A000613071058105910521F485ED93E00E945C
:1035B000DF0A6091000170910101809102019091F8
:1035C0000301A70196010E94671B62307105810506
:1035D000910521F482EB93E00E94DF0A60910001E3
:1035E000709101018091020190910301A701960160
:1035F0000E94671B633071058105910521F488E9FC
:1036000093E00E94DF0A60910001709101018091B6
:10361000020190910301A70196010E94671B64308B
:1036200071058105910521F48BE693E00E94DF0A84
:10363000609100017091010180910201909103015C
:10364000A70196010E94671B6530710581059105F0
:1036500009F070CF87E293E00E94DF0A6BCF8CEE17
:1036600092E00E94DF0AAAA5BBA56D91BBA7AAA7FD
:1036700070E090E080E04AE00E94EB0AEAE5F2E0C8
:103680002AA53BA5E217F30771F78EEA92E0E4CF93
:10369000052E97FB1EF400940E945F1B57FD07D078
:1036A0000E94671B07FC03D04EF40C945F1B5095DF
:1036B0004095309521953F4F4F4F5F4F089590951E
:1036C0008095709561957F4F8F4F9F4F0895A1E230
:1036D0001A2EAA1BBB1BFD010DC0AA1FBB1FEE1F8C
:1036E000FF1FA217B307E407F50720F0A21BB30BD7
:1036F000E40BF50B661F771F881F991F1A9469F753
:1037000060957095809590959B01AC01BD01CF01AE
:1037100008955058BB27AA270E94A11B0C944B1D4B
:103720000E94121D38F00E94191D20F039F49F3FAD
:1037300019F426F40C940F1D0EF4E095E7FB0C949D
:10374000091DE92F0E94701D58F3BA17620773070D
:103750008407950720F079F4A6F50C94921D0EF4D9
:10376000E0950B2EBA2FA02D0B01B90190010C0191
:10377000CA01A0011124FF27591B99F0593F50F4A9
:10378000503E68F11A16F040A22F232F342F442701
:10379000585FF3CF469537952795A795F0405395F9
:1037A000C9F77EF41F16BA0B620B730B840BBAF0C9
:1037B0009150A1F0FF0FBB1F661F771F881FC2F734
:1037C0000EC0BA0F621F731F841F48F48795779548
:1037D0006795B795F7959E3F08F0B0CF9395880F02
:1037E00008F09927EE0F9795879508950E94E51C9C
:1037F00008F481E008950E94221DE3950C945C1D5D
:103800000E94141C0C944B1D0E94191D58F00E941C
:10381000121D40F029F45F3F29F00C94091D51114D
:103820000C94931D0C940F1D0E94701D68F3992336
:10383000B1F3552391F3951B550BBB27AA276217AC
:103840007307840738F09F5F5F4F220F331F441FB9
:10385000AA1FA9F335D00E2E3AF0E0E832D09150ED
:103860005040E695001CCAF72BD0FE2F29D0660FDA
:10387000771F881FBB1F261737074807AB07B0E81D
:1038800009F0BB0B802DBF01FF2793585F4F3AF023
:103890009E3F510578F00C94091D0C94931D5F3FD9
:1038A000E4F3983ED4F3869577956795B795F795A9
:1038B0009F5FC9F7880F911D9695879597F9089591
:1038C000E1E0660F771F881FBB1F6217730784072D
:1038D000BA0720F0621B730B840BBA0BEE1F88F73C
:1038E000E09508950E94791C6894B1110C94931D81
:1038F00008950E94781D88F09F5798F0B92F992756
:10390000B751B0F0E1F0660F771F881F991F1AF0CA
:10391000BA95C9F714C0B13091F00E94921DB1E080
:1039200008950C94921D672F782F8827B85F39F07F
:10393000B93FCCF3869577956795B395D9F73EF463
:1039400090958095709561957F4F8F4F9F4F08950B
:10395000E89409C097FB3EF4909580957095619529
:103960007F4F8F4F9F4F9923A9F0F92F96E9BB27DF
:103970009395F695879577956795B795F111F8CF5B
:10398000FAF4BB0F11F460FF1BC06F5F7F4F8F4FC6
:103990009F4F16C0882311F096E911C0772321F0BC
:1039A0009EE8872F762F05C0662371F096E8862F54
:1039B00070E060E02AF09A95660F771F881FDAF7AB
:1039C000880F9695879597F90895990F0008550FD8
:1039D000AA0BE0E8FEEF16161706E807F907C0F095
:1039E00012161306E407F50798F0621B730B840B9D
:1039F000950B39F40A2661F0232B242B252B21F477
:103A000008950A2609F4A140A6958FEF811D811D16
:103A1000089597F99F6780E870E060E008959FEF50
:103A200080EC089500240A94161617061806090655
:103A3000089500240A941216130614060506089524
:103A40000C940F1D0E94781DD8F3E894E0E0BB278A
:103A50009F57F0F02AED3FE049EC06C0EE0FBB0F98
:103A6000661F771F881F28F0B23A62077307840722
:103A700028F0B25A620B730B840BE3959A9572F798
:103A8000803830F49A95BB0F661F771F881FD2F7D6
:103A900090480C94531E092E0394000C11F48823B3
:103AA00052F0BB0F40F4BF2B11F460FF04C06F5FF6
:103AB0007F4F8F4F9F4F0895EF93E0FF07C0A2EA1B
:103AC0002AED3FE049EC5FEB0E94A11B0E944B1DD9
:103AD0000F90039401FC9058E8E6F0E00C94661E09
:103AE00057FD9058440F551F59F05F3F71F04795AF
:103AF000880F97FB991F61F09F3F79F08795089594
:103B0000121613061406551FF2CF4695F1DF08C0B2
:103B1000161617061806991FF1CF869571056105CF
:103B200008940895E894BB2766277727CB0197F977
:103B300008950E94E51C08F48FEF08950E94B11DBE
:103B40000C944B1D0E94121D38F00E94191D20F08C
:103B5000952311F00C94091D0C940F1D11240C9445
:103B6000931D0E94701D70F3959FC1F3950F50E057
:103B7000551F629FF001729FBB27F00DB11D639F1F
:103B8000AA27F00DB11DAA1F649F6627B00DA11DC5
:103B9000661F829F2227B00DA11D621F739FB00D6B
:103BA000A11D621F839FA00D611D221F749F3327DB
:103BB000A00D611D231F849F600D211D822F762F74
:103BC0006A2F11249F5750409AF0F1F088234AF051
:103BD000EE0FFF1FBB1F661F771F881F91505040BD
:103BE000A9F79E3F510580F00C94091D0C94931D7C
:103BF0005F3FE4F3983ED4F3869577956795B79544
:103C0000F795E7959F5FC1F7FE2B880F911D96955D
:103C1000879597F9089519F416F40C940F1D0C94D8
:103C2000511E0E94781DB8F39923C9F3B6F39F572C
:103C3000550B87FF0E945F1E0024A0E640EA90011A
:103C400080585695979528F4805C660F771F881FDB
:103C500020F026173707480730F4621B730B840BDC
:103C6000202931294A2BA695179407942025312520
:103C70004A2758F7660F771F881F20F02617370747
:103C8000480730F4620B730B840B200D311D411D6E
:103C9000A09581F7B901842F9158880F9695879543
:103CA00008959F3F31F0915020F48795779567955F
:103CB000B795880F911D9695879597F9089591501E
:103CC0005040660F771F881FD2F708959F938F93F8
:103CD0007F936F93FF93EF939B01AC010E949E1D16
:103CE000EF91FF910E947A1E2F913F914F915F912A
:103CF0000C949E1DDF93CF931F930F93FF92EF922F
:103D0000DF927B018C01689406C0DA2EEF010E94DD
:103D1000B11DFE01E894A5912591359145915591EC
:103D2000A6F3EF010E94A11BFE019701A801DA94FE
:103D300069F7DF90EF90FF900F911F91CF91DF9186
:103D40000895AA1BBB1B51E107C0AA1FBB1FA617E2
:103D5000B70710F0A61BB70B881F991F5A95A9F734
:103D600080959095BC01CD01089597FB072E16F420
:103D7000009407D077FD09D00E94A11E07FC05D052
:103D80003EF4909581959F4F0895709561957F4F72
:103D90000895EE0FFF1F0590F491E02D0994F8941B
:023DA000FFCF53
:103DA200C5E40701FF1CC7F1BF89279C40932F463A
:103DB2004268848DC2DDA417C1D56DB63FADE9134B
:103DC20042AE782EC106050203040708090000006E
:103DD20001010100000000000000000000000000DE
:103DE20001010101000100010001000000000306C1
:103DF2000A0D100003060A0D10000000004606A678
:103E020005D305AE060406E205F605000000007BB8
:103E1200084E08CB0A24084708340825080D0A0072
:103E22004F62667573636174696F6E20697320698E
:103E32006E76616C69642E20506C656173652063D7
:103E42006F6E74616374206368616C6C656E676524
:103E52002061646D696E6973747261746F722E0091
:103E62000A63616E6E6F7420636F6D6D756E696348
:103E720061746520746F206B65797061642E0A002D
:00000001FF
