:100000000C9491010C94B9010C94B9010C94B901B0
:100010000C94B9010C94B9010C94B9010C940C1511
:100020000C94B9010C94B9010C94B9010C94B90168
:100030000C94B9010C94B9010C94B9010C94B90158
:100040000C94C2140C94B9010C948E150C94681580
:100050000C94B9010C94B9010C94B9010C94B90138
:100060000C94C0150C94B90105A84CCDB2D44EB96E
:100070003836A9020C50B9918688083CA6AAAA2A4B
:10008000BE000000803F00000000F304353F5E83A7
:100090006C3FBE147B3F6DC47E3F0FB17F3F43EC8E
:1000A0007F3F11FB7F3FC4FE7F3FB1FF7F3FECFFEF
:1000B0007F3FFBFF7F3FFFFF7F3F0000803F00004F
:1000C000803F0000803F0000803F0000803FF3043D
:1000D000353F15EFC33EC2C5473E36BDC83D30FB78
:1000E000483DB00AC93C900E493C880FC93BC60F39
:1000F000493BD60FC93AD90F493ADB0FC939DB0F53
:100100004939DB0FC938DB0F4938BF0FC9372F2AF0
:100110002A2A2A2A2A2A2A2A2A2A2A2A2A2A2A2A3F
:100120002A2A2A2A2A2A2A2A2A2A2A2A2A2A2A2A2F
:100130002A2A2A2A2A2A2A2A2A2A2A2A2A2A2A2A1F
:100140002A2A2A2A2A2A2A2A2A2A2A2A2A2A2A2A0F
:100150002A2A2A2A2A2A2A2F005153427A62334213
:1001600079595735764947396D49484E7664573540
:100170006B4C4342795A57466A61476C755A7942CB
:100180006D623349676447686C4947686C59585ACF
:100190006C626E4D75004D697373696F6E3A204ED7
:1001A00055567856544E75517A4D002F2A2A2A2AD0
:1001B0002A2A2A2A2A2A2A2A2A2A2A2A2A2A2A2A9F
:1001C0002020594F55204245415420544845204352
:1001D00048414C4C454E47452121212020202A2AC8
:1001E0002A2A2A2A2A2A2A2A2A2A2A2A2A2A2A2A6F
:1001F0002A2A2F002F2A2A2A2A2A2A2A2A2A2A2A7F
:100200002A2A2A2A2A2A2A2A2A2020202020202094
:10021000202020436F6E677261747321212120209A
:10022000202020202020202A2A2A2A2A2A2A2A2A74
:100230002A2A2A2A2A2A2A2A2A2A2A2F00536F728D
:1002400072792C20626574746572206C75636B2002
:100250006E6578742074696D652100436F6E6772F6
:100260006174756C6174696F6E73212050757420B0
:1002700074686520666C616720696E20796F75729D
:10028000207265706F72743A00456E7465722074E6
:10029000686520666C616720286F766572207365DB
:1002A0007269616C293A20005768617420636F6D30
:1002B0006573206E6578743F20284F6E6C792061DD
:1002C0006C7068616E756D657269637329000000FA
:1002D0000008000201000003040700000000000005
:1002E00000000200000000250028002B0000000094
:1002F00000240027002A0004040404040404040267
:1003000002020202020303030303030102040810B2
:10031000204080010204081020010204081020007F
:10032000DF1611241FBECFEFD8E0DEBFCDBF11E036
:10033000A0E0B1E0E6E6F4E402C005900D92A23E32
:10034000B107D9F723E0A2EEB1E001C01D92A43AB3
:10035000B207E1F711E0C1E9D1E004C02197FE0145
:100360000E943920C039D107C9F70E9440170C9468
:1003700031220C94000090E0FC01E55FFC4F2491D9
:1003800089509D4FFC018491882399F090E0880F5B
:10039000991FFC01E351FD4FA591B491FC01ED5172
:1003A000FD4F859194918FB7F894EC91E22BEC93EB
:1003B0008FBF0895CF92DF92EF92FF92CF936C019F
:1003C000809100018A3049F08F3F09F44EC0CF91EF
:1003D000FF90EF90DF90CF900895E2EEF2E0C491AD
:1003E000C7FDF5CF8AE00E94BB01CC2319F0C230D3
:1003F00009F0D8C0F12CE12C68E478EE81E090E0BF
:10040000A70196010E947B1DBA01A9014150510923
:1004100061097109CC2309F405C1C23009F093C008
:100420004F3F51056105710509F00CF4B9C064E254
:1004300074EF80E090E0A70196010E947B1DBA0155
:10044000A901415051096109710995E08091B100FC
:10045000887F892B8093B100C13009F4BBC0C230C2
:1004600009F4CDC0C111B3CF89C08AE080930001E7
:10047000E2EEF2E0C491CF3F09F4A9CFC13019F107
:1004800048F0C23009F43DC0C7FDA1CF8AE00E9408
:10049000BB01ADCF14BC15BC84B5826084BD85B5ED
:1004A000816085BDE1E0F3E0E491F0E0EE0FFF1F35
:1004B000ED51FD4F85919491E5E1F3E0E491E093F6
:1004C0005A02C0E08FCF109280001092810080917C
:1004D0008100886080938100809181008160809399
:1004E0008100E1E0F3E0E491F0E0EE0FFF1FED5159
:1004F000FD4F85919491E5E1F3E0E491E093590299
:1005000071CF1092B0001092B1008091B000826063
:100510008093B0008091B10081608093B100E1E0F0
:10052000F3E0E491F0E0EE0FFF1FED51FD4F8591F8
:1005300094919093580280935702E5E1F3E0E4919F
:10054000E09356024FCF4F3F51056105710541F1D0
:100550003CF162E17AE780E090E0A70196010E9419
:100560007B1DBA01A9014150510961097109C111ED
:1005700062C094E085B5887F892B85BD47BD8FEF2C
:100580009FEFDC018093630290936402A093650265
:10059000B093660280916E00826080936E0017CFE8
:1005A00094E054CF960150E040E060E072E18AE7C9
:1005B00090E00E947B1DBA01A901415051096109D7
:1005C0007109C13009F048CF80918100887F816036
:1005D0008093810050938900409388008FEF9FEFB4
:1005E000DC0180935F0290936002A0936102B0935C
:1005F000620280916F00826080936F00E8CE40932A
:10060000B3008FEF9FEFDC0180935B0290935C025D
:10061000A0935D02B0935E0280917000826080932F
:100620007000D5CE93E04F3F51056105710511F083
:100630000CF08FCF9FCF96E009CF90E0FC01E25302
:10064000FD4F2491FC01E55FFC4F3491FC01E95022
:10065000FD4FE491EE23C9F0222339F0233001F15C
:10066000A8F4213019F1223029F1F0E0EE0FFF1F3C
:10067000ED51FD4FA591B4918FB7F894EC916111B4
:1006800026C030953E233C938FBF08952730A9F0B4
:100690002830C9F0243049F7809180008F7D03C055
:1006A000809180008F7780938000DFCF84B58F7733
:1006B00084BDDBCF84B58F7DFBCF8091B0008F7779
:1006C0008093B000D2CF8091B0008F7DF9CF3E2BC8
:1006D000DACFCF93DF93C82FD0E080918D03D81766
:1006E00058F4ED2FF0E0EB58FC4F609178038785CC
:1006F0000E941D03DF5FF1CFEC2FF0E0EB58FC4FC1
:10070000609176038781DF91CF910C941D03CF9385
:10071000DF93C82FD0E080918C03D81758F4ED2FC9
:10072000F0E0EB58FC4F6091760387810E941D0337
:10073000DF5FF1CFEC2FF0E0EB58FC4F60917803D6
:100740008785DF91CF910C941D031F93CF93DF9387
:10075000C82FD0E0CB58DC4F609175038F810E9489
:100760001D0310E06A9680918D031817A8F4E12FFD
:10077000F0E0888190E0012E02C0959587950A945B
:10078000E2F780FF07C0EB58FC4F60917703878545
:100790000E941D031F5FE7CFDF91CF911F91089546
:1007A0000F931F93CF93C82FE82FF0E0EB58FC4F27
:1007B0006091770387850E941D0301E010E002C06D
:1007C000000F111FCA95E2F7C0E080918C03C81793
:1007D00088F4EC2FF0E0EB58FC4F828D90E0802302
:1007E0009123892B29F06091750387810E941D0355
:1007F000CF5FEBCFCF911F910F910895823091057C
:1008000038F0880F991F880F991F05970197F1F706
:1008100008953FB7F89480914E0290914F02A091B5
:100820005002B091510226B5A89B05C02F3F19F088
:100830000196A11DB11D3FBFBA2FA92F982F882760
:10084000BC01CD01620F711D811D911D42E0660F3B
:10085000771F881F991F4A95D1F708958F929F920D
:10086000AF92BF92CF92DF92EF92FF926B017C0129
:100870000E9409044B015C01C114D104E104F1049C
:10088000B9F00E940904681979098A099B09683E30
:1008900073408105910580F321E0C21AD108E10877
:1008A000F10888EE880E83E0981EA11CB11CE4CFED
:1008B000FF90EF90DF90CF90BF90AF909F908F9080
:1008C00008950895089508959091000189130BC02B
:1008D000E2EEF2E0E4919FEF90930001E13049F005
:1008E00028F0E23061F060E00C941D0310926E007D
:1008F000FACF90916F009D7F90936F00F4CF90910D
:1009000070009D7F9093700091E09093B000909163
:10091000B100987F94609093B1001092B300E3CF40
:10092000AF92BF92CF92DF92EF92FF920F931F93FD
:10093000CF93DF936C017B018B01040F151FEB013B
:100940005E01AE18BF08C017D10759F06991D601F2
:10095000ED91FC910190F081E02DC6010995892B64
:1009600079F7C501DF91CF911F910F91FF90EF9023
:10097000DF90CF90BF90AF900895FC01538D448DD0
:10098000252F30E0842F90E0821B930B541710F03A
:10099000CF96089501970895FC01918D828D981747
:1009A00061F0A28DAE0FBF2FB11D5D968C91928D1F
:1009B0009F5F9F73928F90E008958FEF9FEF089550
:1009C0002FB7F8948091520290915302A091540253
:1009D000B09155022FBF8093C7029093C802A09395
:1009E000C902B093CA028FEB92E00E94CC0497FF39
:1009F00026C02FB7F8948091520290915302A09193
:100A00005402B09155022FBF4091C7025091C802C5
:100A10006091C9027091CA02841B950BA60BB70B9B
:100A20004091C3025091C4026091C5027091C60208
:100A300084179507A607B707B0F28FEF9FEF0895C9
:100A4000FC01918D828D981731F0828DE80FF11D98
:100A5000858D90E008958FEF9FEF0895FC01918DB3
:100A6000228D892F90E0805C9F4F821B91098F73AC
:100A7000992708958FEB92E00E942E0521E0892BA3
:100A800009F420E0822F089580E090E0892B29F07E
:100A90000E943A0581110C9400000895FC01A48D78
:100AA000A80FB92FB11DA35ABF4F2C91848D90E090
:100AB00001968F739927848FA689B7892C93A08973
:100AC000B1898C91837080648C93938D848D9813FD
:100AD00006C00288F389E02D80818F7D8083089590
:100AE000EF92FF920F931F93CF93DF93EC0181E07E
:100AF000888F9B8D8C8D98131AC0E889F989808125
:100B000085FF15C09FB7F894EE89FF896083E88957
:100B1000F98980818370806480839FBF81E090E049
:100B2000DF91CF911F910F91FF90EF900895F62ED6
:100B30000B8D10E00F5F1F4F0F731127E02E8C8D70
:100B40008E110CC00FB607FCFACFE889F9898081B5
:100B500085FFF5CFCE010E944E05F1CFEB8DEC0F56
:100B6000FD2FF11DE35AFF4FF0829FB7F8940B8FD2
:100B7000EA89FB8980818062CFCFCF93DF93EC013C
:100B8000888D8823B9F0AA89BB89E889F9898C9175
:100B900085FD03C0808186FD0DC00FB607FCF7CF31
:100BA0008C9185FFF2CF808185FFEDCFCE010E9431
:100BB0004E05E9CFDF91CF91089520910302260FD2
:100BC0003327331F21323105ECF420919502FC01CB
:100BD00090E080E0243069F082E00895A091030263
:100BE0002191AC014D515E4FA40FB52FB11D2C9337
:100BF0000196861798F380910302680F60930302B1
:100C000080E0089581E008951092950281E080933C
:100C1000940210926F0261E082E10E941D0361E084
:100C200083E10E941D03E9EBF0E080818E7F8083E9
:100C300080818D7F808388E48093B80085E48093F1
:100C4000BC000895CF93DF9391E09093E201882355
:100C5000B9F0C091B800D091BA008091BC008A7BF5
:100C60008093BC0060E082E10E941D0360E083E1AC
:100C70000E941D030E940406D093BA00C093B800DE
:100C8000DF91CF9108958F929F92AF92BF92CF92B2
:100C9000DF92EF92FF920F931F93CF93DF93D09148
:100CA000BE02D13208F0D7C0182FC091BD020E94F9
:100CB00009046B017C018091950281116BC082E077
:100CC00080939502109394028FEF80939302109279
:100CD0009202D0939102ADE9B2E0E1E7F2E080E068
:100CE000D81391C01092700280917002CC0FC82B63
:100CF000C093700280916F02813009F088C0109219
:100D00006F020E9409046B017C0180917002809344
:100D1000BB008091970290919802A0919902B091A6
:100D20009A02892B8A2B8B2BA1F00E940904009137
:100D30009702109198022091990230919A026C19B1
:100D40007D098E099F09061717072807390708F438
:100D500042C08091BC0083FDD8CF85EC8093BC005D
:100D60000E9409046B017C0180919502823009F494
:100D700050C0809193028F3F09F46FC0809193021D
:100D8000803209F46CC080919302803309F469C009
:100D900084E026C08091970290919802A0919902D8
:100DA000B0919A02892B8A2B8B2B09F484CF0E9455
:100DB00009048090970290909802A0909902B090B8
:100DC0009A026C197D098E099F0986169706A80656
:100DD000B90608F070CF809196020E94220685E045
:100DE00010929C021092BE0210929B02DF91CF9152
:100DF0001F910F91FF90EF90DF90CF90BF90AF9039
:100E00009F908F9008959D9191938F5F69CF85EE0C
:100E1000A5CF8091970290919802A0919902B091EC
:100E20009A02892B8A2B8B2B09F49ECF0E940904EE
:100E300000919702109198022091990230919A02A4
:100E40006C197D098E099F090617170728073907AE
:100E500008F08ACFC0CF81E0C3CF80E0C1CF82E06D
:100E6000BFCF83E0BDCF0895E0912B0280912A028D
:100E7000E81730F4F0E0E45DFD4F808190E00895E4
:100E80008FEF9FEF089590912B0280912A022FEF10
:100E90003FEF981748F4E92FF0E0E45DFD4F208123
:100EA00030E09F5F90932B02C901089580912A0240
:100EB00090912B02891B990B0895CF92DF92EF92AC
:100EC000FF920F931F93CF93DF937C01CB018A0195
:100ED00020919B02222389F0EB016B01C40ED51EE9
:100EE000CC15DD0569F06991D701ED91FC91019078
:100EF000F081E02DC7010995F3CF642F0E94DD0535
:100F0000C801DF91CF911F910F91FF90EF90DF907B
:100F1000CF900895CF93DF931F92CDB7DEB769834B
:100F200020919B022223F9F02091BE02203258F03A
:100F300021E030E0FC013383228390E080E00F90D9
:100F4000DF91CF91089580919C02E82FF0E0E35665
:100F5000FD4F998190838F5F80939C028093BE02A6
:100F600081E090E0ECCF61E0CE0101960E94DD05CA
:100F7000F7CF2F923F924F925F926F927F928F9214
:100F80009F92AF92BF92CF92DF92EF92FF920F9318
:100F90001F93CF93DF93CDB7DEB7A9970FB6F89421
:100FA000DEBF0FBECDBF362FFC01E75AFF4F408199
:100FB0005181628173814F5F5F4F6F4F7F4F4083DD
:100FC000518362837383DC01AC5BBF4F2C91E3E000
:100FD000E227E80FF92FF11D34832F5F2C93203483
:100FE00009F016C1FC01EB5BFF4F4080518062802D
:100FF00073804D865E866F86788A349660807180B5
:1010000082809380698A7A8A8B8A9C8A34968080CF
:101010009180A280B3808D8A9E8AAF8AB88E3496E2
:10102000A080B180C280D380A98EBA8ECB8EDC8E98
:101030003496C080D180E280F380CD8EDE8EEF8E3C
:10104000F8A2C986DA86EB86FC862D853E854F851B
:1010500058892D833E834F835887C988DA88EB8867
:10106000FC88898C9A8CAB8CBC8C0D891E892F894D
:10107000388DBEE02B2E312C19A249A1443108F045
:1010800051C1B501A40140275127622773274C2184
:101090005D216E217F212A013B01482459246A24C5
:1010A0007B24B301A201475656486D47754A4EA3AB
:1010B0005FA368A779A7E9A1EF70F0E03196EE0F82
:1010C000FF1FEE0FFF1FE80FF91F4D805E806F803E
:1010D00078845BE176946794579447945A95D1F756
:1010E0004D815E816F817885A5E0440F551F661F95
:1010F000771FAA95D1F74429552966297729408079
:10110000518062807380440D551D661D771D2A0134
:101110003B014EA15FA168A579A5440E551E661E30
:10112000771E49855A856B857C85440D551D661D46
:10113000771D49835A836B837C8326013701B2E094
:101140007694679457944794BA95D1F7B701A6015E
:10115000EEE1440F551F661F771FEA95D1F744292A
:10116000552966297729A9A1AF5FA9A3A03509F060
:1011700068C0FC01EB5BFF4F4D845E846F84788810
:10118000C980DA80EB80FC804C0C5D1C6E1C7F1CDF
:1011900040825182628273823496C988DA88EB88F1
:1011A000FC884D805E806F807884C40CD51CE61C62
:1011B000F71CC082D182E282F3823496CD88DE8829
:1011C000EF88F88C4C0D5D1D6E1D7F1D4083518393
:1011D000628373833496498D5A8D6B8D7C8D400F5D
:1011E000511F621F731F4083518362837383349640
:1011F0002D8D3E8D4F8D58A1820E931EA41EB51EBF
:1012000080829182A282B3828C5B9F4FDC011C9210
:10121000A9960FB6F894DEBF0FBECDBFDF91CF9178
:101220001F910F91FF90EF90DF90CF90BF90AF9004
:101230009F908F907F906F905F904F903F902F90F6
:101240000895E9A1EF70A4E0EA9FF00111242C01B8
:101250004E0E5F1E5A864986D2011496CD90DD90BF
:10126000ED90FC901797B9A1B03108F443C0F1019B
:101270003597EF70FF273196EE0FFF1FEE0FFF1F20
:10128000E80FF91FD101AF70BB271196AA0FBB1F42
:10129000AA0FBB1FA80FB91F4D905D906D907C9059
:1012A000C424D524E624F7244080518062807380D2
:1012B000C424D524E624F724F1013B97EF70FF27DF
:1012C0003196EE0FFF1FEE0FFF1FE80FF91F408052
:1012D000518062807380C424D524E624F724CC0C8A
:1012E000DD1CEE1CFF1CC11CE985FA85C482D58279
:1012F000E682F782FFEF2F1A3F0A89869A86AB862D
:10130000BC86CD80DE80EF80F88449805A806B8077
:101310007C804D825E826F827886480159018A0105
:101320009B01ABCE59A1583298F4B501A4014027D6
:101330005127622773272A013B014C245D246E2428
:101340007F24B301A2014F55544166427149AFCE8B
:1013500059A15C33D8F4B901A8014C295D296E2943
:101360007F29482159216A217B21280139014C20FC
:101370005D206E207F20442A552A662A772AB301F1
:10138000A20144525344644E704791CEB501A4016A
:1013900040275127622773272A013B014C245D24F3
:1013A0006E247F24B301A2014A525E436D49754306
:1013B0007ECE90E080E00895CF92DF92EF92FF9290
:1013C0000F931F93CF93DF9300D0CDB7DEB720915B
:1013D0000701309108013A832983833209F442C01E
:1013E000898380918C03EFE8F3E090E089133CC09F
:1013F000A5E7B3E030E080E040E458E063E670E861
:10140000931709F464C0E1E0F0E0EC0FFD1FE80F72
:10141000F11DE081EE2309F45AC020ED2E0F2A3091
:1014200030F50E2E000CFF0BEF5FFE4F20815A9619
:101430002C935A9721E0280FE1E0F0E0EC0FFD1F1C
:10144000E20FF11DE081EE3249F45A962C915A9741
:1014500020685A962C935A9722E0280F3F5F1196E6
:10146000822FCECF88E4BCCF11929F5FBFCF2FEBEE
:101470002E0F2A3130F40E2E000CFF0BE650FF4FDA
:10148000D5CF2FE92E0F2A3130F40E2E000CFF0B92
:10149000E652FF4FCBCFE03221F45A961C925A9776
:1014A000C9CFEE3221F45A967C935A97C3CFEA32D1
:1014B00021F45A966C935A97BDCFEF3521F45A9682
:1014C0005C935A97B7CF5A964C935A97B3CF809163
:1014D0007A0381118CC00E94090440919F030091FE
:1014E0009703109198032091990330919A036B010F
:1014F0007C01C01AD10AE20AF30A00919D031091FF
:101500009E03411104C000919B0310919C03012E86
:10151000000C220B330BC016D106E206F306B4F121
:1015200060939703709398038093990390939A0321
:1015300080918E0320917903211133C04423D9F087
:1015400010929F0380918E038F5F80938E03909102
:101550008D03891710F010928E0380918E030F90E7
:101560000F90DF91CF911F910F91FF90EF90DF903F
:10157000CF900C94D0030E94870380919D0390919B
:101580009E03892BF9F281E080939F030F900F90C7
:10159000DF91CF911F910F91FF90EF90DF90CF904F
:1015A00008954423D9F010929F0380918E038F5F9A
:1015B00080938E0390918C03891710F010928E0304
:1015C00080918E030F900F90DF91CF911F910F911B
:1015D000FF90EF90DF90CF900C94A5030E946903D9
:1015E00080919D0390919E03892BF9F2CCCF80913D
:1015F000790310E081111AC080918D03181730F61D
:10160000812F0E94D00380919B0390919C030E94A4
:10161000FE03812F0E94870380919D0390919E037A
:10162000009711F00E94FE031F5FE6CF80918C03AC
:10163000181708F0ABCF812F0E94A50380919B0360
:1016400090919C030E94FE03812F0E946903809168
:101650009D0390919E03009711F00E94FE031F5F6F
:10166000E5CF42E050E06EE771E08FEB92E00C9442
:101670009004CF93DF93FC0101900020E9F73197AC
:10168000AF01481B590BBC018FEB92E00E94900404
:10169000EC010E94310B8C0F9D1FDF91CF910895BB
:1016A0000F931F93CF93DF938C01D0E0C0E0F8013C
:1016B000EC0FFD1F6491662341F08FEB92E00E94D6
:1016C0007005892B11F02196F2CF0E94310B8C0FFF
:1016D0009D1FDF91CF911F910F910895CF93DF93BD
:1016E000682F8FEB92E00E947005EC010E94310B95
:1016F0008C0F9D1FDF91CF9108952F923F924F92B3
:101700005F926F927F928F929F92AF92BF92CF9291
:10171000DF92EF92FF920F931F93CF93DF93CDB79A
:10172000DEB7CA58D1400FB6F894DEBF0FBECDBFAA
:10173000CB57DE4F99838883C558D1402DB73EB72C
:10174000C957DE4F39832883C758D14081E093E2DF
:10175000A5E4B7E6CF59DE4F88839983AA83BB837C
:10176000C156D14089E89BEAADECBFEECB59DE4FC4
:1017700088839983AA83BB83C556D1408EEF9CEDA5
:10178000AAEBB8E9C759DE4F88839983AA83BB8344
:10179000C956D14086E794E5A2E3B0E1C359DE4FD4
:1017A00088839983AA83BB83CD56D14080EF91EE85
:1017B000A2EDB3ECCF58DE4F88839983AA83BB8315
:1017C000C157D1408DB79EB7805491090FB6F89498
:1017D0009EBF0FBE8DBFEDB7FEB731968F5B9F4F9B
:1017E000DF011D921D921D921D928A179B07C9F75A
:1017F000209175038091760390E0B0E0A0E0DC01D9
:1018000099278827B22B906840815181628173812A
:10181000842B952BA62BB72B80839183A283B38334
:1018200080E190E0A0E0B0E084AF95AFA6AFB7AFA5
:10183000AE014F5F5F4F80E491E0DA019C011D92A1
:1018400021503040E1F7C158DE4F59834883CF57CC
:10185000D140C757DE4FF983E883C958D1401E01F4
:101860003FE3231A310880EF91EEA2EDB3ECCF579E
:10187000DE4F88839983AA83BB83C158D14081E01E
:1018800093E2A5E4B7E6C558DE4F88839983AA831F
:10189000BB83CB57D14089E89BEAADECBFEECB5878
:1018A000DE4F88839983AA83BB83C557D14006E75F
:1018B00014E522E330E18EEFC82E8CEDD82E8AEBB2
:1018C000E82E88E9F82EC758DE4F1882C957D14054
:1018D000C758DE4F9881C957D140903108F047C2B0
:1018E000C757DE4FE881F981C958D1408081918185
:1018F000A281B381C158DE4FE881F981CF57D14031
:1019000080839183A283B383B701A6014027512727
:1019100062277327CB58DE4F88819981AA81BB81CA
:10192000C557D140482359236A237B234027512799
:1019300062277327B9E98B2EB9E79B2EB2E8AB2E4D
:10194000BAE5BB2EC558DE4F488059806A807B803F
:10195000CB57D140EBE17694679457944794EA953E
:10196000D1F7C558DE4F88819981AA81BB81CB57B9
:10197000D140F5E0880F991FAA1FBB1FFA95D1F738
:1019800084299529A629B729C158DE4FE881F98114
:10199000CF57D1404190519061907190C158DE4F26
:1019A000F983E883CF57D140840D951DA61DB71D3F
:1019B000840F951FA61FB71F880D991DAA1DBB1D5B
:1019C000CF57DE4F88809980AA80BB80C158D14014
:1019D000880E991EAA1EBB1ECB58DE4F88819981A6
:1019E000AA81BB81C557D14042E0B695A79597958E
:1019F00087954A95D1F7CB58DE4F488059806A8049
:101A00007B80C557D1405EE1440C551C661C771C99
:101A10005A95D1F7482A592A6A2A7B2AC758DE4F95
:101A2000F881C957D140FF5FC758DE4FF883C957C7
:101A3000D140C757DE4F88819981C958D14004965B
:101A4000C757DE4F99838883C958D14094E0290E47
:101A5000311CC558DE4F88819981AA81BB81CB5743
:101A6000D140CB58DE4F88839983AA83BB83C55767
:101A7000D140CF57DE4F088319832A833B83C15857
:101A8000D140F03509F066C19FEF891A9CED990AA3
:101A90009AEBA90A98E9B90ACF59DE4F8882998250
:101AA000AA82BB82C156D140C558DE4F8881998138
:101AB000AA81BB81CB57D14087579445A243B041FF
:101AC000CB59DE4F88839983AA83BB83C556D14007
:101AD000A2E04A1AA3E25A0AA5E46A0AA7E67A0A29
:101AE000C759DE4F488259826A827B82C956D140EB
:101AF000BAE8CB1ABBEADB0ABDECEB0ABFEEFB0A85
:101B0000C359DE4FC882D982EA82FB82CD56D140CA
:101B100000511E412D423C43CF58DE4F08831983AC
:101B20002A833B83C157D140C957DE4FE881F981F1
:101B3000C758D1400FB6F894FEBF0FBEEDBFFE01EF
:101B4000EF59FE4F9F012C5E3F4F80E090E0DC019B
:101B5000419151916191719184279527A627B727CB
:101B60002E173F07A9F78B3D9748AA4BB84021F0A5
:101B700081E891E00E94390B9E012F5F3F4F690180
:101B80008901F0E0E0E024E1822E912C30E020E0B9
:101B90005F01A20EB31E7901EE0CFF1CE00EF11ED8
:101BA000C501B4010E941120A1E6B1E0AC0FBD1F38
:101BB000A80FB91F4C91AA9CC001AB9C900D900D31
:101BC0001124840F911DD7018D939C932F5F3F4F5C
:101BD00028303105E9F63896005F1F4FE034F105F3
:101BE000A9F68E010F5B1E4FF801B096C758DE4F65
:101BF000F983E883C957D1407801CB57DE4F28815C
:101C00003981C558D140205E3F4FC558DE4F3983DA
:101C10002883CB57D140D7011D921D921D921D9252
:101C20007D01CB57DE4F28803980C558D140CB5835
:101C3000DE4FD982C882C557D140412C512C320188
:101C4000CB58DE4FA881B981C557D1406D917D91A8
:101C5000CB58DE4FB983A883C557D140F10181909D
:101C60009190A190B1901F01072E000C880B990B49
:101C70000E945E1CA50194010E94BD1C9B01AC0149
:101C8000C301B2010E940E1E2B013C01C558DE4F5C
:101C900028813981CB57D1402215330589F6F701C8
:101CA00034974082518262827382B0E1CB0ED11CA4
:101CB000C758DE4FE881F981C957D140EE15FF05BD
:101CC00009F0A9CF87E6C82E82E0D82ED8018D90E2
:101CD0009D90AD90BD908D0120E030E0A901C5013F
:101CE000B4010E94661F20E030E040E05FE387FD22
:101CF000DEC0C501B4010E940E1E0E94F11EF60155
:101D000061936F01E016F10609F7C957DE4F28818C
:101D10003981C758D1400FB6F8943EBF0FBE2DBFD2
:101D2000C657DE4F0FB6F894DEBF0FBECDBFDF91B2
:101D3000CF911F910F91FF90EF90DF90CF90BF90C8
:101D4000AF909F908F907F906F905F904F903F905B
:101D50002F900895C558DE4F88829982AA82BB824F
:101D6000CB57D1409701860173016201B1CDD101FA
:101D7000D4964D915D916D917C91D79790968D9170
:101D80009D910D90BC91A02D84279527A627B7275C
:101D9000F101408551856285738584279527A627A3
:101DA000B727408151816281738184279527A627B7
:101DB000B727880F991FAA1FBB1F811DC158DE4F6F
:101DC000E881F981CF57D14080839183A283B38387
:101DD000C758DE4FF881C957D140F43108F494CD8B
:101DE000C758DE4F9881C957D1409832D8F4B7010F
:101DF000A6014027512762277327CB58DE4F8881E1
:101E00009981AA81BB81C557D140482759276A27A4
:101E10007B27A1EA8A2EABEE9A2EA9EDAA2EAEE67A
:101E2000BA2E90CDC758DE4F9881C957D140B7011F
:101E3000A6019C3318F5402B512B622B732BCB58EA
:101E4000DE4F88819981AA81BB81C557D140482343
:101E500059236A237B23D701C60180239123A22320
:101E6000B323482B592B6A2B7B2BFCED8F2EFCEBDD
:101E70009F2EFBE1AF2EFFE8BF2E64CD40275127F8
:101E800062277327CB58DE4F88819981AA81BB8155
:101E9000C557D140482759276A277B27E6ED8E2E64
:101EA000E1EC9E2EE2E6AE2EEAECBE2E4BCDC50155
:101EB000B4010E940D1E21CFCF93DF93EC018881E6
:101EC0009981009711F00E94DB20198218821D82EF
:101ED0001C821B821A82DF91CF910895FC018081C0
:101EE0009181009711F00C94DB2008950F931F93BC
:101EF000CF93DF93EC0188819981009759F02A8173
:101F00003B812617370730F081E0DF91CF911F9199
:101F10000F9108958B016F5F7F4F0E94642100979E
:101F200059F0998388831B830A832C813D81232B5D
:101F300059F7FC011082E8CF80E0E7CFEF92FF92E3
:101F40000F931F93CF93DF93EC017B018A01BA01BA
:101F50000E94760F81110BC0CE010E945C0FCE0152
:101F6000DF91CF911F910F91FF90EF9008951D8306
:101F70000C83B701888199810E942A22F0CF85EDD8
:101F80008093BC008091970290919802A091990251
:101F9000B0919A020796A11DB11D23E0B695A795B1
:101FA000979587952A95D1F72091BC0024FD03C011
:101FB0001092950208954091970250919802609175
:101FC000990270919A02452B462B472B69F3009793
:101FD000A105B10541F02AE22A95F1F700C0019769
:101FE000A109B109E1CF809196020C9422062F92AB
:101FF0003F924F925F926F927F928F929F92AF9299
:10200000BF92CF92DF92EF92FF920F931F93CF93E5
:10201000DF93CDB7DEB7CC52D4400FB6F894DEBF15
:102020000FBECDBF0E9409046B017C0124EFC20EDC
:10203000D11CE11CF11CAE014F5F5F4F1A01CE01B4
:102040008F5F9D4FC95FDB4F99838883C750D44012
:102050008C01C55FDB4F59834883CB50D440E0E40B
:10206000BE2EB0927C0080917A00806480937A00CA
:1020700080917A0086FDFCCF6091780070917900A4
:10208000072E000C880B990B0E945E1CC55FDB4F6E
:10209000A881B981CB50D4406D937D938D939D934E
:1020A000C55FDB4FB983A883CB50D440F8011192B0
:1020B0001192119211928F010E9409046C157D05F5
:1020C0008E059F05C8F3F4EFCF0ED11CE11CF11C67
:1020D000C55FDB4F28813981CB50D440C95FDB4FCE
:1020E00048815981C750D4402417350709F0B9CF2A
:1020F0007901610110E000E0B80190E080E00E9409
:102100005C1C20E030E04EEF52E40E947F1E2BED7D
:102110003FE049EC50E40E94BD1C0E947A1E2FE172
:1021200035E84BEE5EE30E94BD1C9B01AC0161E70C
:102130007DE38AE09FE30E940D1E4B015C01AC0130
:102140009B01D6016D917D918D919C910E94BD1C4A
:10215000F60161937193819391936F01A5019401AD
:10216000D7019E918E917E916E917D010E94BD1C42
:10217000F70160837183828393830F5F1F4F003465
:10218000110509F0B9CFF10150E040E090E080E0A6
:102190001DC048175907C8F4DC01AA0FBB1FAA0FBE
:1021A000BB1FA20DB31D0481158126813781CD90FF
:1021B000DD90ED90FC901397C482D582E682F78281
:1021C0000D931D932D933C931397349620E430E0A8
:1021D0008217930728F0821B930B36952795F8CF2B
:1021E000820F931F4F5F5F4F4F37510591F6C75EC8
:1021F000DB4F188219821A821B82C951D440C15EFA
:10220000DB4F1882CF51D440C05EDB4F1882C052E2
:10221000D440F0E8CF5DDB4FF883C152D4402FEBC0
:10222000CE5DDB4F2883C252D44041E050E0CB5F0B
:10223000DB4F59834883C550D440C75FDB4F1982B9
:102240001882C950D440CB5FDB4F88819981C5503B
:10225000D440880F991FC75DDB4F99838883C9528B
:10226000D440CB5FDB4FA881B981C550D44033E067
:10227000AA0FBB1F3A95E1F7C55DDB4FB983A88371
:10228000CB52D440CB5FDB4FE881F981C550D440BD
:10229000EE0FFF1FEE0FFF1FC95DDB4FF983E883D1
:1022A000C752D440C95FDB4F28813981C750D44021
:1022B000C35EDB4F39832883CD51D440CB5EDB4FE7
:1022C00039822882C551D440412C512C320100E082
:1022D000C35FDB4F1882CD50D44030E8C25FDB4F84
:1022E0003883CE50D4401FE3C15FDB4F1982188280
:1022F000CF50D440C15FDB4F48815981CF50D4408B
:10230000CB5FDB4F88819981C550D440481759076E
:1023100009F4EBC1C35EDB4FA881B981CD51D44034
:10232000CF5FDB4FB983A883C150D440CB5EDB4F76
:10233000E881F981C551D440CD5FDB4FF983E88353
:10234000C350D440C95EDB4F59834883C751D44042
:10235000C95EDB4F28813981C751D440203831050F
:1023600008F020C1CD5FDB4F48815981C350D44074
:10237000C95DDB4F88819981C752D440480F591FEE
:10238000CB5DDB4F59834883C552D440DA018D9031
:102390009D90AD90BC90CF5FDB4FE881F981C1503B
:1023A000D440E80FF91FCD5DDB4FF983E883C352BA
:1023B000D4402081318142815381CF5EDB4F28831D
:1023C00039834A835B83C151D440202FC35FDB4FE5
:1023D0003881CD50D440C25FDB4F4881CE50D440CD
:1023E000512FC501B4010E94BD1C6B017C01A301EA
:1023F0009201CF5EDB4F688179818A819B81C151D7
:10240000D4400E94BD1C9B01AC01C701B6010E94D3
:102410000D1E6B017C01CF5EDB4F288139814A8123
:102420005B81C151D440602FC35FDB4F7881CD50B9
:10243000D440C25FDB4F8881CE50D440912F0E94A0
:10244000BD1CCF5EDB4F688379838A839B83C15138
:10245000D440A3019201C501B4010E94BD1C9B019F
:10246000AC01CF5EDB4F688179818A819B81C1514C
:10247000D4400E940E1E4B015C01A7019601CD5F66
:10248000DB4FE881F981C350D44060817181828142
:1024900093810E940D1ECB5DDB4FA881B981C5528F
:1024A000D4406D937D938D939C931397A5019401D4
:1024B000CF5FDB4FE881F981C150D44060817181E9
:1024C000828193810E940D1ECD5DDB4FA881B98171
:1024D000C352D4406D937D938D939C931397A70122
:1024E0009601CD5FDB4FE881F981C350D440608114
:1024F0007181828193810E940E1ECD5FDB4FA88186
:10250000B981C350D4406D937D938D939C93139761
:10251000A5019401CF5FDB4FE881F981C150D44020
:1025200060817181828193810E940E1ECF5FDB4F9B
:10253000A881B981C150D4406D937D938D939C93B4
:102540001397C95EDB4FE881F981C751D440C75D5D
:10255000DB4F28813981C952D440E20FF31FC95E95
:10256000DB4FF983E883C751D440CD5FDB4F48810F
:102570005981C350D440C55DDB4F88819981CB52CE
:10258000D440480F591FCD5FDB4F59834883C35058
:10259000D440A80FB91FCF5FDB4FB983A883C150C8
:1025A000D440D6CEC15EDB4F2881CF51D440C05E2F
:1025B000DB4F3881C052D440CF5DDB4F4881C152E0
:1025C000D440CE5DDB4F5881C252D440602FC35FF0
:1025D000DB4F7881CD50D440C25FDB4F8881CE5035
:1025E000D440912F0E94BD1C6B017C01C75EDB4F64
:1025F000288139814A815B81C951D440C301B2012C
:102600000E94BD1C9B01AC01C701B6010E940D1EBA
:102610006B017C01C15EDB4F2881CF51D440C05E8D
:10262000DB4F3881C052D440CF5DDB4F4881C1526F
:10263000D440CE5DDB4F5881C252D440C301B201B9
:102640000E94BD1C4B015C01C75EDB4F28813981B4
:102650004A815B81C951D440602FC35FDB4F7881D1
:10266000CD50D440C25FDB4F8881CE50D440912FF3
:102670000E94BD1CA50194010E940E1E2B013C016D
:10268000C15FDB4FA881B981CF50D4401196C15FA3
:10269000DB4FB983A883CF50D440CB5EDB4FE881BA
:1026A000F981C551D4403496CB5EDB4FF983E88382
:1026B000C551D440C35EDB4F28813981CD51D44010
:1026C0002C5F3F4FC35EDB4F39832883CD51D4400D
:1026D0000C2DC35FDB4FD882CD50D440C25FDB4F9F
:1026E000E882CE50D4401F2D05CEC75FDB4FE88176
:1026F000F981C950D440E653FF4F85919591A5913A
:10270000B491C75FDB4FE881F981C950D440EA57E3
:10271000FF4F4591559165917491C15EDB4F4883A0
:10272000CF51D440C05EDB4F5883C052D440CF5D00
:10273000DB4F6883C152D440CE5DDB4F7883C252F9
:10274000D4409C01AD015058C75EDB4F28833983CC
:102750004A835B83C951D440C75FDB4F48815981AD
:10276000C950D4404C5F5F4FC75FDB4F59834883EC
:10277000C950D440C75DDB4F88819981C952D4408C
:10278000CB5FDB4F99838883C550D4404C315105D2
:1027900009F059CD8101D8016D917D918D919D9167
:1027A0008D01C95FDB4FE881F981C750D440C190EA
:1027B000D190E190F190C95FDB4FF983E883C75076
:1027C000D4409B01AC010E94BD1C4B015C01A701E0
:1027D0009601C701B6010E94BD1C9B01AC01C50159
:1027E000B4010E940E1E0E94711FF801349760838D
:1027F000718382839383C55FDB4F28813981CB50FE
:10280000D4400217130739F610E000E0712C612C58
:10281000512C412CEE24E394F12CD1016D917D914A
:102820008D919D911D018C9011969C9011971296FF
:10283000CC9012971396DC905701BFEFAB1ABB0AEE
:102840009401A6010E94571C87FF1AC0F101248140
:10285000358146815781B401C6010E94661F181652
:102860007CF4272D362D452D542DB401C6010E9430
:10287000661F18162CF48701782C692C5C2C4D2CC3
:102880007501F1E4AF16B10441F6180121E0221AF6
:1028900020EC320A220C331C220C331CFE01E20D08
:1028A000F31D81809280A380B480FE01E20DF31DB0
:1028B000C184D284E384F484A7019601C501B401E4
:1028C0000E940D1E2B013C01FE01E20DF31D6581EE
:1028D0007681878190859B01AC010E940E1E9B0131
:1028E000AC01C501B4010E940D1EA70196010E9412
:1028F0000E1E9B01AC01C301B2010E947F1E20E0AD
:1029000030E040E05FE30E94BD1C6B017C01B80138
:1029100090E080E00E945C1C9B01AC01C701B60105
:102920000E940E1E20E030E040E855E40E94BD1CED
:102930000034110501F120E030E04EEF52E40E9436
:102940007F1EC45DDB4F0FB6F894DEBF0FBECDBF58
:10295000DF91CF911F910F91FF90EF90DF90CF907B
:10296000BF90AF909F908F907F906F905F904F90AF
:102970003F902F90089520E030E040E05CE30E941B
:10298000BD1CDFCF1F920F920FB60F9211242F9311
:102990003F938F939F93AF93BF93809152029091F7
:1029A0005302A0915402B091550230914D0223E0A0
:1029B000230F2D3758F50196A11DB11D20934D020F
:1029C0008093520290935302A0935402B093550205
:1029D00080914E0290914F02A0915002B09151020D
:1029E0000196A11DB11D80934E0290934F02A093BA
:1029F0005002B0935102BF91AF919F918F913F913F
:102A00002F910F900FBE0F901F90189526E8230F5F
:102A10000296A11DB11DD2CF1F920F920FB60F9239
:102A200011242F933F934F935F936F937F938F93D3
:102A30009F93AF93BF93EF93FF9380915B0290912D
:102A40005C02A0915D02B0915E02892B8A2B8B2BD8
:102A5000D1F190915602E0915702F0915802808195
:102A60008927808380915B0290915C02A0915D0236
:102A7000B0915E02181619061A061B069CF4809186
:102A80005B0290915C02A0915D02B0915E020197A1
:102A9000A109B10980935B0290935C02A0935D024F
:102AA000B0935E02FF91EF91BF91AF919F918F9193
:102AB0007F916F915F914F913F912F910F900FBE3A
:102AC0000F901F901895809100010E946404EACF36
:102AD0001F920F920FB60F9211242F933F934F9393
:102AE0005F936F937F938F939F93AF93BF93EF9376
:102AF000FF938FEB92E00E944E05FF91EF91BF9103
:102B0000AF919F918F917F916F915F914F913F9185
:102B10002F910F900FBE0F901F9018951F920F923C
:102B20000FB60F9211242F938F939F93EF93FF93E0
:102B3000E091CF02F091D0028081E091D502F09136
:102B4000D60282FD1BC090818091D8028F5F8F7367
:102B50002091D902821741F0E091D802F0E0E154CF
:102B6000FD4F958F8093D802FF91EF919F918F91A8
:102B70002F910F900FBE0F901F9018958081F4CF6A
:102B80001F920F920FB60F9211242F933F934F93E2
:102B90005F936F937F938F939F93AF93BF93EF93C5
:102BA000FF938091B900887F803609F44AC0F0F520
:102BB000883209F4A7C018F5803109F49BC0B8F435
:102BC000882309F4F9C0883009F494C0FF91EF918B
:102BD000BF91AF919F918F917F916F915F914F9135
:102BE0003F912F910F900FBE0F901F901895883135
:102BF00009F488C0803251F78093930214C0803466
:102C000009F49DC040F48033B9F38833F9F680931A
:102C1000930285ECB0C0803509F485C0883509F48D
:102C200096C0883499F60E94BF0FD0CF883909F436
:102C30008CC038F5883729F050F4883611F0803789
:102C400029F683E0809395021092250257C08838B8
:102C500009F47BC0803919F0803809F0B7CF809132
:102C60002502803208F071C0E091250281E08E0FCC
:102C7000809325028091BB00F0E0EB5FFD4F8083E5
:102C80003DC0803B39F0E0F4803A09F479C0883ADD
:102C900009F09CCF84E08093950210920402109278
:102CA0000302E0912802F091290209958091030224
:102CB00081110FC081E0809303021092E30109C0EB
:102CC000803C09F4A6CF883C09F4A3CF883B09F0E7
:102CD0007DCFE091040281E08E0F80930402F0E04A
:102CE000ED51FE4F80818093BB0090910402809152
:102CF000030229C0809170028093BB0085EC809311
:102D0000BC0064CF9091920280919102981758F57F
:102D1000E091920281E08E0F80939202F0E0EF58F2
:102D2000FD4F8081E9CFE091920281E08E0F809388
:102D300092028091BB00F0E0EF58FD4F80839091AC
:102D40009202809191029817C8F285E8D8CFE0915D
:102D5000920281E08E0F809392028091BB00F0E09E
:102D6000EF58FD4F80838091940281115CCF81E008
:102D700080936F0284EA8093BC001092950226CF64
:102D800085EC8093BC0010929502809125028032E0
:102D900030F4E0912502F0E0EB5FFD4F108260918E
:102DA000250270E0E0912602F091270285E092E092
:102DB0000995109225020ACF1092930234CFEFEBBF
:102DC000F2E01382128248EE53E060E070E0448348
:102DD0005583668377838EE591E09183808385ECCC
:102DE00090E09587848784EC90E09787868780ECD5
:102DF00090E0918B808B81EC90E0938B828B82ECC6
:102E000090E0958B848B86EC90E0978B868B118E6F
:102E1000128E138E148EACE5B3E013961C921E92A4
:102E2000129714964D935D936D937C93179780E75B
:102E300091E011969C938E93E5E7F3E080ED97E0A7
:102E400097A386A311A610A612A6178A118E12A206
:102E500013A214A215A214821582E8E6F3E01486E8
:102E6000138680E1818380E28083B287A1878CE230
:102E70008283148213821582168217821086089527
:102E8000CF93DF93CDB7DEB7EC970FB6F894DEBFE4
:102E90000FBECDBF789484B5826084BD84B5816057
:102EA00084BD85B5826085BD85B5816085BD809115
:102EB0006E00816080936E0010928100809181008D
:102EC0008260809381008091810081608093810085
:102ED000809180008160809380008091B100846047
:102EE0008093B1008091B00081608093B0008091A8
:102EF0007A00846080937A0080917A008260809367
:102F00007A0080917A00816080937A0080917A00C3
:102F1000806880937A001092C10080E2E9E0F1E0DD
:102F20008E010F5F1F4FD80101900D928A95E1F736
:102F3000E091CF02F091D00282E08083E091CB0259
:102F4000F091CC021082E091CD02F091CE0280E1AE
:102F500080831092D702E091D302F091D40286E0F0
:102F60008083E091D102F091D202808180618083E0
:102F7000E091D102F091D202808188608083E0915B
:102F8000D102F091D202808180688083E091D102E9
:102F9000F091D20280818F7D808388E0E9E2F1E0C8
:102FA000DE01919601900D928A95E1F781E0809380
:102FB000790310927A0310927B0380938C0398E03C
:102FC00090938D031092750380937703809376031B
:102FD00010927803FE01B196A4E8B3E09E01275D4C
:102FE0003F4F3EAB2DABEBAFFCAF81918D938DA9E5
:102FF0009EA98E179F07C9F789A580937C03F12CA2
:1030000080918C03F81690F48F2D90E0DC01AB5882
:10301000BC4F6D0117968C910E94BB0160917603A5
:10302000F60187810E941D03F394EACFF12C809171
:103030008D03F81650F090918C03EFE8F3E080E0F8
:103040009817B1F011928F5FFBCF8F2D90E09C010C
:103050002B583C4F6901D9011F968C910E94BB01EE
:1030600060917803F60187850E941D03F394DFCFFA
:1030700080E00E94870380E00E94690388E097E077
:1030800090939C0380939B0310929E0310929D0348
:1030900010929F038CE00E94BB0160E08CE00E94D4
:1030A0001D038BE00E94BB0160E08BE00E941D03CA
:1030B00010922B0210922A020E94040681E694E0EC
:1030C000909329028093280282E694E0909327024D
:1030D000809326028CE08093B800809171039091D8
:1030E00072032091680331E030939B022093BD026C
:1030F00010929C021092BE02DC01ED91FC910190B5
:10310000F081E02D60EF099581E00E944306F82EE2
:103110008111A1C0E09068030E9409044B015C0189
:1031200080919502811163C081E080939502809324
:1031300094029FEF90939302109292021092910248
:103140008093700280917002EE0CE82AE092700287
:1031500080916F02813009F093C010926F020E943B
:1031600009044B015C01809170028093BB00809147
:10317000970290919802A0919902B0919A02892B9E
:103180008A2B8B2BA1F00E9409044090970250904B
:1031900098026090990270909A02681979098A09D8
:1031A0009B09461657066806790608F441C08091C7
:1031B000BC0083FDD8CF85EC8093BC000E9409043D
:1031C0004B015C0180919502813009F45BC08091D4
:1031D0009202811179C080919202A1E7B2E0ECE203
:1031E000F2E0F81649F19D919193F394FACF809112
:1031F000970290919802A0919902B0919A02892B1E
:103200008A2B8B2B09F48CCF0E94090440909702E3
:10321000509098026090990270909A02681979090A
:103220008A099B09461657066806790608F078CF82
:10323000809196020E94220610922B02F0922A029E
:103240008091710390917203DC01ED91FC910284F5
:10325000F385E02D09958091680391E090939B029E
:103260008093BD0210929C021092BE0281E00E94E7
:103270004306882359F181EC91E00E94390BFFCF7E
:1032800085EE9ACF8091970290919802A091990231
:10329000B0919A02892B8A2B8B2B09F493CF0E9431
:1032A00009044090970250909802609099027090A3
:1032B0009A02681979098A099B0946165706680611
:1032C000790608F07FCFB4CF81E087CFC8010E9494
:1032D0007D0B809167028C5080936702811110C032
:1032E0000E94310B47E6E42E42E0F42EF701819173
:1032F0007F010E946E0BFFE6EF16F2E0FF06B1F7CA
:103300008EE091E00E94500B86E991E00E94500B04
:1033100089E591E00E94500B8EE091E00E94500BF5
:1033200018AA1FA61AAA19AA1CAA1BAA50E040E0B4
:1033300060E871E0CE018F960E949E0F81E090E0E0
:10334000A0E0B0E08FAB98AFA9AFBAAFC12CD12C41
:103350007601C394C701B6012FA938AD49AD5AAD66
:103360000E94DC1D672B682B692B09F0E8C06901FE
:103370007A010E94F70F20E030E048EC52E40E940E
:103380007F1E20E030E0A9010E94661F87FDE2C099
:103390000E94F70F20E030E048EC52E40E947F1ECC
:1033A00020E030E040E05FE30E940E1E0E94F11E2C
:1033B000A4E6A69F4001A79F900C1124B8EC8B1A9D
:1033C000B6E09B0A21E1821627E2920618F02AE075
:1033D000822E912CC114D104E104F10409F4FFC040
:1033E0001AA619A61CA61BA61EA61DA650E040E004
:1033F00060E871E0CE0189960E949E0F16012701B8
:103400001AA219A21CA21BA21EA21DA2C201B101D6
:103410002AE030E040E050E00E94DC1DCB014AE0B1
:10342000B8010E94221CF80101900020E9F73197B1
:10343000AF01401B510BB8018BAD9CAD0E949E0F9C
:103440001A8219821C821B821E821D8269A17AA1A6
:103450006115710529F04DA15EA1C8010E949E0F62
:1034600069A47AA46114710409F48FC0ADA4BEA448
:10347000A114B104B1F08D819E81A80EB91EB501D1
:10348000C8010E94760F882309F47FC029813A8100
:103490008D819E81B301820F931F0E942A22BE82DA
:1034A000AD8269817A816115710509F472C04D811F
:1034B0005E81CE0189960E949E0FC8010E946E0F08
:1034C0008BAD9CAD0E946E0FC201B1012AE030E0CD
:1034D00040E050E00E94DC1D19012A012114310452
:1034E0004104510409F08CCFB12CA12C2401712C82
:1034F000612C2DA53EA5C9010197A816B90608F0B3
:1035000050C0A216B30628F4E9A5FAA5309709F031
:1035100045C010924C02ECE4F2E080810E94DC098C
:10352000C301B2010E942E048FE50E94DC09C30191
:10353000B2010E942E043FEFA31AB30ADACFA7010B
:1035400096016FA978AD89AD9AAD0E9401206B01FB
:103550007C010FCF0E94F70F20E030E048EC52E4EE
:103560000E947F1E20E030E040E05FE30E940D1EDD
:103570000E94F11EE4E6E69F4001E79F900C1124B3
:10358000F8EC8F1AF6E09F0A1DCFC8010E945C0F6D
:1035900088CFCE0189960E945C0F8FCFEA0DFB1D6C
:1035A000BCCF8217930728F4E9A5FAA5309709F054
:1035B00063C010924C02ECE4F2E080810E94DC09CE
:1035C000C301B2010E942E048EE20E94DC09C301F5
:1035D000B2010E942E04CE0189960E946E0F8FA91F
:1035E00098ADA9ADBAAD0196A11DB11D8FAB98AF35
:1035F000A9AFBAAF91E0C91699E0D9069DE3E906F3
:10360000F10408F4A7CE88EA92E00E94500B89E802
:1036100092E00E94500B8FEB92E00E942E05892BC6
:10362000D1F31A8219821C821B821E821D8250E0F5
:1036300040E060E871E0C8010E949E0F0E94E00433
:1036400097FD1DC089A31AA2ED80FE80AFEFEA1A94
:10365000FA0AB701C8010E94760F882379F32981FD
:103660003A818D819E816BAD7CAD820F931F0E944C
:103670002A22FE82ED82E2CFE80FF91F9ECF8FA5AE
:1036800098A9009709F4C8C069817A81611571050C
:1036900009F4C0C049A95AA92D813E814217530798
:1036A00008F4B8C00E942A228D819E819CAB8BAB0E
:1036B0001E821D82C8010E946E0FCBA8DCA86FA5D8
:1036C00078A997E6E92E92E0F92EF70190E080E0E4
:1036D000419150E08C159D0530F49B01280F391F56
:1036E0006115710521F410924C022CE432E0D901ED
:1036F0002C91022E000C330B4217530709F09DC08A
:1037000001968830910521F70E94310B0E94310B00
:103710008BEA91E00E94500B8BE592E00E94500BE7
:10372000F70181917F010E946E0B2FE632E02E158A
:103730003F05B1F784EF91E00E94500B0E94310BDE
:103740000E94310B84E1E82EF12C88EB91E00E947D
:10375000DA0164E670E080E090E00E942E048EEED4
:1037600091E00E94DA0164E670E080E090E00E945F
:103770002E048BE092E00E94DA0164E670E080E0C3
:1037800090E00E942E048BE492E00E94DA0164E64D
:1037900070E080E090E00E942E0483E992E00E94B5
:1037A000DA0164E670E080E090E00E942E048AEB8B
:1037B00092E00E94DA0164E670E080E090E00E940E
:1037C0002E0480E193E00E94DA0164E670E080E07C
:1037D00090E00E942E048AE00E94640464E670E097
:1037E00080E090E00E942E0431E0E31AF10809F035
:1037F000ACCFCE018F960E946E0F80E090E0892BB7
:1038000009F48ECD0E943A05882309F489CD0E94DF
:10381000000086CD0E94DB2089819A8198AB8FA71A
:103820008B819C819AAB89AB8D819E819CAB8BAB4C
:103830001A8219821C821B823BCF8DE392E00E9488
:10384000500BD7CFBB274A3031F4992322F4BDE285
:10385000909581959F4F0C942E1CBB27FB015527FB
:10386000AA27880F991FAA1FA41710F0A41B8395DD
:103870005051B9F7A05DAA3308F0A95DA193009754
:1038800079F7B111B1931192CB010C94471CDC0173
:10389000FC01672F71917723E1F7329704C07C9187
:1038A0006D9370836291AE17BF07C8F308950E94AD
:1038B000991C08F481E00895E89409C097FB3EF450
:1038C00090958095709561957F4F8F4F9F4F99236D
:1038D000A9F0F92F96E9BB279395F69587957795EB
:1038E0006795B795F111F8CFFAF4BB0F11F460FFAB
:1038F0001BC06F5F7F4F8F4F9F4F16C0882311F003
:1039000096E911C0772321F09EE8872F762F05C016
:10391000662371F096E8862F70E060E02AF09A95B1
:10392000660F771F881FDAF7880F9695879597F9A6
:103930000895990F0008550FAA0BE0E8FEEF161640
:103940001706E807F907C0F012161306E407F50793
:1039500098F0621B730B840B950B39F40A2661F007
:10396000232B242B252B21F408950A2609F4A140AA
:10397000A6958FEF811D811D08950E94D01C0C9487
:10398000411D0E94331D38F00E943A1D20F09523FE
:1039900011F00C942A1D0C94301D11240C94751DEB
:1039A0000E94521D70F3959FC1F3950F50E0551F73
:1039B000629FF001729FBB27F00DB11D639FAA2784
:1039C000F00DB11DAA1F649F6627B00DA11D661FD3
:1039D000829F2227B00DA11D621F739FB00DA11DF4
:1039E000621F839FA00D611D221F749F3327A00DAE
:1039F000611D231F849F600D211D822F762F6A2F4A
:103A000011249F5750409AF0F1F088234AF0EE0FAE
:103A1000FF1FBB1F661F771F881F91505040A9F7DB
:103A20009E3F510580F00C942A1D0C94751D5F3F3C
:103A3000E4F3983ED4F3869577956795B795F79517
:103A4000E7959F5FC1F7FE2B880F911D969587958F
:103A500097F9089597F99F6780E870E060E008950E
:103A60009FEF80EC089500240A9416161706180696
:103A70000906089500240A94121613061406050672
:103A80000895092E0394000C11F4882352F0BB0F03
:103A900040F4BF2B11F460FF04C06F5F7F4F8F4F66
:103AA0009F4F089557FD9058440F551F59F05F3FA1
:103AB00071F04795880F97FB991F61F09F3F79F050
:103AC00087950895121613061406551FF2CF4695D2
:103AD000F1DF08C0161617061806991FF1CF869554
:103AE0007105610508940895E894BB276627772738
:103AF000CB0197F90895052E97FB1EF400940E94C0
:103B0000921D57FD07D00E94DC1D07FC03D04EF428
:103B10000C94921D50954095309521953F4F4F4FF5
:103B20005F4F089590958095709561957F4F8F4F69
:103B30009F4F08950E94FE1DA59F900DB49F900D6C
:103B4000A49F800D911D112408952F923F924F92B2
:103B50005F926F927F928F929F92AF92BF92CF921D
:103B6000DF92EF92FF920F931F93CF93DF93CDB726
:103B7000DEB7CA1BDB0B0FB6F894DEBF0FBECDBF9E
:103B800009942A88398848885F846E847D848C846F
:103B90009B84AA84B984C884DF80EE80FD800C8178
:103BA0001B81AA81B981CE0FD11D0FB6F894DEBF5B
:103BB0000FBECDBFED010895A1E21A2EAA1BBB1BBB
:103BC000FD010DC0AA1FBB1FEE1FFF1FA217B307E9
:103BD000E407F50720F0A21BB30BE40BF50B661FFF
:103BE000771F881F991F1A9469F7609570958095C3
:103BF00090959B01AC01BD01CF010895A29FB0013A
:103C0000B39FC001A39F700D811D1124911DB29F10
:103C1000700D811D1124911D08955058BB27AA27AE
:103C20000E94251E0C94411D0E94331D38F00E94F5
:103C30003A1D20F039F49F3F19F426F40C94301DFE
:103C40000EF4E095E7FB0C942A1DE92F0E94521D0B
:103C500058F3BA17620773078407950720F079F4C1
:103C6000A6F50C94741D0EF4E0950B2EBA2FA02D22
:103C70000B01B90190010C01CA01A0011124FF2719
:103C8000591B99F0593F50F4503E68F11A16F04014
:103C9000A22F232F342F4427585FF3CF4695379513
:103CA0002795A795F0405395C9F77EF41F16BA0BD8
:103CB000620B730B840BBAF09150A1F0FF0FBB1F86
:103CC000661F771F881FC2F70EC0BA0F621F731FCF
:103CD000841F48F4879577956795B795F7959E3F2C
:103CE00008F0B0CF9395880F08F09927EE0F9795BD
:103CF000879508950E94291FE3950C94521F0E94F6
:103D0000931E0C94411D0E943A1D58F00E94331DD1
:103D100040F029F45F3F29F00C942A1D51110C94B6
:103D2000751D0C94301D0E94521D68F39923B1F348
:103D3000552391F3951B550BBB27AA2762177307D1
:103D4000840738F09F5F5F4F220F331F441FAA1F65
:103D5000A9F335D00E2E3AF0E0E832D09150504021
:103D6000E695001CCAF72BD0FE2F29D0660F771FCF
:103D7000881FBB1F261737074807AB07B0E809F0B5
:103D8000BB0B802DBF01FF2793585F4F3AF09E3F3A
:103D9000510578F00C942A1D0C94751D5F3FE4F3D7
:103DA000983ED4F3869577956795B795F7959F5F7D
:103DB000C9F7880F911D9695879597F90895E1E0C9
:103DC000660F771F881FBB1F621773078407BA0728
:103DD00020F0621B730B840BBA0BEE1F88F7E09583
:103DE00008950E94F81E6894B1110C94751D0895F1
:103DF0000E945A1D88F09F5798F0B92F9927B75104
:103E0000B0F0E1F0660F771F881F991F1AF0BA957E
:103E1000C9F714C0B13091F00E94741DB1E008954B
:103E20000C94741D672F782F8827B85F39F0B93F3D
:103E3000CCF3869577956795B395D9F73EF4909531
:103E40008095709561957F4F8F4F9F4F08950C948B
:103E5000301D0E945A1DD8F3E894E0E0BB279F571D
:103E6000F0F02AED3FE049EC06C0EE0FBB0F661FF5
:103E7000771F881F28F0B23A62077307840728F07B
:103E8000B25A620B730B840BE3959A9572F78038E4
:103E900030F49A95BB0F661F771F881FD2F79048A2
:103EA0000C94B31FEF93E0FF07C0A2EA2AED3FE0B6
:103EB00049EC5FEB0E94251E0E94411D0F90039468
:103EC00001FC9058E8E6F0E00C94C61F0E94991C93
:103ED00008F48FEF089519F416F40C94301D0C9427
:103EE000B11F0E945A1DB8F39923C9F3B6F39F5727
:103EF000550B87FF0E94BF1F0024A0E640EA9001F7
:103F000080585695979528F4805C660F771F881F18
:103F100020F026173707480730F4621B730B840B19
:103F2000202931294A2BA69517940794202531255D
:103F30004A2758F7660F771F881F20F02617370784
:103F4000480730F4620B730B840B200D311D411DAB
:103F5000A09581F7B901842F9158880F9695879580
:103F600008959F3F31F0915020F48795779567959C
:103F7000B795880F911D9695879597F9089591505B
:103F80005040660F771F881FD2F708959F938F9335
:103F90007F936F93FF93EF939B01AC010E94BD1C35
:103FA000EF91FF910E94DA1F2F913F914F915F9106
:103FB0000C94BD1CDF93CF931F930F93FF92EF924E
:103FC000DF927B018C01689406C0DA2EEF010E941B
:103FD000D01CFE01E894A59125913591459155910C
:103FE000A6F3EF010E94251EFE019701A801DA94B5
:103FF00069F7DF90EF90FF900F911F91CF91DF91C4
:104000000895DB018F939F930E949A1DBF91AF91FA
:10401000A29F800D911DA39F900DB29F900D112422
:10402000089597FB072E16F4009407D077FD09D06A
:104030000E94252007FC05D03EF4909581959F4F66
:104040000895709561957F4F0895AA1BBB1B51E1A0
:1040500007C0AA1FBB1FA617B70710F0A61BB70BF8
:10406000881F991F5A95A9F780959095BC01CD019D
:104070000895EE0FFF1F0590F491E02D09940F9322
:104080001F93CF93DF938230910510F482E090E08C
:10409000E091A203F091A30330E020E0B0E0A0E0C3
:1040A000309799F42115310509F44AC0281B390BC2
:1040B00024303105D8F58A819B816115710589F11C
:1040C000FB0193838283FE0111C0408151810281F3
:1040D000138148175907E0F04817590799F41097CA
:1040E00061F012960C93129713961C933296CF019F
:1040F000DF91CF911F910F9108950093A203109328
:10410000A303F4CF2115310551F04217530738F0BE
:10411000A901DB019A01BD01DF01F801C1CFEF0167
:10412000F9CF9093A3038093A203CDCFFE01E20FBA
:10413000F31F819391932250310939832883D7CF7C
:104140002091A0033091A103232B41F4209103017E
:10415000309104013093A1032093A0032091010129
:10416000309102012115310541F42DB73EB7409140
:10417000050150910601241B350BE091A003F0913D
:10418000A103E217F307A0F42E1B3F0B28173907F2
:1041900078F0AC014E5F5F4F2417350748F04E0FA3
:1041A0005F1F5093A1034093A003819391939FCFEE
:1041B000F0E0E0E09CCFCF93DF930097E9F0FC01C3
:1041C000329713821282A091A203B091A303ED0152
:1041D00030E020E01097A1F420813181820F931FFD
:1041E0002091A0033091A1032817390709F061C07D
:1041F000F093A103E093A003DF91CF910895EA012A
:10420000CE17DF07E8F54A815B819E014115510514
:10421000B1F7E901FB83EA8349915991C40FD51F96
:10422000EC17FD0761F4808191810296840F951F40
:10423000E90199838883828193819B838A83F0E05B
:10424000E0E012968D919C9113970097B9F52D910E
:104250003C911197CD010296820F931F2091A003EC
:104260003091A1032817390739F6309751F510928C
:10427000A3031092A203B093A103A093A003BCCF09
:10428000D383C28340815181840F951FC817D907FA
:1042900061F44E5F5F4F88819981480F591F5183A8
:1042A00040838A819B81938382832115310509F0A4
:1042B000B0CFF093A303E093A2039ECFFD01DC01F6
:1042C000C0CF13821282D7CFB0E0A0E0EAE6F1E2DD
:1042D0000C94A71D8C01009751F4CB010E943F2044
:1042E0008C01C801CDB7DEB7E0E10C94C31DFC0121
:1042F000E60FF71F9C0122503109E217F30708F47B
:104300009DC0D901CD91DC911197C617D70798F0C0
:10431000C530D10530F3CE0104978617970708F30F
:10432000C61BD70B2297C193D1936D937C93CF017A
:104330000E94DB20D6CF5B01AC1ABD0A4C018C0E6B
:104340009D1EA091A203B091A303512C412CF12CEE
:10435000E12C109731F58091A0039091A10388156D
:10436000990509F05CC04616570608F058C08091C0
:10437000010190910201009741F48DB79EB74091E1
:10438000050150910601841B950BE817F90708F009
:1043900055C0F093A103E093A003F90171836083FA
:1043A000A0CF8D919C91119712966C9012971396B5
:1043B0007C901397A815B90559F56C0142E0C40E1D
:1043C000D11CCA14DB0420F1AC014A195B09DA01E3
:1043D0001296159780F06282738251834083D901CF
:1043E0006D937C93E114F10471F0D7011396FC9363
:1043F000EE93129776CF22968C0F9D1FF901918331
:104400008083F301EFCFF093A303E093A20369CF7E
:104410004816590608F42C017D01D3019ACFCB012F
:104420000E943F207C01009749F0AE01B8010E9434
:104430002122C8010E94DB20870153CF10E000E059
:1044400050CFFB01DC0102C001900D924150504061
:10445000D8F70895FB01DC0101900D920020E1F7EF
:064460000895F894FFCF5F
:10446600FF0000A40380000000F33CF83D6FBB682A
:10447600BF299665C1A9769E41F2B53B40D9B15197
:10448600BE4F3B2BC11349544006050203040708DF
:10449600093F065B4F666D7D077F6F777C395E79D6
:1044A600713D76300E763800543F7367506D783E16
:1044B6003E00766E5B0040806308000000007005D9
:1044C6009004BD04BD052E05CC04200500000000A7
:1044D6008A075D07D90933075607430734070D0ACC
:1044E600004F62667573636174696F6E206973202D
:1044F600696E76616C69642E20506C656173652007
:10450600636F6E74616374206368616C6C656E675B
:10451600652061646D696E6973747261746F722E61
:10452600000A63616E6E6F7420636F6D6D756E69E0
:104536006361746520746F206B65797061642E0AFF
:02454600000073
:00000001FF
