:100000000C94D7010C94FF010C94FF010C94FF0198
:100010000C94FF010C94FF010C94FF010C94D0137D
:100020000C94FF010C94FF010C94FF010C94FF0150
:100030000C94FF010C94FF010C94FF010C94FF0140
:100040000C9486130C94FF010C9452140C942C14F1
:100050000C94FF010C94FF010C94FF010C94FF0120
:100060000C9484140C94FF0105A84CCDB2D44EB965
:100070003836A9020C50B9918688083CA6AAAA2A4B
:10008000BE000000803F00000000F304353F5E83A7
:100090006C3FBE147B3F6DC47E3F0FB17F3F43EC8E
:1000A0007F3F11FB7F3FC4FE7F3FB1FF7F3FECFFEF
:1000B0007F3FFBFF7F3FFFFF7F3F0000803F00004F
:1000C000803F0000803F0000803F0000803FF3043D
:1000D000353F15EFC33EC2C5473E36BDC83D30FB78
:1000E000483DB00AC93C900E493C880FC93BC60F39
:1000F000493BD60FC93AD90F493ADB0FC939DB0F53
:100100004939DB0FC938DB0F4938BF0FC9372F2AF0
:100110002A2A2A2A2A2A2A2A2A2A2A2A2A2A2A2A3F
:100120002A2A2A2A2A2A2A2A2A2A2A2A2A2A2A2A2F
:100130002A2A2A2A2A2A2A2A2A2A2A2A2A2A2A2A1F
:100140002A2A2A2A2A2A2A2A2A2A2A2A2A2A2A2A0F
:100150002A2A2A2A2A2A2A2F002F2A2A2A2A2A2A1F
:100160002A2A2A2A2A2A2A2A2A2A2A2A2A2A202003
:10017000594F552042454154205448452043484159
:100180004C4C454E47452121212020202A2A2A2A4D
:100190002A2A2A2A2A2A2A2A2A2A2A2A2A2A2A2ABF
:1001A0002F002F2A2A2A2A2A2A2A2A2A2A2A2A2ACF
:1001B0002A2A2A2A2A2A2A202020202020202020F9
:1001C00020436F6E677261747321212120202020EB
:1001D00020202020202A2A2A2A2A2A2A2A2A2A2AB1
:1001E0002A2A2A2A2A2A2A2A2A2F00436F6E67726D
:1001F0006174732120506C656173652061646420B3
:1002000074686520666C616720746F20746865206F
:100210007265706F72742E2E2E00436F6E6772615E
:100220007473206F6E2070617373696E67207468D9
:100230006520666972737420706861736521204E51
:100240006F7720706C6179696E67207468652066CD
:100250006C61672E2E2E00496E636F727265637437
:100260002050696E2E20506C656173652054727940
:1002700020616761696E2E002000507265737320E3
:10028000387468204B657920666F6C6C6F77656495
:1002900020627920230050726573732037746820C0
:1002A0004B657920666F6C6C6F776564206279208E
:1002B0002300507265737320367468204B65792073
:1002C000666F6C6C6F7765642062792023005072D2
:1002D00065737320357468204B657920666F6C6C8C
:1002E0006F776564206279202300507265737320F4
:1002F000347468204B657920666F6C6C6F77656429
:100300002062792023005072657373203372642059
:100310004B657920666F6C6C6F776564206279201D
:100320002300507265737320326E64204B65792010
:10033000666F6C6C6F776564206279202300507261
:1003400065737320317374204B657920666F6C6C14
:100350006F7765642062792023000000000024008C
:1003600027002A0000000008000201000003040723
:10037000000000000000000001020408102040807E
:1003800001020408102001020408102000000000EF
:10039000250028002B0004040404040404040202C1
:1003A000020202020303030303030200A315112444
:1003B0001FBECFEFD8E0DEBFCDBF11E0A0E0B1E0BF
:1003C000ECE1F1E402C005900D92AA3FB107D9F724
:1003D00023E0AAEFB1E001C01D92A83DB207E1F70A
:1003E00011E0C7EDD1E004C02197FE010E94722008
:1003F000C63DD107C9F70E9446160C948C200C9478
:10040000000090E0FC01EC59FC4F2491FC01E858FD
:10041000FC4F3491FC01EA56FC4FE491EE23C9F005
:10042000222339F0233001F1A8F4213019F12230D0
:1004300029F1F0E0EE0FFF1FE457FC4FA591B491B6
:100440008FB7F894EC91611126C030953E233C9310
:100450008FBF08952730A9F02830C9F0243049F71C
:10046000809180008F7D03C0809180008F77809382
:100470008000DFCF84B58F7784BDDBCF84B58F7DDF
:10048000FBCF8091B0008F778093B000D2CF809166
:10049000B0008F7DF9CF3E2BDACFCF93DF9390E082
:1004A000FC01E858FC4F24918A569C4FFC01849132
:1004B0008823C9F090E0880F991FFC01E65AFC4F91
:1004C000A591B491FC01E457FC4FC591D491611101
:1004D0000DC09FB7F8948C91209582238C938881CE
:1004E000282328839FBFDF91CF910895623051F474
:1004F0009FB7F8943C91822F809583238C93E88159
:100500002E2BEFCF8FB7F894EC912E2B2C938FBF1F
:10051000EACF4F925F926F927F928F929F92AF92AB
:10052000BF92CF92DF92EF92FF920F931F93CF93E0
:10053000DF9300D000D01F92CDB7DEB78C012A0127
:100540003B01809100018A30C9F08F3F09F47FC0E0
:100550000F900F900F900F900F90DF91CF911F9100
:100560000F91FF90EF90DF90CF90BF90AF909F9052
:100570008F907F906F905F904F900895EAEAF3E03C
:1005800084918D8387FDE4CF61E08AE00E944D0273
:100590008D81882321F09D81923009F05CC1480152
:1005A000B12CA12C60E072E18AE790E0A5019801EE
:1005B0000E94E31C29833A834B835C8369017A019F
:1005C00081E0C81AD108E108F1089FEFC916D104EB
:1005D000E104F10409F00CF413C160E472E48FE06B
:1005E00090E0A50198010E94E31C69017A0181E075
:1005F000C81AD108E108F1089D81923009F098C02D
:100600008FEFC816D104E104F10409F00CF4DDC148
:1006100060E970ED83E090E0A50198010E94E31C81
:1006200069017A0191E0C91AD108E108F1088FEF58
:10063000C816D104E104F10411F00CF0A3C183E069
:100640009091B100987F892B8093B100E1C08AE03E
:1006500080930001EAEAF3E094919D839F3F09F4BF
:1006600077CF913029F158F0923009F43FC08D8155
:1006700087FD6ECF61E08AE00E944D028CCF14BCF2
:1006800015BC84B5826084BD85B5816085BDE0EA16
:10069000F3E0E491F0E0EE0FFF1FE457FC4F85918B
:1006A0009491E2E8F3E0E491E09358021D826CCF6C
:1006B0001092800010928100809181008860809368
:1006C000810080918100816080938100E0EAF3E005
:1006D000E491F0E0EE0FFF1FE457FC4F85919491F9
:1006E000E2E8F3E0E491E09357024ECF1092B000BD
:1006F0001092B1008091B00082608093B000809130
:10070000B10081608093B100E0EAF3E0E491F0E0B1
:10071000EE0FFF1FE457FC4F859194919093560282
:1007200080935502E2E8F3E0E491E09354022CCF89
:100730009FEFC916D104E104F10409F00CF489C05B
:1007400068E478EE81E090E0A50198010E94E31C46
:1007500069017A0181E0C81AD108E108F1089D8198
:10076000992309F428C19FEFC916D104E104F104CB
:1007700009F00CF41EC162E17AE780E090E0A50187
:1007800094010E94E31C69017A0181E0C81AD10832
:10079000E108F1089D81992309F4EBC08FEFC81699
:1007A000D104E104F10411F008F0BFC086E048CFA5
:1007B00064E274EF80E090E0A50194010E94E31CE4
:1007C00069017A0181E0C81AD108E108F10885E0E1
:1007D0009FEFC916D104E104F10409F008F430CF09
:1007E00062E17AE780E090E0A50194010E94E31CB9
:1007F00069017A0191E0C91AD108E108F108CECF68
:1008000081E09D8191111CCF95B5987F892B85BD85
:100810002FEF3FEFA901411451046104710409F065
:1008200043C09D81913009F45EC0923009F46DC0DF
:1008300091118ECEC7BC2093610230936202409327
:1008400063025093640280916E00826080936E0018
:100850007FCE82E0D6CFB12CA12C60E072E18AE796
:1008600090E0A50198010E94E31C69017A0181E0F2
:10087000C81AD108E108F108C114D10491E0E906D1
:10088000F10404F591E08D81813011F680918100B1
:10089000887F892B809381002FEF3FEFA9014114BE
:1008A000510461047104F9F0D801AA0FBB1FA30120
:1008B00092010E94021D28EE33E040E050E00E94C9
:1008C000151DAFCF68E478EE81E090E0A5019801B6
:1008D0000E94E31C69017A0181E0C81AD108E1088D
:1008E000F10893E0D0CFD0928900C0928800209385
:1008F0005D0230935E0240935F02509360028091EC
:100900006F00826080936F0023CEC092B30020936B
:10091000590230935A0240935B0250935C028091DB
:10092000700082608093700013CEC980DA80EB8003
:10093000FC809AE0F594E794D794C7949A95D1F700
:1009400091E0C91AD108E108F10887E079CEC980A1
:10095000DA80EB80FC808AE0F594E794D794C79422
:100960008A95D1F791E0C91AD108E108F10885E02C
:100970004BCF8FEFC816D104E104F10409F038F72A
:1009800084E042CF68E478EE81E090E0A501980130
:100990000E94E31C69017A0191E0C91AD108E108BB
:1009A000F1088FEFC816D104E104F10411F00CF046
:1009B000FFCE84E045CE8FEFC816D104E104F104E8
:1009C00011F00CF0D8CE83E01FCF82E039CE8E50EC
:1009D000806480937C0080917A00806480937A00A8
:1009E00080917A0086FDFCCF80917800909179000B
:1009F00008953FB7F8948091470290914802A091E2
:100A00004902B0914A0226B5A89B05C02F3F19F0B4
:100A10000196A11DB11D3FBFBA2FA92F982F88277E
:100A2000BC01CD01620F711D811D911D42E0660F59
:100A3000771F881F991F4A95D1F708958F929F922B
:100A4000AF92BF92CF92DF92EF92FF926B017C0147
:100A50000E94F9044B015C01C114D104E104F104CA
:100A6000B9F00E94F904681979098A099B09683E5E
:100A700073408105910580F321E0C21AD108E10895
:100A8000F10888EE880E83E0981EA11CB11CE4CF0B
:100A9000FF90EF90DF90CF90BF90AF909F908F909E
:100AA0000895089508959091000189130BC0EAEA12
:100AB000F3E0E4919FEF90930001E13049F028F0DA
:100AC000E23061F060E00C94010210926E00FACF07
:100AD00090916F009D7F90936F00F4CF9091700084
:100AE0009D7F9093700091E09093B0009091B10041
:100AF000987F94609093B1001092B300E3CFAF92CF
:100B0000BF92CF92DF92EF92FF920F931F93CF93FA
:100B1000DF936C017B018B01040F151FEB015E015C
:100B2000AE18BF08C017D10759F06991D601ED91F1
:100B3000FC910190F081E02DC6010995892B79F790
:100B4000C501DF91CF911F910F91FF90EF90DF9042
:100B5000CF90BF90AF900895FC01538D448D252F09
:100B600030E0842F90E0821B930B541710F0CF9647
:100B7000089501970895FC01918D828D981761F079
:100B8000A28DAE0FBF2FB11D5D968C91928D9F5F90
:100B90009F73928F90E008958FEF9FEF0895FC016F
:100BA000918D828D981731F0828DE80FF11D858D22
:100BB00090E008958FEF9FEF0895FC01918D228DB5
:100BC000892F90E0805C9F4F821B91098F7399273A
:100BD000089587ED92E00E94DD0521E0892B09F45C
:100BE00020E0822F089580E090E0892B29F00E9478
:100BF000E90581110C9400000895FC01A48DA80F53
:100C0000B92FB11DA35ABF4F2C91848D90E001964E
:100C10008F739927848FA689B7892C93A089B1896E
:100C20008C91837080648C93938D848D981306C00F
:100C30000288F389E02D80818F7D80830895EF9273
:100C4000FF920F931F93CF93DF93EC0181E0888F86
:100C50009B8D8C8D98131AC0E889F989808185FF56
:100C600015C09FB7F894EE89FF896083E889F989F8
:100C700080818370806480839FBF81E090E0DF91FA
:100C8000CF911F910F91FF90EF900895F62E0B8D4D
:100C900010E00F5F1F4F0F731127E02E8C8D8E1108
:100CA0000CC00FB607FCFACFE889F989808185FF6F
:100CB000F5CFCE010E94FD05F1CFEB8DEC0FFD2F9E
:100CC000F11DE35AFF4FF0829FB7F8940B8FEA892A
:100CD000FB8980818062CFCF0F931F93CF93DF93E7
:100CE0008C01D0E0C0E0F801EC0FFD1F6491662399
:100CF00041F087ED92E00E941F06892B11F02196AA
:100D0000F2CFCE01DF91CF911F910F910895CF9334
:100D1000DF93EC01888D8823B9F0AA89BB89E88923
:100D2000F9898C9185FD03C0808186FD0DC00FB6C9
:100D300007FCF7CF8C9185FFF2CF808185FFEDCF47
:100D4000CE010E94FD05E9CFDF91CF91089520915A
:100D50001B02260F3327331F21323105ECF420917B
:100D6000AD02FC0190E080E0243069F082E008955B
:100D7000A0911B022191AC0145505E4FA40FB52FED
:100D8000B11D2C930196861798F380911B02680F72
:100D900060931B0280E0089581E008951092AD02F7
:100DA00081E08093AC021092870261E082E10E94B0
:100DB000010261E083E10E940102E9EBF0E0808141
:100DC0008E7F808380818D7F808388E48093B800CC
:100DD00085E48093BC000895CF93DF9391E09093D6
:100DE000FA018823B9F0C091B800D091BA0080917F
:100DF000BC008A7B8093BC0060E082E10E9401021B
:100E000060E083E10E9401020E94CE06D093BA0006
:100E1000C093B800DF91CF9108958F929F92AF92C7
:100E2000BF92CF92DF92EF92FF920F931F93CF93D7
:100E3000DF93D091D602D13208F0D7C0182FC091DD
:100E4000D5020E94F9046B017C018091AD028111F1
:100E50006BC082E08093AD021093AC028FEF809361
:100E6000AB021092AA02D093A902A5EBB2E0E9E886
:100E7000F2E080E0D81391C010928802809188023D
:100E8000CC0FC82BC093880280918702813009F073
:100E900088C0109287020E94F9046B017C01809146
:100EA00088028093BB008091AF029091B002A09124
:100EB000B102B091B202892B8A2B8B2BA1F00E9438
:100EC000F9040091AF021091B0022091B10230916B
:100ED000B2026C197D098E099F09061717072807AA
:100EE000390708F442C08091BC0083FDD8CF85EC5F
:100EF0008093BC000E94F9046B017C018091AD02DB
:100F0000823009F450C08091AB028F3F09F46FC06A
:100F10008091AB02803209F46CC08091AB028033C7
:100F200009F469C084E026C08091AF029091B002BC
:100F3000A091B102B091B202892B8A2B8B2B09F4BC
:100F400084CF0E94F9048090AF029090B002A090EC
:100F5000B102B090B2026C197D098E099F09861604
:100F60009706A806B90608F070CF8091AE020E94DD
:100F7000EC0685E01092B4021092D6021092B302F1
:100F8000DF91CF911F910F91FF90EF90DF90CF9065
:100F9000BF90AF909F908F9008959D9191938F5F98
:100FA00069CF85EEA5CF8091AF029091B002A0915C
:100FB000B102B091B202892B8A2B8B2B09F49ECF00
:100FC0000E94F9040091AF021091B0022091B10289
:100FD0003091B2026C197D098E099F090617170717
:100FE0002807390708F08ACFC0CF81E0C3CF80E05F
:100FF000C1CF82E0BFCF83E0BDCF0895E09166020C
:1010000080916502E81730F4F0E0E959FD4F8081E6
:1010100090E008958FEF9FEF089590916602809180
:1010200065022FEF3FEF981748F4E92FF0E0E959F8
:10103000FD4F208130E09F5F90936602C9010895C3
:101040008091650290916602891B990B0895CF9259
:10105000DF92EF92FF920F931F93CF93DF937C0168
:10106000CB018A012091B302222389F0EB016B01AD
:10107000C40ED51ECC15DD0569F06991D701ED913F
:10108000FC910190F081E02DC7010995F3CF642F09
:101090000E94A706C801DF91CF911F910F91FF9089
:1010A000EF90DF90CF900895CF93DF931F92CDB74D
:1010B000DEB769832091B3022223F9F02091D60292
:1010C000203258F021E030E0FC013383228390E0AD
:1010D00080E00F90DF91CF9108958091B402E82FC6
:1010E000F0E0EB54FD4F998190838F5F8093B402C1
:1010F0008093D60281E090E0ECCF61E0CE010196D2
:101100000E94A706F7CF90E080E00895EDEDE80F8C
:10111000E23208F0BAC00E2E000CFF0BEE56F74F6D
:101120000C947220330945094509450945094509CB
:1011300045093C0945094509450945094509B408DA
:10114000BE08C708D008D908E208EB08F408FD0873
:10115000060945094509450945094509450945095E
:101160000F09180921092A0944E853E060E070E0FA
:1011700080918E0390918F030C94890244E853E090
:1011800060E070E08091740390917503F5CF44E8BE
:1011900053E060E070E08091760390917703ECCFAC
:1011A00044E853E060E070E0809178039091790327
:1011B000E3CF44E853E060E070E080917C039091DD
:1011C0007D03DACF44E853E060E070E080917E0375
:1011D00090917F03D1CF44E853E060E070E08091CC
:1011E000800390918103C8CF44E853E060E070E051
:1011F0008091840390918503BFCF44E853E060E081
:1012000070E08091860390918703B6CF44E853E065
:1012100060E070E08091880390918903ADCF44E84D
:1012200053E060E070E080917A0390917B03A4CF5B
:1012300044E853E060E070E0809182039091830382
:101240009BCF44E853E060E070E080918A03909186
:101250008B0392CF44E853E060E070E0809192030A
:101260009091930389CF44E853E060E070E080916F
:1012700090039091910380CF44E853E060E070E0E8
:1012800080918C0390918D0377CF0895EF92FF9218
:101290000F931F93CF93DF937C01EC01062F10E097
:1012A000CE018E199F098017910754F489910E94ED
:1012B000860864EF71E080E090E00E941E05F0CFA8
:1012C0008AE0DF91CF911F910F91FF90EF900C94E6
:1012D0005305FC0101900020E9F73197AF01481B4D
:1012E000590BBC0187ED92E00C947F0583E691E0F9
:1012F0000C946909CF93DF930E946C06EC010E9465
:1013000076098C0F9D1FDF91CF910895CF93DF93C6
:101310000E946909EC010E9476098C0F9D1FDF91E4
:10132000CF910895CF92DF92EF92FF920F931F9388
:10133000CF93DF93A091A903B091AA039091A0034A
:1013400021E02093B3029093D5021092B402109240
:10135000D602ED91FC9111970190F081E02D682F5C
:10136000CD01099581E00E940D07C82F8FEFC111B3
:10137000A1C0D091A0030E94F9046B017C0180916F
:10138000AD02811163C081E08093AD028093AC0215
:101390009FEF9093AB021092AA021092A902809341
:1013A000880280918802DD0FD82BD093880280912B
:1013B0008702813009F087C0109287020E94F904E9
:1013C0006B017C01809188028093BB008091AF0209
:1013D0009091B002A091B102B091B202892B8A2BF8
:1013E0008B2BA1F00E94F9040091AF021091B00282
:1013F0002091B1023091B2026C197D098E099F09CA
:10140000061717072807390708F441C08091BC0068
:1014100083FDD8CF85EC8093BC000E94F9046B015A
:101420007C018091AD02813009F44FC08091AA0205
:1014300081116DC08091AA02E9E8F2E0A7E6B2E06E
:10144000C81749F191919D93CF5FFACF8091AF0278
:101450009091B002A091B102B091B202892B8A2B77
:101460008B2B09F48CCF0E94F9040091AF021091EC
:10147000B0022091B1023091B2026C197D098E093F
:101480009F09061717072807390708F078CF8091BA
:10149000AE020E94EC0610926602C0936502809133
:1014A000A9039091AA03DC01ED91FC910284F385DC
:1014B000E02D0995DF91CF911F910F91FF90EF9053
:1014C000DF90CF90089585EEA6CF8091AF029091E6
:1014D000B002A091B102B091B202892B8A2B8B2B62
:1014E00009F49FCF0E94F9040091AF021091B0025D
:1014F0002091B1023091B2026C197D098E099F09C9
:10150000061717072807390708F08BCFC0CF81E0EF
:1015100093CF2F923F924F925F926F927F928F92D2
:101520009F92AF92BF92CF92DF92EF92FF920F9372
:101530001F93CF93DF93CDB7DEB7CA58D1400FB614
:10154000F894DEBF0FBECDBFCB57DE4F99838883A3
:10155000C558D1402DB73EB7C957DE4F39832883D0
:10156000C758D14081E093E2A5E4B7E6CF59DE4FFA
:1015700088839983AA83BB83C156D14089E89BEABB
:10158000ADECBFEECB59DE4F88839983AA83BB8332
:10159000C556D1408EEF9CEDAAEBB8E9C759DE4F96
:1015A00088839983AA83BB83C956D14086E794E593
:1015B000A2E3B0E1C359DE4F88839983AA83BB833A
:1015C000CD56D14080EF91EEA2EDB3ECCF58DE4F77
:1015D00088839983AA83BB83C157D1408DB79EB7B7
:1015E000805491090FB6F8949EBF0FBE8DBFEDB722
:1015F000FEB731968F5B9F4FDF011D921D921D92AA
:101600001D928A179B07C9F72091AD038091AE0305
:1016100090E0B0E0A0E0DC0199278827B22B906829
:101620004081518162817381842B952BA62BB72B2E
:1016300080839183A283B38380E190E0A0E0B0E057
:1016400084AF95AFA6AFB7AFAE014F5F5F4F80E4F9
:1016500091E0DA019C011D9221503040E1F7C15820
:10166000DE4F59834883CF57D140C757DE4FF983A8
:10167000E883C958D1401E013FE3231A310880EFA7
:1016800091EEA2EDB3ECCF57DE4F88839983AA8306
:10169000BB83C158D14081E093E2A5E4B7E6C558C9
:1016A000DE4F88839983AA83BB83CB57D14089E8D7
:1016B0009BEAADECBFEECB58DE4F88839983AA83BB
:1016C000BB83C557D14006E714E522E330E18EEF36
:1016D000C82E8CEDD82E8AEBE82E88E9F82EC75854
:1016E000DE4F1882C957D140C758DE4F9881C9577D
:1016F000D140903108F047C2C757DE4FE881F981E9
:10170000C958D14080819181A281B381C158DE4FF7
:10171000E881F981CF57D14080839183A283B3833D
:10172000B701A6014027512762277327CB58DE4F08
:1017300088819981AA81BB81C557D140482359230B
:101740006A237B234027512762277327B9E98B2E11
:10175000B9E79B2EB2E8AB2EBAE5BB2EC558DE4FDB
:10176000488059806A807B80CB57D140EBE17694EA
:10177000679457944794EA95D1F7C558DE4F88810E
:101780009981AA81BB81CB57D140F5E0880F991F81
:10179000AA1FBB1FFA95D1F784299529A629B72935
:1017A000C158DE4FE881F981CF57D1404190519027
:1017B00061907190C158DE4FF983E883CF57D140D3
:1017C000840D951DA61DB71D840F951FA61FB71F5D
:1017D000880D991DAA1DBB1DCF57DE4F88809980AB
:1017E000AA80BB80C158D140880E991EAA1EBB1E7C
:1017F000CB58DE4F88819981AA81BB81C557D140E2
:1018000042E0B695A795979587954A95D1F7CB581D
:10181000DE4F488059806A807B80C557D1405EE1A9
:10182000440C551C661C771C5A95D1F7482A592A36
:101830006A2A7B2AC758DE4FF881C957D140FF5F1B
:10184000C758DE4FF883C957D140C757DE4F88814C
:101850009981C958D1400496C757DE4F9983888330
:10186000C958D14094E0290E311CC558DE4F8881FB
:101870009981AA81BB81CB57D140CB58DE4F888359
:101880009983AA83BB83C557D140CF57DE4F0883C6
:1018900019832A833B83C158D140F03509F066C1D2
:1018A0009FEF891A9CED990A9AEBA90A98E9B90A5F
:1018B000CF59DE4F88829982AA82BB82C156D1401D
:1018C000C558DE4F88819981AA81BB81CB57D14011
:1018D00087579445A243B041CB59DE4F8883998303
:1018E000AA83BB83C556D140A2E04A1AA3E25A0A92
:1018F000A5E46A0AA7E67A0AC759DE4F48825982E8
:101900006A827B82C956D140BAE8CB1ABBEADB0AAD
:10191000BDECEB0ABFEEFB0AC359DE4FC882D98289
:10192000EA82FB82CD56D14000511E412D423C43FC
:10193000CF58DE4F088319832A833B83C157D14098
:10194000C957DE4FE881F981C758D1400FB6F894E6
:10195000FEBF0FBEEDBFFE01EF59FE4F9F012C5E93
:101960003F4F80E090E0DC01419151916191719194
:1019700084279527A627B7272E173F07A9F78B3D62
:101980009748AA4BB84021F086E691E00E9486096C
:101990009E012F5F3F4F69018901F0E0E0E024E103
:1019A000822E912C30E020E05F01A20EB31E79015F
:1019B000EE0CFF1CE00EF11EC501B4010E945E207A
:1019C000A1E6B1E0AC0FBD1FA80FB91F4C91AA9CB6
:1019D000C001AB9C900D900D1124840F911DD70177
:1019E0008D939C932F5F3F4F28303105E9F6389651
:1019F000005F1F4FE034F105A9F68E010F5B1E4F0B
:101A0000F801B096C758DE4FF983E883C957D14033
:101A10007801CB57DE4F28813981C558D140205EEF
:101A20003F4FC558DE4F39832883CB57D140D7016C
:101A30001D921D921D921D927D01CB57DE4F288075
:101A40003980C558D140CB58DE4FD982C882C5579E
:101A5000D140412C512C3201CB58DE4FA881B981A5
:101A6000C557D1406D917D91CB58DE4FB983A88386
:101A7000C557D140F10181909190A190B1901F0183
:101A8000072E000C880B990B0E94671EA50194017C
:101A90000E945B1F9B01AC01C301B2010E94471D64
:101AA0002B013C01C558DE4F28813981CB57D140ED
:101AB0002215330589F6F7013497408251826282FC
:101AC0007382B0E1CB0ED11CC758DE4FE881F9819B
:101AD000C957D140EE15FF0509F0A9CF8BE4C82EF8
:101AE00082E0D82ED8018D909D90AD90BD908D0153
:101AF00020E030E0A901C501B4010E94561F20E09A
:101B000030E040E05FE387FDDEC0C501B4010E9424
:101B1000471D0E942F1EF60161936F01E016F1062A
:101B200009F7C957DE4F28813981C758D1400FB610
:101B3000F8943EBF0FBE2DBFC657DE4F0FB6F894C8
:101B4000DEBF0FBECDBFDF91CF911F910F91FF90F0
:101B5000EF90DF90CF90BF90AF909F908F907F904D
:101B60006F905F904F903F902F900895C558DE4F33
:101B700088829982AA82BB82CB57D1409701860185
:101B800073016201B1CDD101D4964D915D916D91FA
:101B90007C91D79790968D919D910D90BC91A02DA1
:101BA00084279527A627B727F101408551856285AF
:101BB000738584279527A627B727408151816281A5
:101BC000738184279527A627B727880F991FAA1FF7
:101BD000BB1F811DC158DE4FE881F981CF57D1402D
:101BE00080839183A283B383C758DE4FF881C9579E
:101BF000D140F43108F494CDC758DE4F9881C957CD
:101C0000D1409832D8F4B701A60140275127622766
:101C10007327CB58DE4F88819981AA81BB81C55734
:101C2000D140482759276A277B27A1EA8A2EABEEA5
:101C30009A2EA9EDAA2EAEE6BA2E90CDC758DE4F49
:101C40009881C957D140B701A6019C3318F5402BA4
:101C5000512B622B732BCB58DE4F88819981AA813F
:101C6000BB81C557D140482359236A237B23D70121
:101C7000C60180239123A223B323482B592B6A2B1F
:101C80007B2BFCED8F2EFCEB9F2EFBE1AF2EFFE8B4
:101C9000BF2E64CD4027512762277327CB58DE4FD4
:101CA00088819981AA81BB81C557D140482759278E
:101CB0006A277B27E6ED8E2EE1EC9E2EE2E6AE2E25
:101CC000EAECBE2E4BCDC501B4010E94461D21CFCA
:101CD000CF92DF92EF92FF920F931F93CF93DF93F8
:101CE000EC018C010C5F1F4F8AE0C82ED12CE12C37
:101CF000F12C0E948B1CA70196010E94E31C605DE1
:101D00006993C017D107A9F7DF91CF911F910F9168
:101D1000FF90EF90DF90CF90089585ED8093BC0009
:101D20008091AF029091B002A091B102B091B20245
:101D30000796A11DB11D23E0B695A79597958795A8
:101D40002A95D1F72091BC0024FD03C01092AD026A
:101D500008954091AF025091B0026091B10270912C
:101D6000B202452B462B472B69F30097A105B1051D
:101D700041F02AE22A95F1F700C00197A109B109C3
:101D8000E1CF8091AE020C94EC062F923F924F92DD
:101D90005F926F927F928F929F92AF92BF92CF92FB
:101DA000DF92EF92FF920F931F93CF93DF93CDB704
:101DB000DEB7CC52D4400FB6F894DEBF0FBECDBF15
:101DC0000E94F9049E012F5F3F4F1901AE014F5F42
:101DD0005D4FC95FDB4F59834883C750D4406B01C7
:101DE0007C0154EFC50ED11CE11CF11CC95FDB4F17
:101DF00008811981C750D440C55FDB4F39832883E0
:101E0000CB50D4408EE00E94E704BC01990F880BB0
:101E1000990B0E94671EC55FDB4FA881B981CB502B
:101E2000D4406D937D938D939D93C55FDB4FB983B4
:101E3000A883CB50D440F8011192119211921192C3
:101E40008F010E94F9046C157D058E059F05C8F36E
:101E5000F4EFCF0ED11CE11CF11CC55FDB4F2881D4
:101E60003981CB50D440C95FDB4F48815981C7507D
:101E7000D4402417350731F67901610110E000E004
:101E8000B80190E080E00E94651E20E030E04EEF57
:101E900052E40E94BD1D2BED3FE049EC50E40E944E
:101EA0005B1F0E94B81D2FE135E84BEE5EE30E94F8
:101EB0005B1F9B01AC0161E77DE38AE09FE30E9429
:101EC000461D4B015C01AC019B01D6016D917D91DA
:101ED0008D919C910E945B1FF60161937193819398
:101EE00091936F01A5019401D7019E918E917E91EE
:101EF0006E917D010E945B1FF70160837183828375
:101F000093830F5F1F4F0034110509F0B9CFF10122
:101F100050E040E090E080E01DC048175907C8F449
:101F2000DC01AA0FBB1FAA0FBB1FA20DB31D0481AA
:101F3000158126813781CD90DD90ED90FC9013972F
:101F4000C482D582E682F7820D931D932D933C9334
:101F50001397349620E430E08217930728F0821B11
:101F6000930B36952795F8CF820F931F4F5F5F4FE6
:101F70004F37510591F6C75EDB4F188219821A82DE
:101F80001B82C951D440C15EDB4F1882CF51D4406F
:101F9000C05EDB4F1882C052D440F0E8CF5DDB4F0B
:101FA000F883C152D4402FEBCE5DDB4F2883C25261
:101FB000D44041E050E0CB5FDB4F59834883C550AC
:101FC000D440C75FDB4F19821882C950D440CB5F21
:101FD000DB4F88819981C550D440880F991FC75D18
:101FE000DB4F99838883C952D440CB5FDB4FA881F4
:101FF000B981C550D44033E0AA0FBB1F3A95E1F731
:10200000C55DDB4FB983A883CB52D440CB5FDB4F98
:10201000E881F981C550D440EE0FFF1FEE0FFF1F7E
:10202000C95DDB4FF983E883C752D440C95FDB4FFA
:1020300028813981C750D440C35EDB4F3983288360
:10204000CD51D440CB5EDB4F39822882C551D4407C
:10205000412C512C320100E0C35FDB4F1882CD5080
:10206000D44030E8C25FDB4F3883CE50D4401FE30A
:10207000C15FDB4F19821882CF50D440C15FDB4F64
:1020800048815981CF50D440CB5FDB4F8881998103
:10209000C550D4404817590709F4EBC1C35EDB4F64
:1020A000A881B981CD51D440CF5FDB4FB983A883DC
:1020B000C150D440CB5EDB4FE881F981C551D4409B
:1020C000CD5FDB4FF983E883C350D440C95EDB4F5B
:1020D00059834883C751D440C95EDB4F2881398179
:1020E000C751D4402038310508F020C1CD5FDB4F07
:1020F00048815981C350D440C95DDB4F88819981A3
:10210000C752D440480F591FCB5DDB4F59834883DA
:10211000C552D440DA018D909D90AD90BC90CF5FB8
:10212000DB4FE881F981C150D440E80FF91FCD5D44
:10213000DB4FF983E883C352D4402081318142814F
:102140005381CF5EDB4F288339834A835B83C15140
:10215000D440202FC35FDB4F3881CD50D440C25FC5
:10216000DB4F4881CE50D440512FC501B4010E94AD
:102170005B1F6B017C01A3019201CF5EDB4F688185
:1021800079818A819B81C151D4400E945B1F9B0150
:10219000AC01C701B6010E94461D6B017C01CF5EF8
:1021A000DB4F288139814A815B81C151D440602F46
:1021B000C35FDB4F7881CD50D440C25FDB4F888155
:1021C000CE50D440912F0E945B1FCF5EDB4F6883BF
:1021D00079838A839B83C151D440A3019201C501B5
:1021E000B4010E945B1F9B01AC01CF5EDB4F688195
:1021F00079818A819B81C151D4400E94471D4B0146
:102200005C01A7019601CD5FDB4FE881F981C350E6
:10221000D44060817181828193810E94461DCB5D93
:10222000DB4FA881B981C552D4406D937D938D93C6
:102230009C931397A5019401CF5FDB4FE881F9814F
:10224000C150D44060817181828193810E94461D7A
:10225000CD5DDB4FA881B981C352D4406D937D938E
:102260008D939C931397A7019601CD5FDB4FE88177
:10227000F981C350D44060817181828193810E9431
:10228000471DCD5FDB4FA881B981C350D4406D930A
:102290007D938D939C931397A5019401CF5FDB4FA2
:1022A000E881F981C150D44060817181828193813C
:1022B0000E94471DCF5FDB4FA881B981C150D44038
:1022C0006D937D938D939C931397C95EDB4FE8814B
:1022D000F981C751D440C75DDB4F28813981C9528C
:1022E000D440E20FF31FC95EDB4FF983E883C75187
:1022F000D440CD5FDB4F48815981C350D440C55D88
:10230000DB4F88819981CB52D440480F591FCD5F54
:10231000DB4F59834883C350D440A80FB91FCF5F08
:10232000DB4FB983A883C150D440D6CEC15EDB4F0A
:102330002881CF51D440C05EDB4F3881C052D44099
:10234000CF5DDB4F4881C152D440CE5DDB4F588119
:10235000C252D440602FC35FDB4F7881CD50D44050
:10236000C25FDB4F8881CE50D440912F0E945B1F0B
:102370006B017C01C75EDB4F288139814A815B811B
:10238000C951D440C301B2010E945B1F9B01AC0143
:10239000C701B6010E94461D6B017C01C15EDB4F87
:1023A0002881CF51D440C05EDB4F3881C052D44029
:1023B000CF5DDB4F4881C152D440CE5DDB4F5881A9
:1023C000C252D440C301B2010E945B1F4B015C01A9
:1023D000C75EDB4F288139814A815B81C951D44076
:1023E000602FC35FDB4F7881CD50D440C25FDB4F9D
:1023F0008881CE50D440912F0E945B1FA50194018B
:102400000E94471D2B013C01C15FDB4FA881B981B0
:10241000CF50D4401196C15FDB4FB983A883CF5012
:10242000D440CB5EDB4FE881F981C551D44034966E
:10243000CB5EDB4FF983E883C551D440C35EDB4FED
:1024400028813981CD51D4402C5F3F4FC35EDB4F93
:1024500039832883CD51D4400C2DC35FDB4FD88204
:10246000CD50D440C25FDB4FE882CE50D4401F2D08
:1024700005CEC75FDB4FE881F981C950D440E653F0
:10248000FF4F85919591A591B491C75FDB4FE8818E
:10249000F981C950D440EA57FF4F45915591659154
:1024A0007491C15EDB4F4883CF51D440C05EDB4F97
:1024B0005883C052D440CF5DDB4F6883C152D440B3
:1024C000CE5DDB4F7883C252D4409C01AD015058A1
:1024D000C75EDB4F288339834A835B83C951D4406D
:1024E000C75FDB4F48815981C950D4404C5F5F4F73
:1024F000C75FDB4F59834883C950D440C75DDB4F6A
:1025000088819981C952D440CB5FDB4F99838883FE
:10251000C550D4404C31510509F059CD8101D80145
:102520006D917D918D919D918D01C95FDB4FE8810A
:10253000F981C750D440C190D190E190F190C95F2A
:10254000DB4FF983E883C750D4409B01AC010E9464
:102550005B1F4B015C01A7019601C701B6010E94F8
:102560005B1F9B01AC01C501B4010E94471D0E9485
:10257000CE1FF80134976083718382839383C55F94
:10258000DB4F28813981CB50D4400217130739F62D
:1025900010E000E0712C612C512C412CEE24E394CE
:1025A000F12CD1016D917D918D919D911D018C90AA
:1025B00011969C9011971296CC9012971396DC90DE
:1025C0005701BFEFAB1ABB0A9401A6010E94B31DCD
:1025D00087FF1AC0F1012481358146815781B401FA
:1025E000C6010E94561F18167CF4272D362D452D46
:1025F000542DB401C6010E94561F18162CF48701F1
:10260000782C692C5C2C4D2C7501F1E4AF16B104CB
:1026100041F6180121E0221A20EC320A220C331C68
:10262000220C331CFE01E20DF31D81809280A380F9
:10263000B480FE01E20DF31DC184D284E384F484EE
:10264000A7019601C501B4010E94461D2B013C0162
:10265000FE01E20DF31D65817681878190859B01E6
:10266000AC010E94471D9B01AC01C501B4010E9451
:10267000461DA70196010E94471D9B01AC01C301A5
:10268000B2010E94BD1D20E030E040E05FE30E9407
:102690005B1F6B017C01B80190E080E00E94651E29
:1026A0009B01AC01C701B6010E94471D20E030E04C
:1026B00040E855E40E945B1F0034110501F120E061
:1026C00030E04EEF52E40E94BD1DC45DDB4F0FB6FB
:1026D000F894DEBF0FBECDBFDF91CF911F910F9158
:1026E000FF90EF90DF90CF90BF90AF909F908F9032
:1026F0007F906F905F904F903F902F90089520E0D3
:1027000030E040E05CE30E945B1FDFCF1F920F923E
:102710000FB60F9211242F933F938F939F93AF93F4
:10272000BF938091430290914402A0914502B091E1
:1027300046023091420223E0230F2D3758F50196CF
:10274000A11DB11D20934202809343029093440245
:10275000A0934502B09346028091470290914802AF
:10276000A0914902B0914A020196A11DB11D80932A
:10277000470290934802A0934902B0934A02BF9146
:10278000AF919F918F913F912F910F900FBE0F901E
:102790001F90189526E8230F0296A11DB11DD2CFD8
:1027A0001F920F920FB60F9211242F933F934F93C6
:1027B0005F936F937F938F939F93AF93BF93EF93A9
:1027C000FF938091590290915A02A0915B02B091BF
:1027D0005C02892B8A2B8B2BD1F190915402E091D2
:1027E0005502F09156028081892780838091590299
:1027F00090915A02A0915B02B0915C0218161906E2
:102800001A061B069CF48091590290915A02A091DD
:102810005B02B0915C020197A109B1098093590252
:1028200090935A02A0935B02B0935C02FF91EF91E8
:10283000BF91AF919F918F917F916F915F914F91D8
:102840003F912F910F900FBE0F901F901895809180
:1028500000010E945305EACF1F920F920FB60F920C
:1028600011242F933F934F935F936F937F938F9395
:102870009F93AF93BF93EF93FF9387ED92E00E94F6
:10288000FD05FF91EF91BF91AF919F918F917F9146
:102890006F915F914F913F912F910F900FBE0F90CD
:1028A0001F9018951F920F920FB60F9211242F931D
:1028B0008F939F93EF93FF93E091E702F091E802EB
:1028C0008081E091ED02F091EE0282FD1BC09081CB
:1028D0008091F0028F5F8F732091F102821741F097
:1028E000E091F002F0E0E952FD4F958F8093F00205
:1028F000FF91EF919F918F912F910F900FBE0F90AD
:102900001F9018958081F4CF1F920F920FB60F92EF
:1029100011242F933F934F935F936F937F938F93E4
:102920009F93AF93BF93EF93FF938091B900887FFC
:10293000803609F44AC0F0F5883209F4A7C018F5CA
:10294000803109F49BC0B8F4882309F4F9C08830B9
:1029500009F494C0FF91EF91BF91AF919F918F9136
:102960007F916F915F914F913F912F910F900FBE8B
:102970000F901F901895883109F488C0803251F764
:102980008093AB0214C0803409F49DC040F48033BE
:10299000B9F38833F9F68093AB0285ECB0C080358B
:1029A00009F485C0883509F496C0883499F60E94E8
:1029B0008D0ED0CF883909F48CC038F5883729F0CE
:1029C00050F4883611F0803729F683E08093AD0209
:1029D00010923D0257C0883809F47BC0803919F045
:1029E000803809F0B7CF80913D02803208F071C085
:1029F000E0913D0281E08E0F80933D028091BB000B
:102A0000F0E0E35EFD4F80833DC0803B39F0E0F4B1
:102A1000803A09F479C0883A09F09CCF84E0809329
:102A2000AD0210921C0210921B02E0914002F09144
:102A30004102099580911B0281110FC081E08093B2
:102A40001B021092FB0109C0803C09F4A6CF883C10
:102A500009F4A3CF883B09F07DCFE0911C0281E00F
:102A60008E0F80931C02F0E0E550FE4F8081809332
:102A7000BB0090911C0280911B0229C080918802AA
:102A80008093BB0085EC8093BC0064CF9091AA0238
:102A90008091A902981758F5E091AA0281E08E0F63
:102AA0008093AA02F0E0E757FD4F8081E9CFE091E3
:102AB000AA0281E08E0F8093AA028091BB00F0E011
:102AC000E757FD4F80839091AA028091A902981741
:102AD000C8F285E8D8CFE091AA0281E08E0F8093FA
:102AE000AA028091BB00F0E0E757FD4F8083809100
:102AF000AC0281115CCF81E08093870284EA8093ED
:102B0000BC001092AD0226CF85EC8093BC001092E1
:102B1000AD0280913D02803230F4E0913D02F0E060
:102B2000E35EFD4F108260913D0270E0E0913E0255
:102B3000F0913F028DE192E0099510923D020ACF9B
:102B40001092AB0234CFE7EDF2E01382128248EE2E
:102B500053E060E070E0448355836683778383E4C9
:102B600091E09183808385EC90E09587848784EC65
:102B700090E09787868780EC90E0918B808B81EC4A
:102B800090E0938B828B82EC90E0958B848B86EC2B
:102B900090E0978B868B118E128E138E148EA4E983
:102BA000B3E013961C921E92129714964D935D9368
:102BB0006D937C93179785E591E011969C938E9386
:102BC000EDEAF3E080ED97E097A386A311A610A6A7
:102BD00012A6178A118E12A213A214A215A2148291
:102BE0001582E0EAF3E01486138680E1818380E2B7
:102BF0008083B287A1878CE282831482138215823C
:102C0000168217821086E4E7F3E086EB93E0918367
:102C1000808381EF93E0938382838CE294E09583B9
:102C2000848387E694E09783868382EA94E09187A1
:102C300080878DED94E09387828788E195E0958782
:102C4000848783E595E0978786878EE895E0918B6A
:102C5000808B89EC95E0938B828B84E096E0958B5A
:102C6000848B8FE396E0978B868B8AE796E0918F33
:102C7000808F85EB96E0938F828F80EF96E0958F23
:102C8000848F8BE297E0978F868F0895CF93DF93A1
:102C9000CDB7DEB7EE970FB6F894DEBF0FBECDBF4F
:102CA000789484B5826084BD84B5816084BD85B527
:102CB000826085BD85B5816085BD80916E00816033
:102CC00080936E00109281008091810082608093D9
:102CD00081008091810081608093810080918000DB
:102CE0008160809380008091B10084608093B10006
:102CF0008091B00081608093B00080917A00846000
:102D000080937A0080917A00826080937A0080912B
:102D10007A00816080937A0080917A008068809345
:102D20007A001092C10080E2E5E0F1E09E012F5FA1
:102D30003F4F1901D90101900D928A95E1F7E09179
:102D4000E702F091E80282E08083E091E302F091F3
:102D5000E4021082E091E502F091E60280E18083D6
:102D60001092EF02E091EB02F091EC0286E080839A
:102D7000E091E902F091EA02808180618083E09134
:102D8000E902F091EA02808188608083E091E902A3
:102D9000F091EA02808180688083E091E902F091FD
:102DA000EA0280818F7D808388E0E5E2F1E0DE0148
:102DB000919601900D928A95E1F781E08093B1039D
:102DC0001092B2031092B3038093C40398E09093DF
:102DD000C5031092AD038093AF038093AE031092AE
:102DE000B003FE01B196ACEBB3E0CE018996FDAF26
:102DF000ECAF21912D93E817F907D9F78AA58093B5
:102E0000B40310E08091C4031817A0F4812F90E060
:102E1000AC0143555C4F7A0161E0DA0117968C9161
:102E20000E944D026091AE03F70187810E9401026A
:102E30001F5FE8CF10E08091C503181750F0909104
:102E4000C403E7ECF3E080E09817B9F011928F5FCC
:102E5000FBCF812F90E09C0123553C4F790161E02D
:102E6000D9011F968C910E944D026091B003F70129
:102E700087850E9401021F5FDECF10E08091C403AE
:102E8000181758F4E12FF0E0E355FC4F6091AE03C2
:102E900087810E9401021F5FF1CF6091B003809192
:102EA000BC030E94010210E08091C503181758F47A
:102EB000E12FF0E0E355FC4F6091B00387850E945D
:102EC00001021F5FF1CF6091AE038091B4030E94B5
:102ED000010288E097E09093D4038093D30310928B
:102EE000D6031092D5031092D70361E08CE00E94C4
:102EF0004D0260E08CE00E94010261E08BE00E94E4
:102F00004D0260E08BE00E94010210926602109276
:102F100065021092B4021092D6020E94CE0681E59C
:102F200095E0909341028093400282E595E0909372
:102F30003F0280933E028CE08093B80080EF0E94B5
:102F400092098091A00391E09093B3028093D502FF
:102F50001092B4021092D60281E00E940D078823DD
:102F600029F086EA91E00E948609FFCF62E08FE0B7
:102F70000E944D0260E08FE00E944D0268EC70E01C
:102F800080E090E00E941E05912C812C30E020E032
:102F9000C12CD12C760110E000E067E0462E512CC8
:102FA000612C712C53E0A52EB12CB9016F5F7F4FBE
:102FB000072E000C880B990B0E941E058FE00E94C3
:102FC000E7049C01BC01990F880B990B21703327F2
:102FD00082269326A30192010E94151DFAE0F69F16
:102FE0009001F79F300D112441E0A41AB108E9F6D1
:102FF000A401092C000C660B770B002E04C0440FB3
:10300000551F661F771F0A94D2F7C42AD52AE62ACD
:10301000F72A0F5F1F4F0F31110521F6C114D1049C
:10302000E104F10421F0C701B6010E94DA1CC101DC
:103030000E94890A80914B028A5F80934B02109212
:10304000530280914C029091500290934C028093D5
:10305000500280914D029091510290934D028093C5
:1030600051028EE091E00E947A0986EC91E00E9484
:10307000860987ED91E00E9486098EE091E00E942A
:103080007A0989E0DE019A96BBAFAAAFE82F1D92BC
:10309000EA95E9F7ACADBDAD1D928A95E9F7CE0191
:1030A0008A960E94680E64E0CE018A960E944609C4
:1030B000912CFF24F3940EE444E0842E1EAE5E01B6
:1030C000BAE3AB0EB11CFF2049F18EE393E09920E7
:1030D00019F1E1E082E293E09E16F1F0F2E086E081
:1030E00093E09F16C9F023E08AEE92E09216A1F0D9
:1030F00034E08EEC92E0931679F045E082EB92E0BA
:10310000941651F056E086E992E0951629F087E092
:10311000981204C08AE792E00E947A098FB7F89467
:10312000C0904302D0904402E0904502F0904602E5
:103130008FBF8091A3039091A4030097A1F0B701E2
:10314000A601481B590B610971098091A503909153
:10315000A603A091A703B091A803481759076A07CF
:103160007B0708F4D6C08091A203853309F04EC0D6
:1031700088EF0E949209883F71F410E11093A10337
:10318000C092A503D092A603E092A703F092A803F1
:10319000103121F20BC0803F09F1883E59F1883D82
:1031A00059F1883B59F1883759F111E1E12FF0E0ED
:1031B000E35DFE4FF0809EE4F91671F0A3E2FA168B
:1031C00009F4A9C06F2D87ED92E00E941F0688E7E1
:1031D00092E00E946C060F2DF12C31C210E087E0C6
:1031E0000E949209873049F2863041F2853051F4CD
:1031F0001B5FC4CF11E0F3CF12E0F1CF13E0EFCFAC
:1032000014E0EDCF833089F6165FB8CF8E3361F5C9
:103210008CEF0E9492098C3F09F4AFCF883FD1F028
:10322000843FD1F08C3ED1F08C3DD1F08C3BD1F07D
:103230008C3709F0BACF15E083E00E949209833001
:1032400009F49BCF823009F499CF813009F0ADCFDA
:103250001A5F94CF10E0F0CF11E0EECF12E0ECCF88
:1032600013E0EACF14E0E8CF8135C9F48FEF0E9474
:1032700092098F3F09F481CF8E3FE9F18D3FE9F14B
:103280008B3FE9F1873FE9F18F3EE9F18F3DE9F1AD
:103290008F3BE9F18F3709F088CF17E06FCF80EFD0
:1032A0000E949209803F09F468CF803EA9F0803DDA
:1032B000A9F0803BA9F0803709F077CF13E08FE0C9
:1032C0000E9492098F3009F458CF8E3009F456CFFE
:1032D0008D3041F41C5F52CF10E0F1CF11E0EFCF01
:1032E00012E0EDCF8B3011F4185F48CF873009F032
:1032F0005CCF145F43CF10E041CF11E03FCF12E02D
:103300003DCF13E03BCF14E039CF15E037CF16E0C7
:1033100035CF1FEF4BCF802F0E9486087E01B3E38D
:10332000EB0EF11C67010E94C50E2B013C0120E051
:1033300030E84DE654E40E94B31D87FF04C00E94AC
:10334000C50E2B013C016091920370919303072EEF
:10335000000C880B990B0E94671E9B01AC01C301F6
:10336000B2010E94561F18160CF494C1609190038C
:1033700070919103072E000C880B990B0E94671E19
:103380009B01AC01C301B2010E94561F18160CF438
:1033900083C160918E0370918F03072E000C880B00
:1033A000990B0E94671E9B01AC01C301B2010E94F0
:1033B000561F18160CF472C160918C0370918D0326
:1033C000072E000C880B990B0E94671E9B01AC0115
:1033D000C301B2010E94561F18160CF461C160911E
:1033E0008A0370918B03072E000C880B990B0E94A7
:1033F000671E9B01AC01C301B2010E94561F181643
:103400000CF450C16091880370918903072E000C61
:10341000880B990B0E94671E9B01AC01C301B2018E
:103420000E94561F18160CF43FC1609186037091DC
:103430008703072E000C880B990B0E94671E9B01C7
:10344000AC01C301B2010E94561F18160CF42EC124
:103450006091840370918503072E000C880B990BF3
:103460000E94671E9B01AC01C301B2010E94561F5E
:1034700018160CF41DC16091820370918303072E0E
:10348000000C880B990B0E94671E9B01AC01C301C5
:10349000B2010E94561F18160CF40CC160918003F3
:1034A00070918103072E000C880B990B0E94671EF8
:1034B0009B01AC01C301B2010E94561F18160CF407
:1034C000FBC060917E0370917F03072E000C880B78
:1034D000990B0E94671E9B01AC01C301B2010E94BF
:1034E000561F18160CF4EAC060917C0370917D039E
:1034F000072E000C880B990B0E94671E9B01AC01E4
:10350000C301B2010E94561F18160CF4D9C0609175
:103510007A0370917B03072E000C880B990B0E9495
:10352000671E9B01AC01C301B2010E94561F181611
:103530000CF4C8C06091780370917903072E000CD9
:10354000880B990B0E94671E9B01AC01C301B2015D
:103550000E94561F18160CF4B7C060917603709144
:103560007703072E000C880B990B0E94671E9B01A6
:10357000AC01C301B2010E94561F18160CF4A6C07C
:103580006091740370917503072E000C880B990BE2
:103590000E94671E9B01AC01C301B2010E94561F2D
:1035A00018160CF495C08EE4F60181936F01AE16E7
:1035B000BF0609F0B8CE7BA881E1D1011D928A95A2
:1035C000E9F7F70191917F01ADE2B1E09101F101DD
:1035D0008D91981303C080818F5F808331964EE375
:1035E00051E04A175B07A1F7CE14DF0451F790E0D2
:1035F00080E0D9014D919D01433008F46BC0835D9B
:103600009E4FFC017080E1E2F0E0EC0FFD1FE90D40
:10361000F11D70820E947609672D87ED92E00E946D
:103620001F0687EF91E00E94690963E287ED92E04F
:103630000E941F060E9476099394FF24F39480EF62
:103640000E9492098F3F11F0803FC9F76AE070E055
:1036500080E090E00E941E0580EF0E9492098F3F5B
:1036600011F0803FC9F7DEAC89104EC09E01265D87
:103670003F4F7901D901FE01B196DD24D3948E2FFD
:103680003CAD831B881560F591918D919817B9F326
:10369000D12CF5CF84E488CF83E286CF80E384CF3A
:1036A0008AE282CF83E480CF89E37ECF88E37CCF38
:1036B00087E37ACF82E478CF86E376CF85E374CF51
:1036C00084E372CF81E470CF83E36ECF82E36CCF6B
:1036D00081E36ACF01968131910509F08ACF93CFBA
:1036E000D11014C087E592E00E947A09CE018A9633
:1036F0000E94680E64E0CE018A960E944609912CD1
:10370000FF24F39434E0832EDEAEDDCC4EAD4111C8
:1037100019C08AE192E00E947A09EBE4F2E081911B
:10372000D7018D937D01B2E0E335FB07C1F71AAAFB
:1037300068E0CE018A960E944609FD2C912C28E073
:10374000822EE2CF0E9476090E94760989E591E0F7
:103750000E947A098BEE91E00E947A0982EF91E053
:103760000E9469098BE492E00E94860982EA91E056
:103770000E947A090E9476090E94760994E1E92E56
:10378000F12C40E050E0BA0188EB91E00E94890200
:1037900064E670E080E090E00E941E0540E050E0AA
:1037A000BA018EEE91E00E94890264E670E080E04A
:1037B00090E00E941E0540E050E0BA018BE092E0EC
:1037C0000E94890264E670E080E090E00E941E059D
:1037D00040E050E0BA018BE492E00E94890264E686
:1037E00070E080E090E00E941E0540E050E0BA01E9
:1037F00083E992E00E94890264E670E080E090E054
:103800000E941E0540E050E0BA018AEB92E00E945F
:10381000890264E670E080E090E00E941E0540E0CE
:1038200050E0BA0180E193E00E94890264E670E012
:1038300080E090E00E941E058AE00E94530564E645
:1038400070E080E090E00E941E05E1E0EE1AF108D1
:1038500009F097CF68EE73E080E090E00E941E05CB
:10386000CE018A960E94680E64E0CE018A960E947C
:103870004609FEAC912C84E0882ED12C45CF8F9246
:103880009F92AF92BF92CF92DF92EF92FF92CF932F
:10389000DF93EC01688179818A819B8161157105D3
:1038A0008105910521F464E279ED8BE597E02DE146
:1038B00033EF41E050E00E94E31C49015A019B01B3
:1038C000AC01A7EAB1E40E94021D6B017C01ACEEE1
:1038D000B4EFA50194010E94101DC60ED71EE81E6C
:1038E000F91EF7FE06C081E0C81AD108E10880E899
:1038F000F80AC882D982EA82FB82C701B6019F77A3
:10390000DF91CF91FF90EF90DF90CF90BF90AF907D
:103910009F908F9008958F929F92AF92BF92CF9277
:10392000DF92EF92FF92609101017091020180910C
:10393000030190910401611571058105910521F440
:1039400064E279ED8BE597E02DE133EF41E050E063
:103950000E94E31C49015A019B01AC01A7EAB1E4B2
:103960000E94021D6B017C01ACEEB4EFA501940135
:103970000E94101DC60ED71EE81EF91EF7FE06C0D7
:1039800081E0C81AD108E10880E8F80AC092010174
:10399000D0920201E0920301F0920401C701B60146
:1039A0009F77FF90EF90DF90CF90BF90AF909F9068
:1039B0008F90089560930101709302018093030139
:1039C000909304010895052E97FB1EF400940E9425
:1039D000FA1C57FD07D00E94151D07FC03D04EF4BA
:1039E0000C94FA1C50954095309521953F4F4F4FC0
:1039F0005F4F089590958095709561957F4F8F4F9B
:103A00009F4F08950E94371DA59F900DB49F900D64
:103A1000A49F800D911D11240895B7FF0C94021DE1
:103A20000E94021D821B930B0895A1E21A2EAA1B6D
:103A3000BB1BFD010DC0AA1FBB1FEE1FFF1FA2175E
:103A4000B307E407F50720F0A21BB30BE40BF50B5B
:103A5000661F771F881F991F1A9469F760957095E4
:103A6000809590959B01AC01BD01CF010895A29F67
:103A7000B001B39FC001A39F700D811D1124911D42
:103A8000B29F700D811D1124911D08955058BB27C0
:103A9000AA270E945E1D0C94081F0E94CF1E38F0BA
:103AA0000E94D61E20F039F49F3F19F426F40C949E
:103AB000CC1E0EF4E095E7FB0C94C61EE92F0E9485
:103AC0002D1F58F3BA17620773078407950720F074
:103AD00079F4A6F50C944F1F0EF4E0950B2EBA2F37
:103AE000A02D0B01B90190010C01CA01A001112404
:103AF000FF27591B99F0593F50F4503E68F11A16B0
:103B0000F040A22F232F342F4427585FF3CF469540
:103B100037952795A795F0405395C9F77EF41F1662
:103B2000BA0B620B730B840BBAF09150A1F0FF0F2C
:103B3000BB1F661F771F881FC2F70EC0BA0F621F18
:103B4000731F841F48F4879577956795B795F79508
:103B50009E3F08F0B0CF9395880F08F09927EE0F9D
:103B60009795879508950E94A21E08F481E0089514
:103B70000E94DF1EE3950C94191F0E94D11D0C9426
:103B8000081F0E94D61E58F00E94CF1E40F029F454
:103B90005F3F29F00C94C61E51110C94501F0C94D9
:103BA000CC1E0E942D1F68F39923B1F3552391F386
:103BB000951B550BBB27AA2762177307840738F09C
:103BC0009F5F5F4F220F331F441FAA1FA9F335D0F9
:103BD0000E2E3AF0E0E832D091505040E695001CAD
:103BE000CAF72BD0FE2F29D0660F771F881FBB1F67
:103BF000261737074807AB07B0E809F0BB0B802D45
:103C0000BF01FF2793585F4F3AF09E3F510578F070
:103C10000C94C61E0C94501F5F3FE4F3983ED4F3FF
:103C2000869577956795B795F7959F5FC9F7880F44
:103C3000911D9695879597F90895E1E0660F771F96
:103C4000881FBB1F621773078407BA0720F0621B27
:103C5000730B840BBA0BEE1F88F7E09508950E9452
:103C6000361E6894B1110C94501F08950E94351FA0
:103C700088F09F5798F0B92F9927B751B0F0E1F02D
:103C8000660F771F881F991F1AF0BA95C9F714C0DD
:103C9000B13091F00E944F1FB1E008950C944F1F76
:103CA000672F782F8827B85F39F0B93FCCF3869516
:103CB00077956795B395D9F73EF490958095709573
:103CC00061957F4F8F4F9F4F0895E89409C097FBF0
:103CD0003EF490958095709561957F4F8F4F9F4FE3
:103CE0009923A9F0F92F96E9BB279395F695879527
:103CF00077956795B795F111F8CFFAF4BB0F11F4EA
:103D000060FF1BC06F5F7F4F8F4F9F4F16C0882390
:103D100011F096E911C0772321F09EE8872F762FC6
:103D200005C0662371F096E8862F70E060E02AF007
:103D30009A95660F771F881FDAF7880F96958795F3
:103D400097F90895990F0008550FAA0BE0E8FEEFC8
:103D500016161706E807F907C0F012161306E4074F
:103D6000F50798F0621B730B840B950B39F40A2648
:103D700061F0232B242B252B21F408950A2609F426
:103D8000A140A6958FEF811D811D089597F99F672A
:103D900080E870E060E008959FEF80EC08950024D3
:103DA0000A941616170618060906089500240A94A0
:103DB000121613061406050608950C94CC1E0E94D4
:103DC000351FD8F3E894E0E0BB279F57F0F02AEDC9
:103DD0003FE049EC06C0EE0FBB0F661F771F881F40
:103DE00028F0B23A62077307840728F0B25A620BD0
:103DF000730B840BE3959A9572F7803830F49A959B
:103E0000BB0F661F771F881FD2F790480C941020B5
:103E1000092E0394000C11F4882352F0BB0F40F4D8
:103E2000BF2B11F460FF04C06F5F7F4F8F4F9F4F18
:103E30000895EF93E0FF07C0A2EA2AED3FE049ECC6
:103E40005FEB0E945E1D0E94081F0F90039401FC0F
:103E50009058E8E6F0E00C94232057FD9058440F6A
:103E6000551F59F05F3F71F04795880F97FB991FD9
:103E700061F09F3F79F08795089512161306140696
:103E8000551FF2CF4695F1DF08C016161706180623
:103E9000991FF1CF86957105610508940895E894FE
:103EA000BB2766277727CB0197F908950E94A21EAA
:103EB00008F48FEF08950E946E1F0C94081F0E9453
:103EC000CF1E38F00E94D61E20F0952311F00C94DE
:103ED000C61E0C94CC1E11240C94501F0E942D1F42
:103EE00070F3959FC1F3950F50E0551F629FF0014D
:103EF000729FBB27F00DB11D639FAA27F00DB11D66
:103F0000AA1F649F6627B00DA11D661F829F2227EE
:103F1000B00DA11D621F739FB00DA11D621F839F75
:103F2000A00D611D221F749F3327A00D611D231F4B
:103F3000849F600D211D822F762F6A2F11249F5799
:103F400050409AF0F1F088234AF0EE0FFF1FBB1F9C
:103F5000661F771F881F91505040A9F79E3F51055B
:103F600080F00C94C61E0C94501F5F3FE4F3983E03
:103F7000D4F3869577956795B795F795E7959F5F05
:103F8000C1F7FE2B880F911D9695879597F9089597
:103F900019F416F40C94CC1E0C940E200E94351FBC
:103FA000B8F39923C9F3B6F39F57550B87FF0E94C7
:103FB0001C200024A0E640EA900180585695979571
:103FC00028F4805C660F771F881F20F026173707BC
:103FD000480730F4621B730B840B202931294A2BCC
:103FE000A69517940794202531254A2758F7660F80
:103FF000771F881F20F026173707480730F4620B19
:10400000730B840B200D311D411DA09581F7B90163
:10401000842F9158880F9695879508959F3F31F08A
:10402000915020F4879577956795B795880F911DE6
:104030009695879597F9089591505040660F771F90
:10404000881FD2F708959F938F937F936F93FF9369
:10405000EF939B01AC010E945B1FEF91FF910E94C7
:1040600037202F913F914F915F910C945B1FDF930D
:10407000CF931F930F93FF92EF92DF927B018C01FE
:10408000689406C0DA2EEF010E946E1FFE01E894CC
:10409000A5912591359145915591A6F3EF010E9487
:1040A0005E1DFE019701A801DA9469F7DF90EF9099
:1040B000FF900F911F91CF91DF91089597FB072EED
:1040C00016F4009407D077FD09D00E94782007FCF1
:1040D00005D03EF4909581959F4F08957095619518
:1040E0007F4F0895EE0FFF1F0590F491E02D099486
:1040F000AA1BBB1B51E107C0AA1FBB1FA617B7070E
:1041000010F0A61BB70B881F991F5A95A9F7809529
:0C4110009095BC01CD010895F894FFCFFC
:10411C00FF01000000103E78BDE0AB71BE69A60641
:10412C00C10ED3344119A4D53F9A2A2C3E453FC326
:10413C00C0B532D83F0605020304070809313233F3
:10414C004134353642373839432A3023444E000047
:10415C000000001F067F05AC058706DD05BB05CFFB
:10416C000500000000540827088308FD0720080DEF
:10417C0008FE070D0A004F62667573636174696F00
:10418C006E20697320696E76616C69642E20506CA8
:10419C006561736520636F6E74616374206368611D
:1041AC006C6C656E67652061646D696E69737472A1
:1041BC0061746F722E000A63616E6E6F7420636F90
:1041CC006D6D756E696361746520746F206B6579B4
:1041DC007061642E0A004D697373696F6E3A2042E8
:1041EC006C7565626F780043616E20796F75207213
:1041FC0065706561742074686520736F756E647387
:0A420C003F00466C61673A20000095
:00000001FF
