:100000000C94D6010C94FE010C94FE010C94FE019C
:100010000C94FE010C94FE010C94FE010C94CF1381
:100020000C94FE010C94FE010C94FE010C94FE0154
:100030000C94FE010C94FE010C94FE010C94FE0144
:100040000C9485130C94FE010C9451140C942B14F5
:100050000C94FE010C94FE010C94FE010C94FE0124
:100060000C9483140C94FE0105A84CCDB2D44EB967
:100070003836A9020C50B9918688083CA6AAAA2A4B
:10008000BE000000803F00000000F304353F5E83A7
:100090006C3FBE147B3F6DC47E3F0FB17F3F43EC8E
:1000A0007F3F11FB7F3FC4FE7F3FB1FF7F3FECFFEF
:1000B0007F3FFBFF7F3FFFFF7F3F0000803F00004F
:1000C000803F0000803F0000803F0000803FF3043D
:1000D000353F15EFC33EC2C5473E36BDC83D30FB78
:1000E000483DB00AC93C900E493C880FC93BC60F39
:1000F000493BD60FC93AD90F493ADB0FC939DB0F53
:100100004939DB0FC938DB0F4938BF0FC9372F2AF0
:100110002A2A2A2A2A2A2A2A2A2A2A2A2A2A2A2A3F
:100120002A2A2A2A2A2A2A2A2A2A2A2A2A2A2A2A2F
:100130002A2A2A2A2A2A2A2A2A2A2A2A2A2A2A2A1F
:100140002A2A2A2A2A2A2A2A2A2A2A2A2A2A2A2A0F
:100150002A2A2A2A2A2A2A2F002F2A2A2A2A2A2A1F
:100160002A2A2A2A2A2A2A2A2A2A2A2A2A2A202003
:10017000594F552042454154205448452043484159
:100180004C4C454E47452121212020202A2A2A2A4D
:100190002A2A2A2A2A2A2A2A2A2A2A2A2A2A2A2ABF
:1001A0002F002F2A2A2A2A2A2A2A2A2A2A2A2A2ACF
:1001B0002A2A2A2A2A2A2A202020202020202020F9
:1001C00020436F6E677261747321212120202020EB
:1001D00020202020202A2A2A2A2A2A2A2A2A2A2AB1
:1001E0002A2A2A2A2A2A2A2A2A2F00436F6E67726D
:1001F0006174732120506C656173652061646420B3
:1002000074686520666C616720746F20746865206F
:100210007265706F72742E2E2E00436F6E6772615E
:100220007473206F6E2070617373696E67207468D9
:100230006520666972737420706861736521204E51
:100240006F7720706C61696E672074686520666CDA
:1002500061672E2E2E00496E636F72726563742083
:1002600050696E2E20506C65617365205472792040
:10027000616761696E2E00200050726573732038CB
:100280007468204B657920666F6C6C6F77656420AD
:100290006279202300507265737320377468204B95
:1002A000657920666F6C6C6F7765642062792023B6
:1002B00000507265737320367468204B6579206630
:1002C0006F6C6C6F776564206279202300507265D3
:1002D000737320357468204B657920666F6C6C6F82
:1002E000776564206279202300507265737320342F
:1002F0007468204B657920666F6C6C6F776564203D
:100300006279202300507265737320337264204B2E
:10031000657920666F6C6C6F776564206279202345
:1003200000507265737320326E64204B65792066CD
:100330006F6C6C6F77656420627920230050726562
:10034000737320317374204B657920666F6C6C6F0A
:1003500077656420627920230000000000240027D4
:10036000002A00000000080002010000030407004A
:10037000000000000000000102040810204080017D
:1003800002040810200102040810200000000025CB
:100390000028002B000404040404040404020202E4
:1003A00002020203030303030302A21511241FBE6A
:1003B000CFEFD8E0DEBFCDBF11E0A0E0B1E0E0E2DA
:1003C000F1E402C005900D92AE3DB107D9F723E0EC
:1003D000AEEDB1E001C01D92AC3BB207E1F711E018
:1003E000C6EDD1E004C02197FE010E947420C53DF6
:1003F000D107C9F70E9445160C948E200C9400007A
:1004000090E0FC01ED59FC4F2491FC01E958FC4FB0
:100410003491FC01EB56FC4FE491EE23C9F022230A
:1004200039F0233001F1A8F4213019F1223029F1FB
:10043000F0E0EE0FFF1FE557FC4FA591B4918FB789
:10044000F894EC91611126C030953E233C938FBF08
:1004500008952730A9F02830C9F0243049F7809159
:1004600080008F7D03C0809180008F778093800013
:10047000DFCF84B58F7784BDDBCF84B58F7DFBCF95
:100480008091B0008F778093B000D2CF8091B00080
:100490008F7DF9CF3E2BDACFCF93DF9390E0FC0135
:1004A000E958FC4F24918B569C4FFC018491882382
:1004B000C9F090E0880F991FFC01E75AFC4FA59105
:1004C000B491FC01E557FC4FC591D49161110DC069
:1004D0009FB7F8948C91209582238C938881282350
:1004E00028839FBFDF91CF910895623051F49FB769
:1004F000F8943C91822F809583238C93E8812E2B56
:10050000EFCF8FB7F894EC912E2B2C938FBFEACFBF
:100510004F925F926F927F928F929F92AF92BF9213
:10052000CF92DF92EF92FF920F931F93CF93DF93BF
:1005300000D000D01F92CDB7DEB78C012A013B015D
:10054000809100018A30C9F08F3F09F47FC00F907D
:100550000F900F900F900F90DF91CF911F910F91FF
:10056000FF90EF90DF90CF90BF90AF909F908F90D3
:100570007F906F905F904F900895E9EAF3E0849147
:100580008D8387FDE4CF61E08AE00E944C028D817B
:10059000882321F09D81923009F05CC14801B12C83
:1005A000A12C60E072E18AE790E0A50198010E9429
:1005B000E51C29833A834B835C8369017A0181E0DE
:1005C000C81AD108E108F1089FEFC916D104E10467
:1005D000F10409F00CF413C160E472E48FE090E0E0
:1005E000A50198010E94E51C69017A0181E0C81A01
:1005F000D108E108F1089D81923009F098C08FEF91
:10060000C816D104E104F10409F00CF4DDC160E97D
:1006100070ED83E090E0A50198010E94E51C69015E
:100620007A0191E0C91AD108E108F1088FEFC816E4
:10063000D104E104F10411F00CF0A3C183E0909126
:10064000B100987F892B8093B100E1C08AE080934C
:100650000001E9EAF3E094919D839F3F09F477CF8D
:10066000913029F158F0923009F43FC08D8187FD17
:100670006ECF61E08AE00E944C028CCF14BC15BCA6
:1006800084B5826084BD85B5816085BDEFE9F3E006
:10069000E491F0E0EE0FFF1FE557FC4F8591949138
:1006A000E1E8F3E0E491E0933C021D826CCF10920C
:1006B0008000109281008091810088608093810089
:1006C00080918100816080938100EFE9F3E0E49103
:1006D000F0E0EE0FFF1FE557FC4F85919491E1E8A4
:1006E000F3E0E491E0933B024ECF1092B000109201
:1006F000B1008091B00082608093B0008091B10021
:1007000081608093B100EFE9F3E0E491F0E0EE0F57
:10071000FF1FE557FC4F8591949190933A02809387
:100720003902E1E8F3E0E491E09338022CCF9FEF47
:10073000C916D104E104F10409F00CF489C068E49D
:1007400078EE81E090E0A50198010E94E51C690126
:100750007A0181E0C81AD108E108F1089D81992346
:1007600009F428C19FEFC916D104E104F10409F08E
:100770000CF41EC162E17AE780E090E0A5019401EB
:100780000E94E51C69017A0181E0C81AD108E108DC
:10079000F1089D81992309F4EBC08FEFC816D104AD
:1007A000E104F10411F008F0BFC086E048CF64E234
:1007B00074EF80E090E0A50194010E94E51C6901BE
:1007C0007A0181E0C81AD108E108F10885E09FEFBD
:1007D000C916D104E104F10409F008F430CF62E154
:1007E0007AE780E090E0A50194010E94E51C690190
:1007F0007A0191E0C91AD108E108F108CECF81E071
:100800009D8191111CCF95B5987F892B85BD2FEFC8
:100810003FEFA901411451046104710409F043C080
:100820009D81913009F45EC0923009F46DC0911140
:100830008ECEC7BC209345023093460240934702B8
:100840005093480280916E00826080936E007FCE4C
:1008500082E0D6CFB12CA12C60E072E18AE790E073
:10086000A50198010E94E51C69017A0181E0C81A7E
:10087000D108E108F108C114D10491E0E906F104BE
:1008800004F591E08D81813011F680918100887F9F
:10089000892B809381002FEF3FEFA9014114510470
:1008A00061047104F9F0D801AA0FBB1FA3019201E2
:1008B0000E94041D28EE33E040E050E00E94171D26
:1008C000AFCF68E478EE81E090E0A50198010E9446
:1008D000E51C69017A0181E0C81AD108E108F10834
:1008E00093E0D0CFD0928900C0928800209341023B
:1008F00030934202409343025093440280916F0030
:10090000826080936F0023CEC092B30020933D029B
:1009100030933E0240933F0250934002809170001A
:1009200082608093700013CEC980DA80EB80FC80F7
:100930009AE0F594E794D794C7949A95D1F791E00B
:10094000C91AD108E108F10887E079CEC980DA80B8
:10095000EB80FC808AE0F594E794D794C7948A955D
:10096000D1F791E0C91AD108E108F10885E04BCF31
:100970008FEFC816D104E104F10409F038F784E0E0
:1009800042CF68E478EE81E090E0A50198010E94F2
:10099000E51C69017A0191E0C91AD108E108F10862
:1009A0008FEFC816D104E104F10411F00CF0FFCE72
:1009B00084E045CE8FEFC816D104E104F10411F0B4
:1009C0000CF0D8CE83E01FCF82E039CE8E50806409
:1009D00080937C0080917A00806480937A0080917B
:1009E0007A0086FDFCCF809178009091790008957F
:1009F0003FB7F89480912B0290912C02A0912D0288
:100A0000B0912E0226B5A89B05C02F3F19F0019684
:100A1000A11DB11D3FBFBA2FA92F982F8827BC0158
:100A2000CD01620F711D811D911D42E0660F771F80
:100A3000881F991F4A95D1F708958F929F92AF9280
:100A4000BF92CF92DF92EF92FF926B017C010E94E6
:100A5000F8044B015C01C114D104E104F104B9F0C4
:100A60000E94F804681979098A099B09683E734055
:100A70008105910580F321E0C21AD108E108F1084F
:100A800088EE880E83E0981EA11CB11CE4CFFF9075
:100A9000EF90DF90CF90BF90AF909F908F90089590
:100AA000089508959091000189130BC0E9EAF3E0DD
:100AB000E4919FEF90930001E13049F028F0E2309B
:100AC00061F060E00C94000210926E00FACF9091F9
:100AD0006F009D7F90936F00F4CF909170009D7F89
:100AE0009093700091E09093B0009091B100987F46
:100AF00094609093B1001092B300E3CFAF92BF9295
:100B0000CF92DF92EF92FF920F931F93CF93DF93D9
:100B10006C017B018B01040F151FEB015E01AE1808
:100B2000BF08C017D10759F06991D601ED91FC912A
:100B30000190F081E02DC6010995892B79F7C50157
:100B4000DF91CF911F910F91FF90EF90DF90CF90A9
:100B5000BF90AF900895FC01538D448D252F30E058
:100B6000842F90E0821B930B541710F0CF960895BA
:100B700001970895FC01918D828D981761F0A28DE7
:100B8000AE0FBF2FB11D5D968C91928D9F5F9F73AD
:100B9000928F90E008958FEF9FEF0895FC01918D63
:100BA000828D981731F0828DE80FF11D858D90E0D0
:100BB00008958FEF9FEF0895FC01918D228D892F6D
:100BC00090E0805C9F4F821B91098F739927089555
:100BD0008BEB92E00E94DC0521E0892B09F420E0F8
:100BE000822F089580E090E0892B29F00E94E8058B
:100BF00081110C9400000895FC01A48DA80FB92F59
:100C0000B11DA35ABF4F2C91848D90E001968F7334
:100C10009927848FA689B7892C93A089B1898C9153
:100C2000837080648C93938D848D981306C00288A2
:100C3000F389E02D80818F7D80830895EF92FF926C
:100C40000F931F93CF93DF93EC0181E0888F9B8DEF
:100C50008C8D98131AC0E889F989808185FF15C0A9
:100C60009FB7F894EE89FF896083E889F9898081CC
:100C70008370806480839FBF81E090E0DF91CF919B
:100C80001F910F91FF90EF900895F62E0B8D10E0BD
:100C90000F5F1F4F0F731127E02E8C8D8E110CC02C
:100CA0000FB607FCFACFE889F989808185FFF5CF77
:100CB000CE010E94FC05F1CFEB8DEC0FFD2FF11D55
:100CC000E35AFF4FF0829FB7F8940B8FEA89FB89B4
:100CD00080818062CFCF0F931F93CF93DF938C01DE
:100CE000D0E0C0E0F801EC0FFD1F6491662341F0F5
:100CF0008BEB92E00E941E06892B11F02196F2CF19
:100D0000CE01DF91CF911F910F910895CF93DF9383
:100D1000EC01888D8823B9F0AA89BB89E889F98913
:100D20008C9185FD03C0808186FD0DC00FB607FC48
:100D3000F7CF8C9185FFF2CF808185FFEDCFCE017B
:100D40000E94FC05E9CFDF91CF9108952091FF012A
:100D5000260F3327331F21323105ECF42091910205
:100D6000FC0190E080E0243069F082E00895A091D9
:100D7000FF012191AC0141525E4FA40FB52FB11D6F
:100D80002C930196861798F38091FF01680F60936A
:100D9000FF0180E0089581E008951092910281E0C2
:100DA0008093900210926B0261E082E10E94000247
:100DB00061E083E10E940002E9EBF0E080818E7F38
:100DC000808380818D7F808388E48093B80085E470
:100DD0008093BC000895CF93DF9391E09093DE0160
:100DE0008823B9F0C091B800D091BA008091BC00BE
:100DF0008A7B8093BC0060E082E10E94000260E098
:100E000083E10E9400020E94CD06D093BA00C093F5
:100E1000B800DF91CF9108958F929F92AF92BF92C9
:100E2000CF92DF92EF92FF920F931F93CF93DF93B6
:100E3000D091BA02D13208F0D7C0182FC091B902B0
:100E40000E94F8046B017C018091910281116BC0BA
:100E500082E080939102109390028FEF80938F0233
:100E600010928E02D0938D02A9E9B2E0EDE6F2E095
:100E700080E0D81391C010926C0280916C02CC0F6C
:100E8000C82BC0936C0280916B02813009F088C03E
:100E900010926B020E94F8046B017C0180916C023D
:100EA0008093BB008091930290919402A09195024F
:100EB000B0919602892B8A2B8B2BA1F00E94F8040B
:100EC0000091930210919402209195023091960224
:100ED0006C197D098E099F0906171707280739071E
:100EE00008F442C08091BC0083FDD8CF85EC80938C
:100EF000BC000E94F8046B017C0180919102823059
:100F000009F450C080918F028F3F09F46FC0809127
:100F10008F02803209F46CC080918F02803309F413
:100F200069C084E026C08091930290919402A091C0
:100F30009502B0919602892B8A2B8B2B09F484CFD2
:100F40000E94F8048090930290909402A0909502E1
:100F5000B09096026C197D098E099F098616970636
:100F6000A806B90608F070CF809192020E94EB06A5
:100F700085E0109298021092BA0210929702DF91C7
:100F8000CF911F910F91FF90EF90DF90CF90BF9086
:100F9000AF909F908F9008959D9191938F5F69CFAF
:100FA00085EEA5CF8091930290919402A091950235
:100FB000B0919602892B8A2B8B2B09F49ECF0E942D
:100FC000F8040091930210919402209195023091BF
:100FD00096026C197D098E099F09061717072807C5
:100FE000390708F08ACFC0CF81E0C3CF80E0C1CFFE
:100FF00082E0BFCF83E0BDCF0895E0914A028091A7
:101000004902E81730F4F0E0E55BFD4F808190E0A5
:1010100008958FEF9FEF089590914A0280914902C1
:101020002FEF3FEF981748F4E92FF0E0E55BFD4F15
:10103000208130E09F5F90934A02C901089580911A
:10104000490290914A02891B990B0895CF92DF9231
:10105000EF92FF920F931F93CF93DF937C01CB010D
:101060008A0120919702222389F0EB016B01C40EC3
:10107000D51ECC15DD0569F06991D701ED91FC9184
:101080000190F081E02DC7010995F3CF642F0E94F4
:10109000A606C801DF91CF911F910F91FF90EF90AD
:1010A000DF90CF900895CF93DF931F92CDB7DEB737
:1010B0006983209197022223F9F02091BA0220320D
:1010C00058F021E030E0FC013383228390E080E09F
:1010D0000F90DF91CF91089580919802E82FF0E072
:1010E000E756FD4F998190838F5F8093980280939C
:1010F000BA0281E090E0ECCF61E0CE0101960E945F
:10110000A606F7CF90E080E00895EDEDE80FE2321B
:1011100008F0BAC00E2E000CFF0BEF56F74F0C94E0
:101120007420320944094409440944094409440922
:101130003B0944094409440944094409B308BD086A
:10114000C608CF08D808E108EA08F308FC08050932
:1011500044094409440944094409440944090E095D
:1011600017092009290944E853E060E070E0809104
:101170007203909173030C94880244E853E060E09A
:1011800070E08091580390915903F5CF44E853E003
:1011900060E070E080915A0390915B03ECCF44E8EB
:1011A00053E060E070E080915C0390915D03E3CFD9
:1011B00044E853E060E070E0809160039091610347
:1011C000DACF44E853E060E070E0809162039091F0
:1011D0006303D1CF44E853E060E070E080916403A2
:1011E00090916503C8CF44E853E060E070E08091DF
:1011F000680390916903BFCF44E853E060E070E07A
:1012000080916A0390916B03B6CF44E853E060E0AD
:1012100070E080916C0390916D03ADCF44E853E092
:1012200060E070E080915E0390915F03A4CF44E89A
:1012300053E060E070E080916603909167039BCF7C
:1012400044E853E060E070E080916E0390916F039A
:1012500092CF44E853E060E070E080917603909193
:10126000770389CF44E853E060E070E08091740335
:101270009091750380CF44E853E060E070E0809186
:1012800070039091710377CF0895EF92FF920F93BF
:101290001F93CF93DF937C01EC01062F10E0CE016A
:1012A0008E199F098017910754F489910E9485082F
:1012B00064EF71E080E090E00E941D05F0CF8AE0CD
:1012C000DF91CF911F910F91FF90EF900C945205F9
:1012D000FC0101900020E9F73197AF01481B590B41
:1012E000BC018BEB92E00C947E0583E691E00C94BC
:1012F0006809CF93DF930E946B06EC010E94750989
:101300008C0F9D1FDF91CF910895CF93DF930E94A3
:101310006809EC010E9475098C0F9D1FDF91CF9128
:101320000895CF92DF92EF92FF920F931F93CF9386
:10133000DF93A0918D03B0918E039091840321E0FF
:10134000209397029093B902109298021092BA02D9
:10135000ED91FC9111970190F081E02D682FCD0166
:10136000099581E00E940C07C82F8FEFC111A1C021
:10137000D09184030E94F8046B017C01809191025A
:10138000811163C081E080939102809390029FEF6E
:1013900090938F0210928E0210928D0280936C02B5
:1013A00080916C02DD0FD82BD0936C0280916B0280
:1013B000813009F087C010926B020E94F8046B0123
:1013C0007C0180916C028093BB008091930290918C
:1013D0009402A0919502B0919602892B8A2B8B2BB7
:1013E000A1F00E94F80400919302109194022091C0
:1013F0009502309196026C197D098E099F09061796
:1014000017072807390708F441C08091BC0083FD05
:10141000D8CF85EC8093BC000E94F8046B017C015E
:1014200080919102813009F44FC080918E02811128
:101430006DC080918E02EDE6F2E0ABE4B2E0C81739
:1014400049F191919D93CF5FFACF80919302909152
:101450009402A0919502B0919602892B8A2B8B2B36
:1014600009F48CCF0E94F804009193021091940229
:1014700020919502309196026C197D098E099F0981
:10148000061717072807390708F078CF80919202CE
:101490000E94EB0610924A02C093490280918D038C
:1014A00090918E03DC01ED91FC910284F385E02D97
:1014B0000995DF91CF911F910F91FF90EF90DF90F1
:1014C000CF90089585EEA6CF8091930290919402DB
:1014D000A0919502B0919602892B8A2B8B2B09F44F
:1014E0009FCF0E94F80400919302109194022091E2
:1014F0009502309196026C197D098E099F09061795
:1015000017072807390708F08BCFC0CF81E093CFAA
:101510002F923F924F925F926F927F928F929F9203
:10152000AF92BF92CF92DF92EF92FF920F931F93F1
:10153000CF93DF93CDB7DEB7CA58D1400FB6F8943A
:10154000DEBF0FBECDBFCB57DE4F99838883C55812
:10155000D1402DB73EB7C957DE4F39832883C758CE
:10156000D14081E093E2A5E4B7E6CF59DE4F88830E
:101570009983AA83BB83C156D14089E89BEAADEC2D
:10158000BFEECB59DE4F88839983AA83BB83C556B0
:10159000D1408EEF9CEDAAEBB8E9C759DE4F8883A6
:1015A0009983AA83BB83C956D14086E794E5A2E319
:1015B000B0E1C359DE4F88839983AA83BB83CD569C
:1015C000D14080EF91EEA2EDB3ECCF58DE4F88838F
:1015D0009983AA83BB83C157D1408DB79EB78054EE
:1015E00091090FB6F8949EBF0FBE8DBFEDB7FEB741
:1015F00031968F5B9F4FDF011D921D921D921D92B0
:101600008A179B07C9F7209191038091920390E07C
:10161000B0E0A0E0DC0199278827B22B90684081D8
:10162000518162817381842B952BA62BB72B8083EC
:101630009183A283B38380E190E0A0E0B0E084AF27
:1016400095AFA6AFB7AFAE014F5F5F4F80E491E0BB
:10165000DA019C011D9221503040E1F7C158DE4F64
:1016600059834883CF57D140C757DE4FF983E8836A
:10167000C958D1401E013FE3231A310880EF91EE93
:10168000A2EDB3ECCF57DE4F88839983AA83BB8347
:10169000C158D14081E093E2A5E4B7E6C558DE4FDA
:1016A00088839983AA83BB83CB57D14089E89BEA7F
:1016B000ADECBFEECB58DE4F88839983AA83BB8302
:1016C000C557D14006E714E522E330E18EEFC82E7E
:1016D0008CEDD82E8AEBE82E88E9F82EC758DE4F1D
:1016E0001882C957D140C758DE4F9881C957D14099
:1016F000903108F047C2C757DE4FE881F981C958D9
:10170000D14080819181A281B381C158DE4FE881AF
:10171000F981CF57D14080839183A283B383B701EE
:10172000A6014027512762277327CB58DE4F8881B7
:101730009981AA81BB81C557D140482359236A2387
:101740007B234027512762277327B9E98B2EB9E7FE
:101750009B2EB2E8AB2EBAE5BB2EC558DE4F4880B3
:1017600059806A807B80CB57D140EBE176946794B7
:1017700057944794EA95D1F7C558DE4F88819981EF
:10178000AA81BB81CB57D140F5E0880F991FAA1FD2
:10179000BB1FFA95D1F784299529A629B729C158E5
:1017A000DE4FE881F981CF57D1404190519061904F
:1017B0007190C158DE4FF983E883CF57D140840D33
:1017C000951DA61DB71D840F951FA61FB71F880D59
:1017D000991DAA1DBB1DCF57DE4F88809980AA8016
:1017E000BB80C158D140880E991EAA1EBB1ECB5883
:1017F000DE4F88819981AA81BB81C557D14042E0E3
:10180000B695A795979587954A95D1F7CB58DE4F12
:10181000488059806A807B80C557D1405EE1440C86
:10182000551C661C771C5A95D1F7482A592A6A2AF2
:101830007B2AC758DE4FF881C957D140FF5FC75890
:10184000DE4FF883C957D140C757DE4F8881998151
:10185000C958D1400496C757DE4F99838883C95829
:10186000D14094E0290E311CC558DE4F8881998102
:10187000AA81BB81CB57D140CB58DE4F8883998357
:10188000AA83BB83C557D140CF57DE4F0883198346
:101890002A833B83C158D140F03509F066C19FEFE0
:1018A000891A9CED990A9AEBA90A98E9B90ACF59C5
:1018B000DE4F88829982AA82BB82C156D140C55828
:1018C000DE4F88819981AA81BB81CB57D140875750
:1018D0009445A243B041CB59DE4F88839983AA83B4
:1018E000BB83C556D140A2E04A1AA3E25A0AA5E436
:1018F0006A0AA7E67A0AC759DE4F488259826A8285
:101900007B82C956D140BAE8CB1ABBEADB0ABDECF0
:10191000EB0ABFEEFB0AC359DE4FC882D982EA82C6
:10192000FB82CD56D14000511E412D423C43CF5841
:10193000DE4F088319832A833B83C157D140C9579F
:10194000DE4FE881F981C758D1400FB6F894FEBF49
:101950000FBEEDBFFE01EF59FE4F9F012C5E3F4FC2
:1019600080E090E0DC014191519161917191842777
:101970009527A627B7272E173F07A9F78B3D97482E
:10198000AA4BB84021F086E691E00E9485099E01AD
:101990002F5F3F4F69018901F0E0E0E024E1822EF2
:1019A000912C30E020E05F01A20EB31E7901EE0C15
:1019B000FF1CE00EF11EC501B4010E946020A1E6EB
:1019C000B1E0AC0FBD1FA80FB91F4C91AA9CC0017C
:1019D000AB9C900D900D1124840F911DD7018D9318
:1019E0009C932F5F3F4F28303105E9F63896005F12
:1019F0001F4FE034F105A9F68E010F5B1E4FF80171
:101A0000B096C758DE4FF983E883C957D1407801B3
:101A1000CB57DE4F28813981C558D140205E3F4FDA
:101A2000C558DE4F39832883CB57D140D7011D924B
:101A30001D921D921D927D01CB57DE4F288039806B
:101A4000C558D140CB58DE4FD982C882C557D14046
:101A5000412C512C3201CB58DE4FA881B981C5579A
:101A6000D1406D917D91CB58DE4FB983A883C55786
:101A7000D140F10181909190A190B1901F01072E6A
:101A8000000C880B990B0E94691EA50194010E940D
:101A90005D1F9B01AC01C301B2010E94491D2B01D6
:101AA0003C01C558DE4F28813981CB57D1402215E2
:101AB000330589F6F701349740825182628273823E
:101AC000B0E1CB0ED11CC758DE4FE881F981C95770
:101AD000D140EE15FF0509F0A9CF8FE2C82E82E0B4
:101AE000D82ED8018D909D90AD90BD908D0120E0B5
:101AF00030E0A901C501B4010E94581F20E030E088
:101B000040E05FE387FDDEC0C501B4010E94491DCE
:101B10000E94311EF60161936F01E016F10609F78C
:101B2000C957DE4F28813981C758D1400FB6F89484
:101B30003EBF0FBE2DBFC657DE4F0FB6F894DEBFB7
:101B40000FBECDBFDF91CF911F910F91FF90EF900E
:101B5000DF90CF90BF90AF909F908F907F906F90CD
:101B60005F904F903F902F900895C558DE4F888228
:101B70009982AA82BB82CB57D1409701860173011B
:101B80006201B1CDD101D4964D915D916D917C9161
:101B9000D79790968D919D910D90BC91A02D842703
:101BA0009527A627B727F101408551856285738562
:101BB00084279527A627B7274081518162817381A9
:101BC00084279527A627B727880F991FAA1FBB1F11
:101BD000811DC158DE4FE881F981CF57D140808304
:101BE0009183A283B383C758DE4FF881C957D14090
:101BF000F43108F494CDC758DE4F9881C957D140CD
:101C00009832D8F4B701A6014027512762277327DD
:101C1000CB58DE4F88819981AA81BB81C557D140BD
:101C2000482759276A277B27A1EA8A2EABEE9A2EEE
:101C3000A9EDAA2EAEE6BA2E90CDC758DE4F9881F8
:101C4000C957D140B701A6019C3318F5402B512B41
:101C5000622B732BCB58DE4F88819981AA81BB817F
:101C6000C557D140482359236A237B23D701C60196
:101C700080239123A223B323482B592B6A2B7B2B40
:101C8000FCED8F2EFCEB9F2EFBE1AF2EFFE8BF2E6D
:101C900064CD4027512762277327CB58DE4F8881B8
:101CA0009981AA81BB81C557D140482759276A2706
:101CB0007B27E6ED8E2EE1EC9E2EE2E6AE2EEAECE0
:101CC000BE2E4BCDC501B4010E94481D21CFCF923D
:101CD000DF92EF92FF920F931F93CF93DF93EC016C
:101CE0008C010C5F1F4F8AE0C82ED12CE12CF12C07
:101CF0000E948D1CA70196010E94E51C605D6993FE
:101D0000C017D107A9F7DF91CF911F910F91FF90D5
:101D1000EF90DF90CF90089585ED8093BC00809187
:101D2000930290919402A0919502B0919602079629
:101D3000A11DB11D23E0B695A795979587952A9586
:101D4000D1F72091BC0024FD03C0109291020895A8
:101D50004091930250919402609195027091960285
:101D6000452B462B472B69F30097A105B10541F0A0
:101D70002AE22A95F1F700C00197A109B109E1CF44
:101D8000809192020C94EB062F923F924F925F92B9
:101D90006F927F928F929F92AF92BF92CF92DF927B
:101DA000EF92FF920F931F93CF93DF93CDB7DEB7E0
:101DB000CC52D4400FB6F894DEBF0FBECDBF0E9408
:101DC000F8049E012F5F3F4F1901AE014F5F5D4F39
:101DD000C95FDB4F59834883C750D4406B017C01F6
:101DE00054EFC50ED11CE11CF11CC95FDB4F08810B
:101DF0001981C750D440C55FDB4F39832883CB504E
:101E0000D4408EE00E94E604BC01990F880B990B28
:101E10000E94691EC55FDB4FA881B981CB50D440B9
:101E20006D937D938D939D93C55FDB4FB983A8839D
:101E3000CB50D440F80111921192119211928F015E
:101E40000E94F8046C157D058E059F05C8F3F4EF1C
:101E5000CF0ED11CE11CF11CC55FDB4F28813981FD
:101E6000CB50D440C95FDB4F48815981C750D44023
:101E70002417350731F67901610110E000E0B8015F
:101E800090E080E00E94671E20E030E04EEF52E4D8
:101E90000E94BF1D2BED3FE049EC50E40E945D1F06
:101EA0000E94BA1D2FE135E84BEE5EE30E945D1FF4
:101EB0009B01AC0161E77DE38AE09FE30E94481D3E
:101EC0004B015C01AC019B01D6016D917D918D911F
:101ED0009C910E945D1FF601619371938193919390
:101EE0006F01A5019401D7019E918E917E916E9113
:101EF0007D010E945D1FF70160837183828393835C
:101F00000F5F1F4F0034110509F0B9CFF10150E008
:101F100040E090E080E01DC048175907C8F4DC019C
:101F2000AA0FBB1FAA0FBB1FA20DB31D04811581F1
:101F300026813781CD90DD90ED90FC901397C4827F
:101F4000D582E682F7820D931D932D933C931397D0
:101F5000349620E430E08217930728F0821B930B1D
:101F600036952795F8CF820F931F4F5F5F4F4F37FE
:101F7000510591F6C75EDB4F188219821A821B82C7
:101F8000C951D440C15EDB4F1882CF51D440C05EEE
:101F9000DB4F1882C052D440F0E8CF5DDB4FF883AE
:101FA000C152D4402FEBCE5DDB4F2883C252D440C8
:101FB00041E050E0CB5FDB4F59834883C550D440AC
:101FC000C75FDB4F19821882C950D440CB5FDB4F0B
:101FD00088819981C550D440880F991FC75DDB4F18
:101FE00099838883C952D440CB5FDB4FA881B981E4
:101FF000C550D44033E0AA0FBB1F3A95E1F7C55D49
:10200000DB4FB983A883CB52D440CB5FDB4FE88151
:10201000F981C550D440EE0FFF1FEE0FFF1FC95DC1
:10202000DB4FF983E883C752D440C95FDB4F288177
:102030003981C750D440C35EDB4F39832883CD51EB
:10204000D440CB5EDB4F39822882C551D440412C2D
:10205000512C320100E0C35FDB4F1882CD50D440D9
:1020600030E8C25FDB4F3883CE50D4401FE3C15FFE
:10207000DB4F19821882CF50D440C15FDB4F4881BB
:102080005981CF50D440CB5FDB4F88819981C550B7
:10209000D4404817590709F4EBC1C35EDB4FA88150
:1020A000B981CD51D440CF5FDB4FB983A883C150F4
:1020B000D440CB5EDB4FE881F981C551D440CD5F80
:1020C000DB4FF983E883C350D440C95EDB4F5983AB
:1020D0004883C751D440C95EDB4F28813981C7513D
:1020E000D4402038310508F020C1CD5FDB4F488156
:1020F0005981C350D440C95DDB4F88819981C75253
:10210000D440480F591FCB5DDB4F59834883C552DC
:10211000D440DA018D909D90AD90BC90CF5FDB4FA5
:10212000E881F981C150D440E80FF91FCD5DDB4F44
:10213000F983E883C352D4402081318142815381A5
:10214000CF5EDB4F288339834A835B83C151D44000
:10215000202FC35FDB4F3881CD50D440C25FDB4FAF
:102160004881CE50D440512FC501B4010E945D1F5B
:102170006B017C01A3019201CF5EDB4F6881798105
:102180008A819B81C151D4400E945D1F9B01AC019B
:10219000C701B6010E94481D6B017C01CF5EDB4F79
:1021A000288139814A815B81C151D440602FC35F4E
:1021B000DB4F7881CD50D440C25FDB4F8881CE5059
:1021C000D440912F0E945D1FCF5EDB4F68837983DF
:1021D0008A839B83C151D440A3019201C501B401FC
:1021E0000E945D1F9B01AC01CF5EDB4F688179814E
:1021F0008A819B81C151D4400E94491D4B015C01E1
:10220000A7019601CD5FDB4FE881F981C350D4402F
:1022100060817181828193810E94481DCB5DDB4F7B
:10222000A881B981C552D4406D937D938D939C93C1
:102230001397A5019401CF5FDB4FE881F981C1506D
:10224000D44060817181828193810E94481DCD5D5F
:10225000DB4FA881B981C352D4406D937D938D9398
:102260009C931397A7019601CD5FDB4FE881F9811D
:10227000C350D44060817181828193810E94491D45
:10228000CD5FDB4FA881B981C350D4406D937D935E
:102290008D939C931397A5019401CF5FDB4FE88149
:1022A000F981C150D44060817181828193810E9403
:1022B000491DCF5FDB4FA881B981C150D4406D93D8
:1022C0007D938D939C931397C95EDB4FE881F981D1
:1022D000C751D440C75DDB4F28813981C952D440F2
:1022E000E20FF31FC95EDB4FF983E883C751D44087
:1022F000CD5FDB4F48815981C350D440C55DDB4F72
:1023000088819981CB52D440480F591FCD5FDB4F54
:1023100059834883C350D440A80FB91FCF5FDB4F08
:10232000B983A883C150D440D6CEC15EDB4F28818B
:10233000CF51D440C05EDB4F3881C052D440CF5D16
:10234000DB4F4881C152D440CE5DDB4F5881C25231
:10235000D440602FC35FDB4F7881CD50D440C25F43
:10236000DB4F8881CE50D440912F0E945D1F6B01BE
:102370007C01C75EDB4F288139814A815B81C9516D
:10238000D440C301B2010E945D1F9B01AC01C70193
:10239000B6010E94481D6B017C01C15EDB4F2881A4
:1023A000CF51D440C05EDB4F3881C052D440CF5DA6
:1023B000DB4F4881C152D440CE5DDB4F5881C252C1
:1023C000D440C301B2010E945D1F4B015C01C75E96
:1023D000DB4F288139814A815B81C951D440602F0C
:1023E000C35FDB4F7881CD50D440C25FDB4F888123
:1023F000CE50D440912F0E945D1FA50194010E94F0
:10240000491D2B013C01C15FDB4FA881B981CF5031
:10241000D4401196C15FDB4FB983A883CF50D4401D
:10242000CB5EDB4FE881F981C551D4403496CB5E59
:10243000DB4FF983E883C551D440C35EDB4F28816D
:102440003981CD51D4402C5F3F4FC35EDB4F398380
:102450002883CD51D4400C2DC35FDB4FD882CD50A3
:10246000D440C25FDB4FE882CE50D4401F2D05CE52
:10247000C75FDB4FE881F981C950D440E653FF4F75
:1024800085919591A591B491C75FDB4FE881F98162
:10249000C950D440EA57FF4F4591559165917491C9
:1024A000C15EDB4F4883CF51D440C05EDB4F5883C1
:1024B000C052D440CF5DDB4F6883C152D440CE5D63
:1024C000DB4F7883C252D4409C01AD015058C75EA7
:1024D000DB4F288339834A835B83C951D440C75F6C
:1024E000DB4F48815981C950D4404C5F5F4FC75F73
:1024F000DB4F59834883C950D440C75DDB4F888187
:102500009981C952D440CB5FDB4F99838883C550F2
:10251000D4404C31510509F059CD8101D8016D915C
:102520007D918D919D918D01C95FDB4FE881F9818E
:10253000C750D440C190D190E190F190C95FDB4F7A
:10254000F983E883C750D4409B01AC010E945D1F12
:102550004B015C01A7019601C701B6010E945D1FF6
:102560009B01AC01C501B4010E94491D0E94D01F0E
:10257000F80134976083718382839383C55FDB4F57
:1025800028813981CB50D4400217130739F610E067
:1025900000E0712C612C512C412CEE24E394F12CA1
:1025A000D1016D917D918D919D911D018C90119620
:1025B0009C9011971296CC9012971396DC9057012D
:1025C000BFEFAB1ABB0A9401A6010E94B51D87FF9D
:1025D0001AC0F1012481358146815781B401C601B9
:1025E0000E94581F18167CF4272D362D452D542D8A
:1025F000B401C6010E94581F18162CF48701782CCC
:10260000692C5C2C4D2C7501F1E4AF16B10441F638
:10261000180121E0221A20EC320A220C331C220C71
:10262000331CFE01E20DF31D81809280A380B480F3
:10263000FE01E20DF31DC184D284E384F484A7017A
:102640009601C501B4010E94481D2B013C01FE0109
:10265000E20DF31D65817681878190859B01AC0138
:102660000E94491D9B01AC01C501B4010E94481D97
:10267000A70196010E94491D9B01AC01C301B20153
:102680000E94BF1D20E030E040E05FE30E945D1F3C
:102690006B017C01B80190E080E00E94671E9B0105
:1026A000AC01C701B6010E94491D20E030E040E8BE
:1026B00055E40E945D1F0034110501F120E030E077
:1026C0004EEF52E40E94BF1DC45DDB4F0FB6F8947D
:1026D000DEBF0FBECDBFDF91CF911F910F91FF9055
:1026E000EF90DF90CF90BF90AF909F908F907F90B2
:1026F0006F905F904F903F902F90089520E030E0D2
:1027000040E05CE30E945D1FDFCF1F920F920FB687
:102710000F9211242F933F938F939F93AF93BF9367
:102720008091270290912802A0912902B0912A025B
:102730003091260223E0230F2D3758F50196A11D75
:10274000B11D209326028093270290932802A09324
:102750002902B0932A0280912B0290912C02A09121
:102760002D02B0912E020196A11DB11D80932B0266
:1027700090932C02A0932D02B0932E02BF91AF91A3
:102780009F918F913F912F910F900FBE0F901F90AF
:10279000189526E8230F0296A11DB11DD2CF1F92D6
:1027A0000F920FB60F9211242F933F934F935F9385
:1027B0006F937F938F939F93AF93BF93EF93FF9309
:1027C00080913D0290913E02A0913F02B091400263
:1027D000892B8A2B8B2BD1F190913802E091390211
:1027E000F0913A0280818927808380913D02909107
:1027F0003E02A0913F02B0914002181619061A0637
:102800001B069CF480913D0290913E02A0913F02F4
:10281000B09140020197A109B10980933D029093C4
:102820003E02A0933F02B0934002FF91EF91BF910F
:10283000AF919F918F917F916F915F914F913F9158
:102840002F910F900FBE0F901F901895809100014F
:102850000E945205EACF1F920F920FB60F921124D9
:102860002F933F934F935F936F937F938F939F9398
:10287000AF93BF93EF93FF938BEB92E00E94FC0525
:10288000FF91EF91BF91AF919F918F917F916F9148
:102890005F914F913F912F910F900FBE0F901F901E
:1028A00018951F920F920FB60F9211242F938F93AA
:1028B0009F93EF93FF93E091CB02F091CC02808144
:1028C000E091D102F091D20282FD1BC090818091F3
:1028D000D4028F5F8F732091D502821741F0E0916F
:1028E000D402F0E0E554FD4F958F8093D402FF9120
:1028F000EF919F918F912F910F900FBE0F901F908E
:1029000018958081F4CF1F920F920FB60F92112469
:102910002F933F934F935F936F937F938F939F93E7
:10292000AF93BF93EF93FF938091B900887F803678
:1029300009F44AC0F0F5883209F4A7C018F58031CF
:1029400009F49BC0B8F4882309F4F9C0883009F46D
:1029500094C0FF91EF91BF91AF919F918F917F9123
:102960006F915F914F913F912F910F900FBE0F90FC
:102970001F901895883109F488C0803251F78093F0
:102980008F0214C0803409F49DC040F48033B9F341
:102990008833F9F680938F0285ECB0C0803509F456
:1029A00085C0883509F496C0883499F60E948C0E4B
:1029B000D0CF883909F48CC038F5883729F050F425
:1029C000883611F0803729F683E0809391021092C7
:1029D000210257C0883809F47BC0803919F080384B
:1029E00009F0B7CF80912102803208F071C0E091E8
:1029F000210281E08E0F809321028091BB00F0E0E4
:102A0000EF5FFD4F80833DC0803B39F0E0F4803ABA
:102A100009F479C0883A09F09CCF84E08093910250
:102A2000109200021092FF01E0912402F091250221
:102A300009958091FF0181110FC081E08093FF0112
:102A40001092DF0109C0803C09F4A6CF883C09F44C
:102A5000A3CF883B09F07DCFE091000281E08E0F8B
:102A600080930002F0E0E152FE4F80818093BB0032
:102A7000909100028091FF0129C080916C028093A7
:102A8000BB0085EC8093BC0064CF90918E02809156
:102A90008D02981758F5E0918E0281E08E0F809399
:102AA0008E02F0E0E359FD4F8081E9CFE0918E0284
:102AB00081E08E0F80938E028091BB00F0E0E3599D
:102AC000FD4F808390918E0280918D029817C8F2FD
:102AD00085E8D8CFE0918E0281E08E0F80938E0240
:102AE0008091BB00F0E0E359FD4F8083809190021C
:102AF00081115CCF81E080936B0284EA8093BC00FB
:102B00001092910226CF85EC8093BC001092910226
:102B100080912102803230F4E0912102F0E0EF5FF9
:102B2000FD4F10826091210270E0E0912202F0914D
:102B3000230281E092E00995109221020ACF1092BF
:102B40008F0234CFEBEBF2E01382128248EE53E0B7
:102B500060E070E0448355836683778383E491E08B
:102B60009183808385EC90E09587848784EC90E066
:102B70009787868780EC90E0918B808B81EC90E04A
:102B8000938B828B82EC90E0958B848B86EC90E02B
:102B9000978B868B118E128E138E148EA8E7B3E05E
:102BA00013961C921E92129714964D935D936D93FB
:102BB0007C93179785E591E011969C938E93E1E9BC
:102BC000F3E080ED97E097A386A311A610A612A6C6
:102BD000178A118E12A213A214A215A214821582B2
:102BE000E4E8F3E01486138680E1818380E2808349
:102BF000B287A1878CE282831482138215821682A7
:102C000017821086E8E5F3E086EB93E091838083FA
:102C100081EF93E0938382838CE294E095838483B5
:102C200087E694E09783868382EA94E091878087A1
:102C30008DED94E09387828788E195E0958784877E
:102C400083E595E0978786878EE895E0918B808B6A
:102C500089EC95E0938B828B84E096E0958B848B56
:102C60008FE396E0978B868B8AE796E0918F808F33
:102C700085EB96E0938F828F80EF96E0958F848F1F
:102C80008BE297E0978F868F0895CF93DF93CDB730
:102C9000DEB7EE970FB6F894DEBF0FBECDBF7894C7
:102CA00084B5826084BD84B5816084BD85B5826051
:102CB00085BD85B5816085BD80916E008160809302
:102CC0006E0010928100809181008260809381006B
:102CD000809181008160809381008091800081607B
:102CE000809380008091B10084608093B1008091D6
:102CF000B00081608093B00080917A0084608093FE
:102D00007A0080917A00826080937A0080917A00C4
:102D1000816080937A0080917A00806880937A0045
:102D20001092C10080E2E5E0F1E09E012F5F3F4F8D
:102D30001901D90101900D928A95E1F7E091CB023A
:102D4000F091CC0282E08083E091C702F091C8024A
:102D50001082E091C902F091CA0280E18083109252
:102D6000D302E091CF02F091D00286E08083E0911F
:102D7000CD02F091CE02808180618083E091CD020E
:102D8000F091CE02808188608083E091CD02F09145
:102D9000CE02808180688083E091CD02F091CE02E6
:102DA00080818F7D808388E0E5E2F1E0DE0191960D
:102DB00001900D928A95E1F781E08093950310923E
:102DC0009603109297038093A80398E09093A90329
:102DD0001092910380939303809392031092940333
:102DE000FE01B196A0EAB3E0CE018996FDAFECAF4B
:102DF00021912D93E817F907D9F78AA580939803B5
:102E000010E08091A8031817A0F4812F90E0AC0186
:102E10004F565C4F7A0161E0DA0117968C910E945F
:102E20004C0260919203F70187810E9400021F5FAC
:102E3000E8CF10E08091A903181750F09091A803F3
:102E4000EBEAF3E080E09817B9F011928F5FFBCFC7
:102E5000812F90E09C012F563C4F790161E0D90110
:102E60001F968C910E944C0260919403F701878514
:102E70000E9400021F5FDECF10E08091A8031817A8
:102E800058F4E12FF0E0EF56FC4F609192038781F8
:102E90000E9400021F5FF1CF609194038091A00314
:102EA0000E94000210E08091A903181758F4E12F46
:102EB000F0E0EF56FC4F6091940387850E9400027A
:102EC0001F5FF1CF60919203809198030E940002EE
:102ED00088E097E09093B8038093B7031092BA0309
:102EE0001092B9031092BB0361E08CE00E944C0287
:102EF00060E08CE00E94000261E08BE00E944C02E6
:102F000060E08BE00E94000210924A021092490297
:102F1000109298021092BA020E94CD0680E595E0C8
:102F2000909325028093240281E595E090932302FB
:102F3000809322028CE08093B80080EF0E94910978
:102F40008091840391E0909397028093B90210924C
:102F500098021092BA0281E00E940C07882329F09F
:102F600086EA91E00E948509FFCF62E08FE00E942F
:102F70004C0260E08FE00E944C0268EC70E080E060
:102F800090E00E941D05912C812C30E020E0C12CA6
:102F9000D12C760110E000E067E0462E512C612C28
:102FA000712C53E0A52EB12CB9016F5F7F4F072E16
:102FB000000C880B990B0E941D058FE00E94E6040F
:102FC0009C01BC01990F880B990B21703327822635
:102FD0009326A30192010E94171DFAE0F69F90012B
:102FE000F79F300D112441E0A41AB108E9F6A401BD
:102FF000092C000C660B770B002E04C0440F551FE4
:10300000661F771F0A94D2F7C42AD52AE62AF72A20
:103010000F5F1F4F0F31110521F6C114D104E104D8
:10302000F10421F0C701B6010E94DC1CC1010E941D
:10303000880A80912F028A5F80932F0210923702B4
:103040008091300296E58927809330029091320278
:1030500029E6922790933202909135028FE59827C6
:1030600090933502809136028227809336028EE05B
:1030700091E00E94790986EC91E00E9485098EE03A
:1030800091E00E94790989E0DE019A96BBAFAAAF70
:10309000E82F1D92EA95E9F7ACADBDAD1D928A957A
:1030A000E9F7CE018A960E94670E64E0CE018A9607
:1030B0000E944509912CFF24F3940EE444E0842EF1
:1030C0001EAE5E01BAE3AB0EB11CFF2049F18DE3E9
:1030D00093E0992019F1E1E081E293E09E16F1F08E
:1030E000F2E085E093E09F16C9F023E089EE92E0DC
:1030F0009216A1F034E08DEC92E0931679F045E061
:1031000081EB92E0941651F056E085E992E0951635
:1031100029F087E0981204C089E792E00E947909BB
:103120008FB7F894C0902702D0902802E09029022F
:10313000F0902A028FBF80918703909188030097B7
:10314000A1F0B701A601481B590B610971098091D3
:10315000890390918A03A0918B03B0918C03481747
:1031600059076A077B0708F4D6C080918603853328
:1031700009F04EC088EF0E949109883F71F410E178
:1031800010938503C0928903D0928A03E0928B0347
:10319000F0928C03103121F20BC0803F09F1883E80
:1031A00059F1883D59F1883B59F1883759F111E1BE
:1031B000E12FF0E0E35DFE4FF0809EE4F91671F040
:1031C000A3E2FA1609F4A9C06F2D8BEB92E00E94DE
:1031D0001E0687E792E00E946B060F2DF12C31C28C
:1031E00010E087E00E949109873049F2863041F271
:1031F000853051F41B5FC4CF11E0F3CF12E0F1CF63
:1032000013E0EFCF14E0EDCF833089F6165FB8CF2F
:103210008E3361F58CEF0E9491098C3F09F4AFCF9A
:10322000883FD1F0843FD1F08C3ED1F08C3DD1F07D
:103230008C3BD1F08C3709F0BACF15E083E00E94C7
:103240009109833009F49BCF823009F499CF813002
:1032500009F0ADCF1A5F94CF10E0F0CF11E0EECFC0
:1032600012E0ECCF13E0EACF14E0E8CF8135C9F4E7
:103270008FEF0E9491098F3F09F481CF8E3FE9F1D2
:103280008D3FE9F18B3FE9F1873FE9F18F3EE9F1AD
:103290008F3DE9F18F3BE9F18F3709F088CF17E0D7
:1032A0006FCF80EF0E949109803F09F468CF803E84
:1032B000A9F0803DA9F0803BA9F0803709F077CFD5
:1032C00013E08FE00E9491098F3009F458CF8E30BF
:1032D00009F456CF8D3041F41C5F52CF10E0F1CF8E
:1032E00011E0EFCF12E0EDCF8B3011F4185F48CF33
:1032F000873009F05CCF145F43CF10E041CF11E07D
:103300003FCF12E03DCF13E03BCF14E039CF15E0C3
:1033100037CF16E035CF1FEF4BCF802F0E948508A7
:103320006E01B3E3CB0ED11C76010E94C40E2B01BB
:103330003C0120E030E84DE654E40E94B51D87FFD3
:1033400004C00E94C40E2B013C0160917603709171
:103350007703072E000C880B990B0E94691E9B01B6
:10336000AC01C301B2010E94581F18160CF494C19D
:103370006091740370917503072E000C880B990BF4
:103380000E94691E9B01AC01C301B2010E94581F3B
:1033900018160CF483C16091720370917303072EA9
:1033A000000C880B990B0E94691E9B01AC01C301A4
:1033B000B2010E94581F18160CF472C1609170037C
:1033C00070917103072E000C880B990B0E94691EE7
:1033D0009B01AC01C301B2010E94581F18160CF4E6
:1033E00061C160916E0370916F03072E000C880B12
:1033F000990B0E94691E9B01AC01C301B2010E949E
:10340000581F18160CF450C160916C0370916D0335
:10341000072E000C880B990B0E94691E9B01AC01C2
:10342000C301B2010E94581F18160CF43FC16091ED
:103430006A0370916B03072E000C880B990B0E9496
:10344000691E9B01AC01C301B2010E94581F1816EE
:103450000CF42EC16091680370916903072E000C73
:10346000880B990B0E94691E9B01AC01C301B2013C
:103470000E94581F18160CF41DC1609166037091CC
:103480006703072E000C880B990B0E94691E9B0195
:10349000AC01C301B2010E94581F18160CF40CC1F4
:1034A0006091640370916503072E000C880B990BE3
:1034B0000E94691E9B01AC01C301B2010E94581F0A
:1034C00018160CF4FBC06091620370916303072E21
:1034D000000C880B990B0E94691E9B01AC01C30173
:1034E000B2010E94581F18160CF4EAC060916003E4
:1034F00070916103072E000C880B990B0E94691EC6
:103500009B01AC01C301B2010E94581F18160CF4B4
:10351000D9C060915E0370915F03072E000C880B89
:10352000990B0E94691E9B01AC01C301B2010E946C
:10353000581F18160CF4C8C060915C0370915D03AD
:10354000072E000C880B990B0E94691E9B01AC0191
:10355000C301B2010E94581F18160CF4B7C0609145
:103560005A0370915B03072E000C880B990B0E9485
:10357000691E9B01AC01C301B2010E94581F1816BD
:103580000CF4A6C06091580370915903072E000CEB
:10359000880B990B0E94691E9B01AC01C301B2010B
:1035A0000E94581F18160CF495C08EE4F701819301
:1035B0007F01AE16BF0609F0B8CE7BA881E1D1012C
:1035C0001D928A95E9F7F60191916F01ADE2B1E0A4
:1035D0009101F1018D91981303C080818F5F8083E9
:1035E00031964EE351E04A175B07A1F7CE14DF0492
:1035F00051F790E080E0D9014D919D01433008F4EE
:103600006BC0835D9E4FFC017080E1E2F0E0EC0F47
:10361000FD1FE90DF11D70820E947509672D8BEB6E
:1036200092E00E941E068CED91E00E94680963E220
:103630008BEB92E00E941E060E9475099394FF2472
:10364000F39480EF0E9491098F3F11F0803FC9F7FA
:103650006AE070E080E090E00E941D0580EF0E942B
:1036600091098F3F11F0803FC9F7DEAC89104EC041
:103670009E01265D3F4F7901D901FE01B196DD24FF
:10368000D3948E2F3CAD831B881560F591918D915D
:103690009817B9F3D12CF5CF84E488CF83E286CF95
:1036A00080E384CF8AE282CF83E480CF89E37ECF38
:1036B00088E37CCF87E37ACF82E478CF86E376CF46
:1036C00085E374CF84E372CF81E470CF83E36ECF60
:1036D00082E36CCF81E36ACF01968131910509F0D5
:1036E0008ACF93CFD11014C086E592E00E94790969
:1036F000CE018A960E94670E64E0CE018A960E94EF
:103700004509912CFF24F39434E0832EDEAEDDCC0A
:103710004EAD411119C08AE192E00E947909EFE2B1
:10372000F2E08191D7018D937D01B2E0E733FB0791
:10373000C1F71AAA68E0CE018A960E944509FD2CBD
:10374000912C28E0822EE2CF0E9475090E94750913
:1037500089E591E00E9479098BEE91E00E94790958
:1037600087ED91E00E9468098FE292E00E9485094E
:1037700082EA91E00E9479090E9475090E94750908
:1037800094E1E92EF12C40E050E0BA0188EB91E0A1
:103790000E94880264E670E080E090E00E941D05CF
:1037A00040E050E0BA018EEE91E00E94880264E6AB
:1037B00070E080E090E00E941D0540E050E0BA011A
:1037C0008BE092E00E94880264E670E080E090E086
:1037D0000E941D0540E050E0BA018BE492E00E9497
:1037E000880264E670E080E090E00E941D0540E001
:1037F00050E0BA0183E992E00E94880264E670E03A
:1038000080E090E00E941D0540E050E0BA018AEBA4
:1038100092E00E94880264E670E080E090E00E94FE
:103820001D0540E050E0BA0180E193E00E9488026B
:1038300064E670E080E090E00E941D058AE00E944E
:10384000520564E670E080E090E00E941D05E1E032
:10385000EE1AF10809F097CF68EE73E080E090E08F
:103860000E941D05CE018A960E94670E64E0CE017B
:103870008A960E944509FEAC912C84E0882ED12CBA
:1038800045CF8F929F92AF92BF92CF92DF92EF92ED
:10389000FF92CF93DF93EC01688179818A819B81CC
:1038A000611571058105910521F464E279ED8BE5DF
:1038B00097E02DE133EF41E050E00E94E51C490123
:1038C0005A019B01AC01A7EAB1E40E94041D6B01FF
:1038D0007C01ACEEB4EFA50194010E94121DC60E4E
:1038E000D71EE81EF91EF7FE06C081E0C81AD108EF
:1038F000E10880E8F80AC882D982EA82FB82C7011F
:10390000B6019F77DF91CF91FF90EF90DF90CF903E
:10391000BF90AF909F908F9008958F929F92AF929B
:10392000BF92CF92DF92EF92FF926091010170916E
:1039300002018091030190910401611571058105D7
:10394000910521F464E279ED8BE597E02DE133EF09
:1039500041E050E00E94E51C49015A019B01AC0185
:10396000A7EAB1E40E94041D6B017C01ACEEB4EF48
:10397000A50194010E94121DC60ED71EE81EF91E55
:10398000F7FE06C081E0C81AD108E10880E8F80A0D
:10399000C0920101D0920201E0920301F092040171
:1039A000C701B6019F77FF90EF90DF90CF90BF9057
:1039B000AF909F908F9008956093010170930201E2
:1039C00080930301909304010895052E97FB1EF444
:1039D00000940E94FC1C57FD07D00E94171D07FC95
:1039E00003D04EF40C94FC1C5095409530952195D5
:1039F0003F4F4F4F5F4F089590958095709561951B
:103A00007F4F8F4F9F4F08950E94391DA59F900DA6
:103A1000B49F900DA49F800D911D11240895B7FFB0
:103A20000C94041D0E94041D821B930B0895A1E2B7
:103A30001A2EAA1BBB1BFD010DC0AA1FBB1FEE1F28
:103A4000FF1FA217B307E407F50720F0A21BB30B73
:103A5000E40BF50B661F771F881F991F1A9469F7EF
:103A600060957095809590959B01AC01BD01CF014B
:103A70000895A29FB001B39FC001A39F700D811D47
:103A80001124911DB29F700D811D1124911D089567
:103A90005058BB27AA270E94601D0C940A1F0E9441
:103AA000D11E38F00E94D81E20F039F49F3F19F43F
:103AB00026F40C94CE1E0EF4E095E7FB0C94C81E81
:103AC000E92F0E942F1F58F3BA1762077307840764
:103AD000950720F079F4A6F50C94511F0EF4E095AB
:103AE0000B2EBA2FA02D0B01B90190010C01CA01B8
:103AF000A0011124FF27591B99F0593F50F4503E63
:103B000068F11A16F040A22F232F342F4427585F54
:103B1000F3CF469537952795A795F0405395C9F76C
:103B20007EF41F16BA0B620B730B840BBAF0915024
:103B3000A1F0FF0FBB1F661F771F881FC2F70EC0C3
:103B4000BA0F621F731F841F48F487957795679596
:103B5000B795F7959E3F08F0B0CF9395880F08F082
:103B60009927EE0F9795879508950E94A41E08F453
:103B700081E008950E94E11EE3950C941B1F0E94B2
:103B8000D31D0C940A1F0E94D81E58F00E94D11E0B
:103B900040F029F45F3F29F00C94C81E51110C9499
:103BA000521F0C94CE1E0E942F1F68F39923B1F36D
:103BB000552391F3951B550BBB27AA276217730753
:103BC000840738F09F5F5F4F220F331F441FAA1FE7
:103BD000A9F335D00E2E3AF0E0E832D091505040A3
:103BE000E695001CCAF72BD0FE2F29D0660F771F51
:103BF000881FBB1F261737074807AB07B0E809F037
:103C0000BB0B802DBF01FF2793585F4F3AF09E3FBB
:103C1000510578F00C94C81E0C94521F5F3FE4F3DA
:103C2000983ED4F3869577956795B795F7959F5FFE
:103C3000C9F7880F911D9695879597F90895E1E04A
:103C4000660F771F881FBB1F621773078407BA07A9
:103C500020F0621B730B840BBA0BEE1F88F7E09504
:103C600008950E94381E6894B1110C94521F089553
:103C70000E94371F88F09F5798F0B92F9927B751A6
:103C8000B0F0E1F0660F771F881F991F1AF0BA9500
:103C9000C9F714C0B13091F00E94511FB1E00895EE
:103CA0000C94511F672F782F8827B85F39F0B93FE0
:103CB000CCF3869577956795B395D9F73EF49095B3
:103CC0008095709561957F4F8F4F9F4F0895E89431
:103CD00009C097FB3EF490958095709561957F4F54
:103CE0008F4F9F4F9923A9F0F92F96E9BB27939502
:103CF000F695879577956795B795F111F8CFFAF412
:103D0000BB0F11F460FF1BC06F5F7F4F8F4F9F4F42
:103D100016C0882311F096E911C0772321F09EE8A0
:103D2000872F762F05C0662371F096E8862F70E006
:103D300060E02AF09A95660F771F881FDAF7880FE0
:103D40009695879597F90895990F0008550FAA0B36
:103D5000E0E8FEEF16161706E807F907C0F012169E
:103D60001306E407F50798F0621B730B840B950BA1
:103D700039F40A2661F0232B242B252B21F40895F6
:103D80000A2609F4A140A6958FEF811D811D089593
:103D900097F99F6780E870E060E008959FEF80ECFE
:103DA000089500240A9416161706180609060895A1
:103DB00000240A94121613061406050608950C949E
:103DC000CE1E0E94371FD8F3E894E0E0BB279F5730
:103DD000F0F02AED3FE049EC06C0EE0FBB0F661F86
:103DE000771F881F28F0B23A62077307840728F00C
:103DF000B25A620B730B840BE3959A9572F7803875
:103E000030F49A95BB0F661F771F881FD2F7904832
:103E10000C941220092E0394000C11F4882352F004
:103E2000BB0F40F4BF2B11F460FF04C06F5F7F4FE6
:103E30008F4F9F4F0895EF93E0FF07C0A2EA2AED4E
:103E40003FE049EC5FEB0E94601D0E940A1F0F904B
:103E5000039401FC9058E8E6F0E00C94252057FD0F
:103E60009058440F551F59F05F3F71F04795880FE8
:103E700097FB991F61F09F3F79F08795089512167F
:103E800013061406551FF2CF4695F1DF08C016162B
:103E900017061806991FF1CF8695710561050894DC
:103EA0000895E894BB2766277727CB0197F90895F3
:103EB0000E94A41E08F48FEF08950E94701F0C94B6
:103EC0000A1F0E94D11E38F00E94D81E20F09523B0
:103ED00011F00C94C81E0C94CE1E11240C94521F89
:103EE0000E942F1F70F3959FC1F3950F50E0551F4F
:103EF000629FF001729FBB27F00DB11D639FAA273F
:103F0000F00DB11DAA1F649F6627B00DA11D661F8D
:103F1000829F2227B00DA11D621F739FB00DA11DAE
:103F2000621F839FA00D611D221F749F3327A00D68
:103F3000611D231F849F600D211D822F762F6A2F04
:103F400011249F5750409AF0F1F088234AF0EE0F69
:103F5000FF1FBB1F661F771F881F91505040A9F796
:103F60009E3F510580F00C94C81E0C94521F5F3F79
:103F7000E4F3983ED4F3869577956795B795F795D2
:103F8000E7959F5FC1F7FE2B880F911D969587954A
:103F900097F9089519F416F40C94CE1E0C94102081
:103FA0000E94371FB8F39923C9F3B6F39F57550BF7
:103FB00087FF0E941E200024A0E640EA900180585E
:103FC0005695979528F4805C660F771F881F20F020
:103FD00026173707480730F4621B730B840B202920
:103FE00031294A2BA69517940794202531254A2775
:103FF00058F7660F771F881F20F0261737074807E6
:1040000030F4620B730B840B200D311D411DA09504
:1040100081F7B901842F9158880F96958795089557
:104020009F3F31F0915020F4879577956795B7952C
:10403000880F911D9695879597F908959150504056
:10404000660F771F881FD2F708959F938F937F93F2
:104050006F93FF93EF939B01AC010E945D1FEF9163
:10406000FF910E9439202F913F914F915F910C94C5
:104070005D1FDF93CF931F930F93FF92EF92DF9219
:104080007B018C01689406C0DA2EEF010E94701F3C
:10409000FE01E894A5912591359145915591A6F39E
:1040A000EF010E94601DFE019701A801DA9469F7F3
:1040B000DF90EF90FF900F911F91CF91DF910895C6
:1040C00097FB072E16F4009407D077FD09D00E94C5
:1040D0007A2007FC05D03EF4909581959F4F089576
:1040E000709561957F4F0895EE0FFF1F0590F49135
:1040F000E02D0994AA1BBB1B51E107C0AA1FBB1FDF
:10410000A617B70710F0A61BB70B881F991F5A9563
:10411000A9F780959095BC01CD010895F894FFCF43
:10412000FF01000000103E78BDE0AB71BE69A6063D
:10413000C10ED3344119A4D53F9A2A2C3E453FC322
:10414000C0B532D83F0605020304070809313233EF
:104150004134353642373839432A3023444E000043
:104160000000001E067E05AB058606DC05BA05CEFE
:104170000500000000530826088208FC071F080CF1
:1041800008FD070D0A004F62667573636174696FFD
:104190006E20697320696E76616C69642E20506CA4
:1041A0006561736520636F6E746163742063686119
:1041B0006C6C656E67652061646D696E697374729D
:1041C00061746F722E000A63616E6E6F7420636F8C
:1041D0006D6D756E696361746520746F206B6579B0
:1041E0007061642E0A004D697373696F6E3A2042E4
:0E41F0006C7565626F7800466C61673A20005E
:00000001FF
