:100000000C945A010C9482010C9482010C9482018C
:100010000C9482010C9482010C9482010C94610C6A
:100020000C9482010C9482010C9482010C94820144
:100030000C9482010C9482010C9482010C94820134
:100040000C94170C0C9482010C94E30C0C94BD0CD2
:100050000C9482010C9482010C9482010C94820114
:100060000C94150D0C9482012F2A2A2A2A2A2A2A56
:100070002A2A2A2A2A2A2A2A2A2A2A2A2A2A2A2AE0
:100080002A2A2A2A2A2A2A2A2A2A2A2A2A2A2A2AD0
:100090002A2A2A2A2A2A2A2A2A2A2A2A2A2A2A2AC0
:1000A0002A2A2A2A2A2A2A2A2A2A2A2A2A2A2A2AB0
:1000B0002A2F002F2A2A2A2A2A2A2A2A2A2A2A2AC0
:1000C0002A2A2A2A2A2A2A2A2020594F55204245FC
:1000D000415420544845204348414C4C454E4745E7
:1000E0002121212020202A2A2A2A2A2A2A2A2A2AA9
:1000F0002A2A2A2A2A2A2A2A2A2A2F002F2A2A2A80
:100100002A2A2A2A2A2A2A2A2A2A2A2A2A2A2A2A4F
:100110002A20202020202020202020436F6E67727C
:100120006174732121212020202020202020202ADA
:100130002A2A2A2A2A2A2A2A2A2A2A2A2A2A2A2A1F
:100140002A2A2A2F00506C61636520746865206636
:100150006F6C6C6F77696E6720666C616720696E83
:1001600020796F7572207265706F7274004D6F74B4
:100170006F72206D6F76656D656E742053554343C5
:100180004553532E20536E61636B20776173206457
:10019000697370656E73656420666F722024322EF9
:1001A00020496E7365727420616E6F746865722089
:1001B00063726564697420666F722061206E657772
:1001C00020736E61636B2E002F36004D6F746F725B
:1001D000204572726F722035393032205265706F4F
:1001E000727465642E20536C69676874206275743C
:1001F000206E6F74207369676E69666967616E74DB
:10020000206D6F746F72206D6F76656D656E7420F2
:1002100064657465637465642E2052657472792018
:10022000417474656D70742000416674657220635A
:1002300072656469742069732072656369657665A7
:10024000722C2073656E6420224552522220746FF6
:10025000206A616D20746865206D6F746F72732EF3
:100260000000000008000201000003040700000075
:1002700000000000000200000000250028002B0004
:1002800000000000240027002A00040404040404E1
:100290000404020202020202030303030303010235
:1002A0000408102040800102040810200102040804
:1002B0001020340E11241FBECFEFD8E0DEBFCDBF1B
:1002C00011E0A0E0B1E0E8E6FFE202C005900D9287
:1002D000A43DB107D9F723E0A4EDB1E001C01D9220
:1002E000A739B207E1F711E0CAE5D1E004C02197D0
:1002F000FE010E94BA15C935D107C9F70E94950EB3
:100300000C94B2170C94000090E0FC01E256FD4FF3
:10031000249186579D4FFC018491882399F090E0A9
:10032000880F991FFC01E058FD4FA591B491FC0185
:10033000EA58FD4F859194918FB7F894EC91E22B98
:10034000EC938FBF0895CF92DF92EF92FF92CF93FD
:100350006C01809100018A3049F08F3F09F44EC052
:10036000CF91FF90EF90DF90CF900895E5E7F2E016
:10037000C491C7FDF5CF8AE00E948401CC2319F017
:10038000C23009F0D8C0F12CE12C68E478EE81E0AD
:1003900090E0A70196010E945014BA01A9014150B2
:1003A000510961097109CC2309F405C1C23009F072
:1003B00093C04F3F51056105710509F00CF4B9C0B8
:1003C00064E274EF80E090E0A70196010E9450146F
:1003D000BA01A901415051096109710995E0809163
:1003E000B100887F892B8093B100C13009F4BBC074
:1003F000C23009F4CDC0C111B3CF89C08AE0809367
:100400000001E5E7F2E0C491CF3F09F4A9CFC13084
:1004100019F148F0C23009F43DC0C7FDA1CF8AE010
:100420000E948401ADCF14BC15BC84B5826084BD2C
:1004300085B5816085BDE4E9F2E0E491F0E0EE0F7E
:10044000FF1FEA58FD4F85919491E8EAF2E0E491AC
:10045000E0934C02C0E08FCF109280001092810098
:10046000809181008860809381008091810081600B
:1004700080938100E4E9F2E0E491F0E0EE0FFF1FE9
:10048000EA58FD4F85919491E8EAF2E0E491E09317
:100490004B0271CF1092B0001092B1008091B00069
:1004A00082608093B0008091B10081608093B10040
:1004B000E4E9F2E0E491F0E0EE0FFF1FEA58FD4FAF
:1004C0008591949190934A0280934902E8EAF2E080
:1004D000E491E09348024FCF4F3F5105610571050C
:1004E00041F13CF162E17AE780E090E0A7019601FA
:1004F0000E945014BA01A9014150510961097109C2
:10050000C11162C094E085B5887F892B85BD47BD48
:100510008FEF9FEFDC018093550290935602A093DA
:100520005702B093580280916E00826080936E00F3
:1005300017CF94E054CF960150E040E060E072E1C4
:100540008AE790E00E945014BA01A9014150510974
:1005500061097109C13009F048CF80918100887F1D
:1005600081608093810050938900409388008FEFD1
:100570009FEFDC018093510290935202A0935302AB
:10058000B093540280916F00826080936F00E8CE38
:100590004093B3008FEF9FEFDC0180934D02909367
:1005A0004E02A0934F02B09350028091700082607F
:1005B00080937000D5CE93E04F3F510561057105E2
:1005C00011F00CF08FCF9FCF96E009CF90E0FC01A7
:1005D000EF59FD4F2491FC01E256FD4F3491FC018F
:1005E000E657FD4FE491EE23C9F0222339F0233082
:1005F00001F1A8F4213019F1223029F1F0E0EE0FD9
:10060000FF1FEA58FD4FA591B4918FB7F894EC9174
:10061000611126C030953E233C938FBF089527304B
:10062000A9F02830C9F0243049F7809180008F7DEF
:1006300003C0809180008F7780938000DFCF84B5E6
:100640008F7784BDDBCF84B58F7DFBCF8091B000E9
:100650008F778093B000D2CF8091B0008F7DF9CF9B
:100660003E2BDACF3FB7F89480914002909141023F
:10067000A0914202B091430226B5A89B05C02F3F2E
:1006800019F00196A11DB11D3FBFBA2FA92F982FB8
:100690008827BC01CD01620F711D811D911D42E0B3
:1006A000660F771F881F991F4A95D1F708958F927B
:1006B0009F92AF92BF92CF92DF92EF92FF926B0127
:1006C0007C010E9432034B015C01C114D104E1049E
:1006D000F104B9F00E943203681979098A099B096B
:1006E000683E73408105910580F321E0C21AD1086C
:1006F000E108F10888EE880E83E0981EA11CB11C69
:10070000E4CFFF90EF90DF90CF90BF90AF909F909D
:100710008F90089508950895089590910001891388
:100720000BC0E5E7F2E0E4919FEF90930001E13028
:1007300049F028F0E23061F060E00C94E60210929B
:100740006E00FACF90916F009D7F90936F00F4CF71
:10075000909170009D7F9093700091E09093B00015
:100760009091B100987F94609093B1001092B30083
:10077000E3CFAF92BF92CF92DF92EF92FF920F93AF
:100780001F93CF93DF936C017B018B01040F151F27
:10079000EB015E01AE18BF08C017D10759F069918F
:1007A000D601ED91FC910190F081E02DC6010995F3
:1007B000892B79F7C501DF91CF911F910F91FF90A0
:1007C000EF90DF90CF90BF90AF900895FC01538DD4
:1007D000448D252F30E0842F90E0821B930B54171B
:1007E00010F0CF96089501970895FC01918D828DA8
:1007F000981761F0A28DAE0FBF2FB11D5D968C9141
:10080000928D9F5F9F73928F90E008958FEF9FEF7F
:1008100008952FB7F8948091440290914502A091D9
:100820004602B09147022FBF8093BA029093BB0259
:10083000A093BC02B093BD0282EB92E00E94F5034C
:1008400097FF26C02FB7F8948091440290914502FB
:10085000A0914602B09147022FBF4091BA02509139
:10086000BB026091BC027091BD02841B950BA60B6C
:10087000B70B4091B6025091B7026091B8027091E7
:10088000B90284179507A607B707B0F28FEF9FEF5D
:100890000895FC01918D828D981731F0828DE80FBB
:1008A000F11D858D90E008958FEF9FEF0895FC0175
:1008B000918D228D892F90E0805C9F4F821B910942
:1008C0008F739927089582EB92E00E94570421E0EC
:1008D000892B09F420E0822F089580E090E0892B95
:1008E00029F00E94630481110C9400000895FC011A
:1008F000A48DA80FB92FB11DA35ABF4F2C91848D81
:1009000090E001968F739927848FA689B7892C93DD
:10091000A089B1898C91837080648C93938D848D30
:10092000981306C00288F389E02D80818F7D808333
:100930000895EF92FF920F931F93CF93DF93EC01F3
:1009400081E0888F9B8D8C8D98131AC0E889F98976
:10095000808185FF15C09FB7F894EE89FF89608379
:10096000E889F98980818370806480839FBF81E0FA
:1009700090E0DF91CF911F910F91FF90EF9008953C
:10098000F62E0B8D10E00F5F1F4F0F731127E02E17
:100990008C8D8E110CC00FB607FCFACFE889F9894F
:1009A000808185FFF5CFCE010E947704F1CFEB8DDA
:1009B000EC0FFD2FF11DE35AFF4FF0829FB7F89423
:1009C0000B8FEA89FB8980818062CFCF0F931F93C1
:1009D000CF93DF938C01D0E0C0E0F801EC0FFD1F56
:1009E0006491662341F082EB92E00E949904892B86
:1009F00011F02196F2CFCE01DF91CF911F910F918F
:100A00000895CF93DF93EC01888D8823B9F0AA89EC
:100A1000BB89E889F9898C9185FD03C0808186FDB9
:100A20000DC00FB607FCF7CF8C9185FFF2CF808108
:100A300085FFEDCFCE010E947704E9CFDF91CF9102
:100A400008952091F501260F3327331F21323105F8
:100A5000ECF420918802FC0190E080E0243069F001
:100A600082E00895A091F5012191AC014B525E4FB7
:100A7000A40FB52FB11D2C930196861798F3809182
:100A8000F501680F6093F50180E0089581E0089515
:100A90001092880281E0809387021092620261E0E6
:100AA00082E10E94E60261E083E10E94E602E9EB56
:100AB000F0E080818E7F808380818D7F808388E4D9
:100AC0008093B80085E48093BC000895CF93DF93B2
:100AD00091E09093D4018823B9F0C091B800D091EF
:100AE000BA008091BC008A7B8093BC0060E082E108
:100AF0000E94E60260E083E10E94E6020E9448054F
:100B0000D093BA00C093B800DF91CF9108958F922F
:100B10009F92AF92BF92CF92DF92EF92FF920F938C
:100B20001F93CF93DF93D091B102D13208F0D7C099
:100B3000182FC091B0020E9432036B017C0180919A
:100B4000880281116BC082E0809388021093870233
:100B50008FEF8093860210928502D0938402A0E9E1
:100B6000B2E0E4E6F2E080E0D81391C010926302B4
:100B700080916302CC0FC82BC09363028091620204
:100B8000813009F088C0109262020E9432036B012A
:100B90007C01809163028093BB0080918A029091D6
:100BA0008B02A0918C02B0918D02892B8A2B8B2B0A
:100BB000A1F00E94320300918A0210918B022091D1
:100BC0008C0230918D026C197D098E099F090617E0
:100BD00017072807390708F442C08091BC0083FD3D
:100BE000D8CF85EC8093BC000E9432036B017C015E
:100BF00080918802823009F450C0809186028F3F34
:100C000009F46FC080918602803209F46CC0809133
:100C10008602803309F469C084E026C080918A028C
:100C200090918B02A0918C02B0918D02892B8A2B1E
:100C30008B2B09F484CF0E94320380908A0290901B
:100C40008B02A0908C02B0908D026C197D098E09E8
:100C50009F0986169706A806B90608F070CF8091FE
:100C600089020E94660585E010928F021092B102FF
:100C700010928E02DF91CF911F910F91FF90EF9014
:100C8000DF90CF90BF90AF909F908F9008959D91EF
:100C900091938F5F69CF85EEA5CF80918A02909165
:100CA0008B02A0918C02B0918D02892B8A2B8B2B09
:100CB00009F49ECF0E94320300918A0210918B02A8
:100CC00020918C0230918D026C197D098E099F094B
:100CD000061717072807390708F08ACFC0CF81E029
:100CE000C3CF80E0C1CF82E0BFCF83E0BDCF089506
:100CF000E0911D0280911C02E81730F4F0E0E25E02
:100D0000FD4F808190E008958FEF9FEF08959091BF
:100D10001D0280911C022FEF3FEF981748F4E92F36
:100D2000F0E0E25EFD4F208130E09F5F90931D0276
:100D3000C901089580911C0290911D02891B990B95
:100D40000895CF92DF92EF92FF920F931F93CF936C
:100D5000DF937C01CB018A0120918E02222389F04E
:100D6000EB016B01C40ED51ECC15DD0569F0699150
:100D7000D701ED91FC910190F081E02DC70109951B
:100D8000F3CF642F0E942105C801DF91CF911F91FD
:100D90000F91FF90EF90DF90CF900895CF93DF9366
:100DA0001F92CDB7DEB7698320918E022223F9F01E
:100DB0002091B102203258F021E030E0FC01338371
:100DC000228390E080E00F90DF91CF910895809191
:100DD0008F02E82FF0E0E057FD4F998190838F5FFD
:100DE00080938F028093B10281E090E0ECCF61E0CC
:100DF000CE0101960E942105F7CF90E080E0089592
:100E0000FC0101900020E9F73197AF01481B590B15
:100E1000BC0182EB92E00C94B9038DE591E00C9457
:100E20000007CF93DF930E94E604EC010E940D07B8
:100E30008C0F9D1FDF91CF910895CF93DF930E9478
:100E40000007EC010E940D078C0F9D1FDF91CF91D1
:100E500008952F923F924F925F926F927F928F925E
:100E60009F92AF92BF92CF92DF92EF92FF920F9339
:100E70001F93CF93DF93CDB7DEB7CA58D1400FB6DB
:100E8000F894DEBF0FBECDBFCB57DE4F998388836A
:100E9000C558D1402DB73EB7C957DE4F3983288397
:100EA000C758D14081E093E2A5E4B7E6CF59DE4FC1
:100EB00088839983AA83BB83C156D14089E89BEA82
:100EC000ADECBFEECB59DE4F88839983AA83BB83F9
:100ED000C556D1408EEF9CEDAAEBB8E9C759DE4F5D
:100EE00088839983AA83BB83C956D14086E794E55A
:100EF000A2E3B0E1C359DE4F88839983AA83BB8301
:100F0000CD56D14080EF91EEA2EDB3ECCF58DE4F3D
:100F100088839983AA83BB83C157D1408DB79EB77D
:100F2000805491090FB6F8949EBF0FBE8DBFEDB7E8
:100F3000FEB731968F5B9F4FDF011D921D921D9270
:100F40001D928A179B07C9F7209168038091690356
:100F500090E0B0E0A0E0DC0199278827B22B9068F0
:100F60004081518162817381842B952BA62BB72BF5
:100F700080839183A283B38380E190E0A0E0B0E01E
:100F800084AF95AFA6AFB7AFAE014F5F5F4F80E4C0
:100F900091E0DA019C011D9221503040E1F7C158E7
:100FA000DE4F59834883CF57D140C757DE4FF9836F
:100FB000E883C958D1401E013FE3231A310880EF6E
:100FC00091EEA2EDB3ECCF57DE4F88839983AA83CD
:100FD000BB83C158D14081E093E2A5E4B7E6C55890
:100FE000DE4F88839983AA83BB83CB57D14089E89E
:100FF0009BEAADECBFEECB58DE4F88839983AA8382
:10100000BB83C557D14006E714E522E330E18EEFFC
:10101000C82E8CEDD82E8AEBE82E88E9F82EC7581A
:10102000DE4F1882C957D140C758DE4F9881C95743
:10103000D140903108F047C2C757DE4FE881F981AF
:10104000C958D14080819181A281B381C158DE4FBE
:10105000E881F981CF57D14080839183A283B38304
:10106000B701A6014027512762277327CB58DE4FCF
:1010700088819981AA81BB81C557D14048235923D2
:101080006A237B234027512762277327B9E98B2ED8
:10109000B9E79B2EB2E8AB2EBAE5BB2EC558DE4FA2
:1010A000488059806A807B80CB57D140EBE17694B1
:1010B000679457944794EA95D1F7C558DE4F8881D5
:1010C0009981AA81BB81CB57D140F5E0880F991F48
:1010D000AA1FBB1FFA95D1F784299529A629B729FC
:1010E000C158DE4FE881F981CF57D14041905190EE
:1010F00061907190C158DE4FF983E883CF57D1409A
:10110000840D951DA61DB71D840F951FA61FB71F23
:10111000880D991DAA1DBB1DCF57DE4F8880998071
:10112000AA80BB80C158D140880E991EAA1EBB1E42
:10113000CB58DE4F88819981AA81BB81C557D140A8
:1011400042E0B695A795979587954A95D1F7CB58E4
:10115000DE4F488059806A807B80C557D1405EE170
:10116000440C551C661C771C5A95D1F7482A592AFD
:101170006A2A7B2AC758DE4FF881C957D140FF5FE2
:10118000C758DE4FF883C957D140C757DE4F888113
:101190009981C958D1400496C757DE4F99838883F7
:1011A000C958D14094E0290E311CC558DE4F8881C2
:1011B0009981AA81BB81CB57D140CB58DE4F888320
:1011C0009983AA83BB83C557D140CF57DE4F08838D
:1011D00019832A833B83C158D140F03509F066C199
:1011E0009FEF891A9CED990A9AEBA90A98E9B90A26
:1011F000CF59DE4F88829982AA82BB82C156D140E4
:10120000C558DE4F88819981AA81BB81CB57D140D7
:1012100087579445A243B041CB59DE4F88839983C9
:10122000AA83BB83C556D140A2E04A1AA3E25A0A58
:10123000A5E46A0AA7E67A0AC759DE4F48825982AE
:101240006A827B82C956D140BAE8CB1ABBEADB0A74
:10125000BDECEB0ABFEEFB0AC359DE4FC882D98250
:10126000EA82FB82CD56D14000511E412D423C43C3
:10127000CF58DE4F088319832A833B83C157D1405F
:10128000C957DE4FE881F981C758D1400FB6F894AD
:10129000FEBF0FBEEDBFFE01EF59FE4F9F012C5E5A
:1012A0003F4F80E090E0DC0141915191619171915B
:1012B00084279527A627B7272E173F07A9F78B3D29
:1012C0009748AA4BB84021F080E691E00E941D07A4
:1012D0009E012F5F3F4F69018901F0E0E0E024E1CA
:1012E000822E912C30E020E05F01A20EB31E790126
:1012F000EE0CFF1CE00EF11EC501B4010E94921518
:10130000A1E6B1E0AC0FBD1FA80FB91F4C91AA9C7C
:10131000C001AB9C900D900D1124840F911DD7013D
:101320008D939C932F5F3F4F28303105E9F6389617
:10133000005F1F4FE034F105A9F68E010F5B1E4FD1
:10134000F801B096C758DE4FF983E883C957D140FA
:101350007801CB57DE4F28813981C558D140205EB6
:101360003F4FC558DE4F39832883CB57D140D70133
:101370001D921D921D921D927D01CB57DE4F28803C
:101380003980C558D140CB58DE4FD982C882C55765
:10139000D140412C512C3201CB58DE4FA881B9816C
:1013A000C557D1406D917D91CB58DE4FB983A8834D
:1013B000C557D140F10181909190A190B1901F014A
:1013C000072E000C880B990B0E943313A501940182
:1013D0000E9492139B01AC01C301B2010E94EB1465
:1013E0002B013C01C558DE4F28813981CB57D140B4
:1013F0002215330589F6F7013497408251826282C3
:101400007382B0E1CB0ED11CC758DE4FE881F98161
:10141000C957D140EE15FF0509F0A9CF89E5C82EBF
:1014200082E0D82ED8018D909D90AD90BD908D0119
:1014300020E030E0A901C501B4010E948D1520E033
:1014400030E040E05FE387FDDEC0C501B4010E94EB
:10145000EB140E945715F60161936F01E016F10637
:1014600009F7C957DE4F28813981C758D1400FB6D7
:10147000F8943EBF0FBE2DBFC657DE4F0FB6F8948F
:10148000DEBF0FBECDBFDF91CF911F910F91FF90B7
:10149000EF90DF90CF90BF90AF909F908F907F9014
:1014A0006F905F904F903F902F900895C558DE4FFA
:1014B00088829982AA82BB82CB57D140970186014C
:1014C00073016201B1CDD101D4964D915D916D91C1
:1014D0007C91D79790968D919D910D90BC91A02D68
:1014E00084279527A627B727F10140855185628576
:1014F000738584279527A627B7274081518162816C
:10150000738184279527A627B727880F991FAA1FBD
:10151000BB1F811DC158DE4FE881F981CF57D140F3
:1015200080839183A283B383C758DE4FF881C95764
:10153000D140F43108F494CDC758DE4F9881C95793
:10154000D1409832D8F4B701A6014027512762272D
:101550007327CB58DE4F88819981AA81BB81C557FB
:10156000D140482759276A277B27A1EA8A2EABEE6C
:101570009A2EA9EDAA2EAEE6BA2E90CDC758DE4F10
:101580009881C957D140B701A6019C3318F5402B6B
:10159000512B622B732BCB58DE4F88819981AA8106
:1015A000BB81C557D140482359236A237B23D701E8
:1015B000C60180239123A223B323482B592B6A2BE6
:1015C0007B2BFCED8F2EFCEB9F2EFBE1AF2EFFE87B
:1015D000BF2E64CD4027512762277327CB58DE4F9B
:1015E00088819981AA81BB81C557D1404827592755
:1015F0006A277B27E6ED8E2EE1EC9E2EE2E6AE2EEC
:10160000EAECBE2E4BCDC501B4010E94EA1421CFF5
:101610000F931F93CF93DF938C01EB01FC0180812B
:1016200091810097E1F06881798161157105A9F0D8
:10163000428153812C813D814217530770F00E94F3
:10164000AB178C819D81F801958384831D821C8258
:10165000DF91CF911F910F9108950E945C168881B0
:101660009981F801918380838A819B81938382830E
:101670008C819D8195838483198218821B821A82B2
:10168000E5CFFC0180819181009711F00C945C16EC
:1016900008950F931F93CF93DF93EC018881998175
:1016A000009759F02A813B812617370730F081E0F7
:1016B000DF91CF911F910F9108958B016F5F7F4F45
:1016C0000E94E516009759F0998388831B830A834B
:1016D0002C813D81232B59F7FC011082E8CF80E05B
:1016E000E7CFEF92FF920F931F93CF93DF93EC011D
:1016F0007B018A01BA010E94490B2881398181113D
:1017000014C02115310519F0C9010E945C16198217
:1017100018821D821C821B821A82CE01DF91CF911A
:101720001F910F91FF90EF9008951D830C83B701D7
:10173000C9010E94AB17F1CFEF92FF920F931F9355
:10174000CF93DF9300D0CDB7DEB78C01FC011182BF
:101750001082138212821582148250E040E06FE5FD
:1017600071E00E94710B0E94090497FD1EC08983DD
:101770001A82F801E480F580FFEFEF1AFF0AB70143
:10178000C8010E94490B882371F3F801208131813F
:1017900084819581BE016F5F7F4F820F931F0E94EE
:1017A000AB17F801F582E482DECFC8010F900F90ED
:1017B000DF91CF911F910F91FF90EF90089585EDEC
:1017C0008093BC0080918A0290918B02A0918C0240
:1017D000B0918D020796A11DB11D23E0B695A79586
:1017E000979587952A95D1F72091BC0024FD03C0D9
:1017F00010928802089540918A0250918B02609164
:101800008C0270918D02452B462B472B69F3009774
:10181000A105B10541F02AE22A95F1F700C0019730
:10182000A109B109E1CF809189020C9466051F924C
:101830000F920FB60F9211242F933F938F939F9384
:10184000AF93BF938091440290914502A0914602CC
:10185000B091470230913F0223E0230F2D3758F516
:101860000196A11DB11D20933F02809344029093E5
:101870004502A0934602B0934702809140029091A6
:101880004102A0914202B09143020196A11DB11DF7
:101890008093400290934102A0934202B09343028E
:1018A000BF91AF919F918F913F912F910F900FBE5C
:1018B0000F901F90189526E8230F0296A11DB11DC9
:1018C000D2CF1F920F920FB60F9211242F933F93F6
:1018D0004F935F936F937F938F939F93AF93BF9338
:1018E000EF93FF9380914D0290914E02A0914F0291
:1018F000B0915002892B8A2B8B2BD1F19091480209
:10190000E0914902F0914A02808189278083809189
:101910004D0290914E02A0914F02B09150021816C4
:1019200019061A061B069CF480914D0290914E02F6
:10193000A0914F02B09150020197A109B109809383
:101940004D0290934E02A0934F02B0935002FF912C
:10195000EF91BF91AF919F918F917F916F915F9127
:101960004F913F912F910F900FBE0F901F901895A0
:10197000809100010E948D03EACF1F920F920FB653
:101980000F9211242F933F934F935F936F937F9305
:101990008F939F93AF93BF93EF93FF9382EB92E06C
:1019A0000E947704FF91EF91BF91AF919F918F912A
:1019B0007F916F915F914F913F912F910F900FBE4B
:1019C0000F901F9018951F920F920FB60F9211242F
:1019D0002F938F939F93EF93FF93E091C202F09127
:1019E000C3028081E091C802F091C90282FD1BC050
:1019F00090818091CB028F5F8F732091CC028217F0
:101A000041F0E091CB02F0E0EE54FD4F958F8093D2
:101A1000CB02FF91EF919F918F912F910F900FBE6D
:101A20000F901F9018958081F4CF1F920F920FB6E0
:101A30000F9211242F933F934F935F936F937F9354
:101A40008F939F93AF93BF93EF93FF938091B900D0
:101A5000887F803609F44AC0F0F5883209F4A7C0BF
:101A600018F5803109F49BC0B8F4882309F4F9C053
:101A7000883009F494C0FF91EF91BF91AF919F918D
:101A80008F917F916F915F914F913F912F910F9027
:101A90000FBE0F901F901895883109F488C08032CE
:101AA00051F78093860214C0803409F49DC040F43D
:101AB0008033B9F38833F9F68093860285ECB0C0A1
:101AC000803509F485C0883509F496C0883499F6C4
:101AD0000E94DF0BD0CF883909F48CC038F58837E5
:101AE00029F050F4883611F0803729F683E080938E
:101AF00088021092170257C0883809F47BC08039D9
:101B000019F0803809F0B7CF80911702803208F0C1
:101B100071C0E091170281E08E0F809317028091CF
:101B2000BB00F0E0E950FE4F80833DC0803B39F0C0
:101B3000E0F4803A09F479C0883A09F09CCF84E057
:101B4000809388021092F6011092F501E0911A023A
:101B5000F0911B0209958091F50181110FC081E080
:101B60008093F5011092D50109C0803C09F4A6CFFD
:101B7000883C09F4A3CF883B09F07DCFE091F601C2
:101B800081E08E0F8093F601F0E0EB52FE4F8081F2
:101B90008093BB009091F6018091F50129C080915E
:101BA00063028093BB0085EC8093BC0064CF90916E
:101BB000850280918402981758F5E091850281E0B2
:101BC0008E0F80938502F0E0EC59FD4F8081E9CFC4
:101BD000E091850281E08E0F809385028091BB00A9
:101BE000F0E0EC59FD4F8083909185028091840252
:101BF0009817C8F285E8D8CFE091850281E08E0F72
:101C0000809385028091BB00F0E0EC59FD4F80830A
:101C10008091870281115CCF81E08093620284EA27
:101C20008093BC001092880226CF85EC8093BC0084
:101C30001092880280911702803230F4E0911702EE
:101C4000F0E0E950FE4F10826091170270E0E091E1
:101C50001802F091190287EF91E00995109217028E
:101C60000ACF1092860234CFE2EBF2E013821282A6
:101C700048EE53E060E070E04483558366837783E9
:101C80008DE391E09183808385EC90E09587848754
:101C900084EC90E09787868780EC90E0918B808B36
:101CA00081EC90E0938B828B82EC90E0958B848B1F
:101CB00086EC90E0978B868B118E128E138E148E8D
:101CC000AFE4B3E013961C921E92129714964D93B4
:101CD0005D936D937C9317978FE491E011969C939D
:101CE0008E93E8E6F3E080ED97E097A386A311A634
:101CF00010A612A6178A118E12A213A214A215A260
:101D000014821582EBE5F3E01486138680E181836B
:101D100080E28083B287A1878CE28283148213825F
:101D200015821682178210860895CF93DF93CDB760
:101D3000DEB7AA970FB6F894DEBF0FBECDBF78947A
:101D400084B5826084BD84B5816084BD85B58260C0
:101D500085BD85B5816085BD80916E008160809371
:101D60006E001092810080918100826080938100DA
:101D700080918100816080938100809180008160EA
:101D8000809380008091B10084608093B100809145
:101D9000B00081608093B00080917A00846080936D
:101DA0007A0080917A00826080937A0080917A0034
:101DB000816080937A0080917A00806880937A00B5
:101DC0001092C10080E2E1E1F1E0DE0111960190A4
:101DD0000D928A95E1F7E091C202F091C30282E090
:101DE0008083E091BE02F091BF021082E091C002B8
:101DF000F091C10280E180831092CA02E091C60294
:101E0000F091C70286E08083E091C402F091C502A0
:101E1000808180618083E091C402F091C50280815D
:101E200088608083E091C402F091C502808180685F
:101E30008083E091C402F091C50280818F7D808310
:101E400088E0E1E3F1E0DE01929601900D928A953F
:101E5000E1F781E080936C0310926D0310926E03A2
:101E600080937F0398E0909380031092680380939F
:101E70006A038093690310926B03FE01B296A7E791
:101E8000B3E0CE018A960E2FFF2E21912D93E817F5
:101E9000F907D9F78AA580936F0310E080917F033B
:101EA000181798F4812F90E09C0128593C4F690144
:101EB000D90117968C910E94840160916903F60103
:101EC00087810E94E6021F5FE9CF10E080918003C6
:101ED000181750F090917F03E2E8F3E080E0981744
:101EE000B1F011928F5FFBCF812F90E09C012859B8
:101EF0003C4F6901D9011F968C910E948401609129
:101F00006B03F60187850E94E6021F5FDFCF10E0BA
:101F100080917F03181758F4E12FF0E0E859FC4F47
:101F20006091690387810E94E6021F5FF1CF609193
:101F30006B03809177030E94E60210E0809180039A
:101F4000181758F4E12FF0E0E859FC4F60916B034B
:101F500087850E94E6021F5FF1CF6091690380913F
:101F60006F030E94E60288E097E090938F038093CE
:101F70008E031092910310929003109292038CE0C2
:101F80000E94840160E08CE00E94E6028BE00E94E7
:101F9000840160E08BE00E94E60210921D02109224
:101FA0001C020E9448058AE893E090931B028093EC
:101FB0001A028BE893E090931902809318028CE048
:101FC0008093B800809164039091650320915B0336
:101FD00031E030938E022093B00210928F02109263
:101FE000B102DC01ED91FC910190F081E02D60EFF8
:101FF000099581E00E948705182F8111A1C0D0901A
:102000005B030E9432032B013C0180918802811105
:1020100063C081E080938802809387029FEF909352
:10202000860210928502109284028093630280914E
:102030006302DD0CD82AD092630280916202813063
:1020400009F093C0109262020E9432032B013C01FE
:10205000809163028093BB0080918A0290918B02F1
:10206000A0918C02B0918D02892B8A2B8B2BA1F031
:102070000E94320380908A0290908B02A0908C0282
:10208000B0908D026419750986099709861697061E
:10209000A806B90608F441C08091BC0083FDD8CFE2
:1020A00085EC8093BC000E9432032B013C0180919F
:1020B0008802813009F45BC080918502811179C06A
:1020C00080918502E4E6F2E0AEE1B2E0181749F152
:1020D00091919D931F5FFACF80918A0290918B021C
:1020E000A0918C02B0918D02892B8A2B8B2B09F445
:1020F0008CCF0E94320380908A0290908B02A09035
:102100008C02B0908D0264197509860997098616AC
:102110009706A806B90608F078CF809189020E9438
:10212000660510921D0210931C0280916403909129
:102130006503DC01ED91FC910284F385E02D0995A6
:1021400080915B0391E090938E028093B002109295
:102150008F021092B10281E00E948705882359F115
:1021600080EA91E00E941D07FFCF85EE9ACF809113
:102170008A0290918B02A0918C02B0918D02892BE2
:102180008A2B8B2B09F493CF0E94320380908A0212
:1021900090908B02A0908C02B0908D02641975090A
:1021A0008609970986169706A806B90608F07FCF14
:1021B000B4CF81E087CFCE0101960E94290780919C
:1021C00059028F598093590210926102E9E5F2E0B9
:1021D00021E632E090E28191DF01119789278C930B
:1021E0002E173F07C1F784E380935D0288E690E0F5
:1021F0000E94110780EC91E00E941D0788E690E0A4
:102200000E94110780E480937C0080917A008064B2
:1022100080937A0080917A0086FDFCCF60917800EF
:1022200070917900072E000C880B990B61157105D0
:102230008105910511F00E94281360E08BE00E9457
:10224000E60222E3422E512C612C712C30E0232E29
:1022500030E0332E1BA21AA21DA21CA21FA21EA296
:1022600050E040E06FE571E0802F9F2D0E94710BE0
:1022700089E292E00E94110710E094EF892E9924E0
:102280009394A12CB12C6EE170E0669FC001679F12
:10229000900D900D11248C599F4FBC0190E080E06F
:1022A0000E94570382EB92E00E945704892B79F039
:1022B000CE0101960E949C0BBE016F5F7F4F802F65
:1022C0009F2D0E94080BCE0101960E94410B8EA10A
:1022D0009FA1069708F081C061E08BE00E94E602B2
:1022E000C501B4010E94570344E050E06BE071E087
:1022F000802F9F2D0E94710B82EB92E00E94570469
:10230000892B09F46AC0CE0101960E949C0BBE0184
:102310006F5F7F4F802F9F2D0E94080BCE0101968B
:102320000E94410B8EA19FA18630910508F055C0F7
:10233000009721F0EAA1FBA1309721F410923E0210
:10234000EEE3F2E02081253409F047C082309105A8
:1023500020F0EAA1FBA1309781F510923E02EEE356
:10236000F2E02081223559F560E08BE00E94E60220
:102370008BEC91E00E94E60419A281E3810F88A30F
:10238000CE0180960E94000788EC91E00E94110720
:102390000E94D912A30192010E9450141F5FB2E360
:1023A0008B1A9108A108B108E8EC8E169104A104DB
:1023B000B10409F06ACF16E022C03196D2CF03975C
:1023C00028F0EAA1FBA1309709F0A5C010923E02C7
:1023D000EEE3F2E08081823539F2153081F068EE6B
:1023E00073E080E090E00E9457038DE691E00E9448
:1023F000110760EA7FE080E090E00E94570360E010
:102400008BE00E94E60268EE73E080E090E00E94BC
:102410005703153008F46FC00E940D070E940D0786
:1024200083EB90E00E94110785E491E00E94110780
:1024300089E592E00E941D078CEF90E00E94110751
:102440000E940D070E940D0784E1C82ED12C88EB55
:1024500091E00E94A30164E670E080E090E00E94B9
:1024600057038EEE91E00E94A30164E670E080E0E5
:1024700090E00E9457038BE092E00E94A30164E683
:1024800070E080E090E00E9457038BE492E00E94AD
:10249000A30164E670E080E090E00E94570383E9C6
:1024A00092E00E94A30164E670E080E090E00E9468
:1024B00057038AEB92E00E94A30164E670E080E09B
:1024C00090E00E94570380E193E00E94A30164E63C
:1024D00070E080E090E00E9457038AE00E948D0344
:1024E00064E670E080E090E00E945703F1E0CF1ACC
:1024F000D10809F0ACCF802F9F2D0E94410B2114F1
:10250000310409F4A7CE0E946304882309F4A2CE03
:102510000E9400009FCE32965DCF8F929F92AF9225
:10252000BF92CF92DF92EF92FF92CF93DF93EC01B5
:10253000688179818A819B81611571058105910589
:1025400021F464E279ED8BE597E02DE133EF41E092
:1025500050E00E94501449015A019B01AC01A7EAC6
:10256000B1E40E946F146B017C01ACEEB4EFA501E5
:1025700094010E947D14C60ED71EE81EF91EF7FEB8
:1025800006C081E0C81AD108E10880E8F80AC882CC
:10259000D982EA82FB82C701B6019F77DF91CF9192
:1025A000FF90EF90DF90CF90BF90AF909F908F9073
:1025B00008958F929F92AF92BF92CF92DF92EF9247
:1025C000FF9260910101709102018091030190914D
:1025D0000401611571058105910521F464E279ED2D
:1025E0008BE597E02DE133EF41E050E00E9450147D
:1025F00049015A019B01AC01A7EAB1E40E946F14A2
:102600006B017C01ACEEB4EFA50194010E947D1436
:10261000C60ED71EE81EF91EF7FE06C081E0C81AD6
:10262000D108E10880E8F80AC0920101D0920201C5
:10263000E0920301F0920401C701B6019F77FF9079
:10264000EF90DF90CF90BF90AF909F908F900895C4
:102650006093010170930201809303019093040140
:102660000895E89409C097FB3EF490958095709585
:1026700061957F4F8F4F9F4F9923A9F0F92F96E9CE
:10268000BB279395F695879577956795B795F11143
:10269000F8CFFAF4BB0F11F460FF1BC06F5F7F4FE0
:1026A0008F4F9F4F16C0882311F096E911C07723F2
:1026B00021F09EE8872F762F05C0662371F096E8FB
:1026C000862F70E060E02AF09A95660F771F881FCA
:1026D000DAF7880F9695879597F90895990F00086E
:1026E000550FAA0BE0E8FEEF16161706E807F907E4
:1026F000C0F012161306E407F50798F0621B730B7F
:10270000840B950B39F40A2661F0232B242B252BFF
:1027100021F408950A2609F4A140A6958FEF811DA2
:10272000811D08950E94A5130C9416140E9408148C
:1027300038F00E940F1420F0952311F00C94FF1331
:102740000C94051411240C944A140E94271470F35D
:10275000959FC1F3950F50E0551F629FF001729F46
:10276000BB27F00DB11D639FAA27F00DB11DAA1F55
:10277000649F6627B00DA11D661F829F2227B00DA2
:10278000A11D621F739FB00DA11D621F839FA00D2D
:10279000611D221F749F3327A00D611D231F849F7D
:1027A000600D211D822F762F6A2F11249F575040D4
:1027B0009AF0F1F088234AF0EE0FFF1FBB1F661F4F
:1027C000771F881F91505040A9F79E3F510580F018
:1027D0000C94FF130C944A145F3FE4F3983ED4F337
:1027E000869577956795B795F795E7959F5FC1F7BC
:1027F000FE2B880F911D9695879597F9089597F967
:102800009F6780E870E060E008959FEF80EC089596
:1028100000240A94161617061806090608950024BF
:102820000A9412161306140605060895092E039439
:10283000000C11F4882352F0BB0F40F4BF2B11F4AD
:1028400060FF04C06F5F7F4F8F4F9F4F089557FD0C
:102850009058440F551F59F05F3F71F04795880F0E
:1028600097FB991F61F09F3F79F0879508951216A5
:1028700013061406551FF2CF4695F1DF08C0161651
:1028800017061806991FF1CF869571056105089402
:102890000895E894BB2766277727CB0197F9089519
:1028A000052E97FB1EF400940E94671457FD07D075
:1028B0000E94B91407FC03D04EF40C946714509591
:1028C0004095309521953F4F4F4F5F4F089590951C
:1028D0008095709561957F4F8F4F9F4F08950E940F
:1028E000DB14A59F900DB49F900DA49F800D911DAA
:1028F00011240895B7FF0C946F140E946F14821B6B
:10290000930B08952F923F924F925F926F927F9216
:102910008F929F92AF92BF92CF92DF92EF92FF92EF
:102920000F931F93CF93DF93CDB7DEB7CA1BDB0B9B
:102930000FB6F894DEBF0FBECDBF09942A88398840
:1029400048885F846E847D848C849B84AA84B98447
:10295000C884DF80EE80FD800C811B81AA81B98153
:10296000CE0FD11D0FB6F894DEBF0FBECDBFED0167
:102970000895A1E21A2EAA1BBB1BFD010DC0AA1FC0
:10298000BB1FEE1FFF1FA217B307E407F50720F0D8
:10299000A21BB30BE40BF50B661F771F881F991F53
:1029A0001A9469F760957095809590959B01AC019C
:1029B000BD01CF010895A29FB001B39FC001A39FA5
:1029C000700D811D1124911DB29F700D811D112468
:1029D000911D08955058BB27AA270E9402150C94F8
:1029E00016140E94081438F00E940F1420F039F4D5
:1029F0009F3F19F426F40C9405140EF4E095E7FBC0
:102A00000C94FF13E92F0E94271458F3BA1762079A
:102A100073078407950720F079F4A6F50C94491400
:102A20000EF4E0950B2EBA2FA02D0B01B9019001E9
:102A30000C01CA01A0011124FF27591B99F0593F2D
:102A400050F4503E68F11A16F040A22F232F342F75
:102A50004427585FF3CF469537952795A795F040C3
:102A60005395C9F77EF41F16BA0B620B730B840BD8
:102A7000BAF09150A1F0FF0FBB1F661F771F881F90
:102A8000C2F70EC0BA0F621F731F841F48F48795E8
:102A900077956795B795F7959E3F08F0B0CF9395DA
:102AA000880F08F09927EE0F9795879508950E9453
:102AB0005E156894B1110C944A1408950E942F1465
:102AC00088F09F5798F0B92F9927B751B0F0E1F0EF
:102AD000660F771F881F991F1AF0BA95C9F714C09F
:102AE000B13091F00E944914B1E008950C9449145A
:102AF000672F782F8827B85F39F0B93FCCF38695D8
:102B000077956795B395D9F73EF490958095709534
:102B100061957F4F8F4F9F4F08950E946E1308F469
:102B20008FEF089597FB072E16F4009407D077FDDA
:102B300009D00E94A61507FC05D03EF4909581951A
:102B40009F4F0895709561957F4F0895AA1BBB1BF9
:102B500051E107C0AA1FBB1FA617B70710F0A61B9D
:102B6000B70B881F991F5A95A9F780959095BC01BE
:102B7000CD010895EE0FFF1F0590F491E02D09940B
:102B80000F931F93CF93DF938230910510F482E06F
:102B900090E0E0919503F091960330E020E0B0E002
:102BA000A0E0309799F42115310509F44AC0281B9B
:102BB000390B24303105D8F58A819B816115710567
:102BC00089F1FB0193838283FE0111C04081518111
:102BD0000281138148175907E0F04817590799F403
:102BE000109761F012960C93129713961C933296DD
:102BF000CF01DF91CF911F910F910895009395031D
:102C000010939603F4CF2115310551F04217530765
:102C100038F0A901DB019A01BD01DF01F801C1CF44
:102C2000EF01F9CF9093960380939503CDCFFE01EA
:102C3000E20FF31F81939193225031093983288346
:102C4000D7CF2091930330919403232B41F420910B
:102C5000070130910801309394032093930320914E
:102C60000501309106012115310541F42DB73EB71C
:102C70004091090150910A01241B350BE091930307
:102C8000F0919403E217F307A0F42E1B3F0B2817D3
:102C9000390778F0AC014E5F5F4F2417350748F0D5
:102CA0004E0F5F1F5093940340939303819391932E
:102CB0009FCFF0E0E0E09CCFCF93DF930097E9F067
:102CC000FC01329713821282A0919503B091960372
:102CD000ED0130E020E01097A1F420813181820FD6
:102CE000931F20919303309194032817390709F01B
:102CF00061C0F0939403E0939303DF91CF91089523
:102D0000EA01CE17DF07E8F54A815B819E01411594
:102D10005105B1F7E901FB83EA8349915991C40F49
:102D2000D51FEC17FD0761F4808191810296840F15
:102D3000951FE90199838883828193819B838A838C
:102D4000F0E0E0E012968D919C9113970097B9F511
:102D50002D913C911197CD010296820F931F2091E6
:102D60009303309194032817390739F6309751F5BA
:102D70001092960310929503B0939403A09393033B
:102D8000BCCFD383C28340815181840F951FC81764
:102D9000D90761F44E5F5F4F88819981480F591FB1
:102DA000518340838A819B819383828321153105DE
:102DB00009F0B0CFF0939603E09395039ECFFD0109
:102DC000DC01C0CF13821282D7CFB0E0A0E0EBEEDF
:102DD000F6E10C9484148C01009751F4CB010E940D
:102DE000C0158C01C801CDB7DEB7E0E10C94A0148A
:102DF000FC01E60FF71F9C0122503109E217F3078F
:102E000008F49DC0D901CD91DC911197C617D70761
:102E100098F0C530D10530F3CE0104978617970797
:102E200008F3C61BD70B2297C193D1936D937C9364
:102E3000CF010E945C16D6CF5B01AC1ABD0A4C01D3
:102E40008C0E9D1EA0919503B0919603512C412CA0
:102E5000F12CE12C109731F580919303909194031C
:102E60008815990509F05CC04616570608F058C049
:102E70008091050190910601009741F48DB79EB7AE
:102E80004091090150910A01841B950BE817F9073D
:102E900008F055C0F0939403E0939303F901718314
:102EA0006083A0CF8D919C91119712966C90129790
:102EB00013967C901397A815B90559F56C0142E05B
:102EC000C40ED11CCA14DB0420F1AC014A195B0901
:102ED000DA011296159780F06282738251834083E3
:102EE000D9016D937C93E114F10471F0D70113962D
:102EF000FC93EE93129776CF22968C0F9D1FF901CB
:102F000091838083F301EFCFF0939603E0939503D1
:102F100069CF4816590608F42C017D01D3019ACFD8
:102F2000CB010E94C0157C01009749F0AE01B801A9
:102F30000E94A217C8010E945C16870153CF10E0BF
:102F400000E050CFFB01DC0102C001900D92415026
:102F50005040D8F70895FB01DC0101900D9200204C
:082F6000E1F70895F894FFCF9A
:102F6800FF010000000000970380002020202000BF
:102F7800000AD47ABF7CC10040E30840418C0D9020
:102F8800C1C29A0CC07F250D3F45701A4123804667
:102F9800C00605020304070809000000009904B9E7
:102FA80003E60301055704F503490400000000CEB9
:102FB80006A106FD0677069A06870678060D0A001A
:102FC8004F62667573636174696F6E2069732069F7
:102FD8006E76616C69642E20506C65617365206340
:102FE8006F6E74616374206368616C6C656E67658D
:102FF8002061646D696E6973747261746F722E00FA
:103008000A63616E6E6F7420636F6D6D756E6963B0
:1030180061746520746F206B65797061642E0A0095
:103028004D697373696F6E3A20536E61636B204804
:0430380061636B0065
:00000001FF
